{
  "_format": "hh-sol-artifact-1",
  "contractName": "Carbon",
  "sourceName": "contracts/Carbon.sol",
  "abi": [
    {
      "inputs": [],
      "stateMutability": "nonpayable",
      "type": "constructor"
    },
    {
      "anonymous": false,
      "inputs": [
        {
          "indexed": true,
          "internalType": "address",
          "name": "owner",
          "type": "address"
        },
        {
          "indexed": true,
          "internalType": "address",
          "name": "approved",
          "type": "address"
        },
        {
          "indexed": true,
          "internalType": "uint256",
          "name": "tokenId",
          "type": "uint256"
        }
      ],
      "name": "Approval",
      "type": "event"
    },
    {
      "anonymous": false,
      "inputs": [
        {
          "indexed": true,
          "internalType": "address",
          "name": "owner",
          "type": "address"
        },
        {
          "indexed": true,
          "internalType": "address",
          "name": "operator",
          "type": "address"
        },
        {
          "indexed": false,
          "internalType": "bool",
          "name": "approved",
          "type": "bool"
        }
      ],
      "name": "ApprovalForAll",
      "type": "event"
    },
    {
      "anonymous": false,
      "inputs": [
        {
          "indexed": true,
          "internalType": "uint16",
          "name": "id",
          "type": "uint16"
        },
        {
          "indexed": false,
          "internalType": "uint256",
          "name": "balance",
          "type": "uint256"
        }
      ],
      "name": "Mint",
      "type": "event"
    },
    {
      "anonymous": false,
      "inputs": [
        {
          "indexed": true,
          "internalType": "address",
          "name": "previousOwner",
          "type": "address"
        },
        {
          "indexed": true,
          "internalType": "address",
          "name": "newOwner",
          "type": "address"
        }
      ],
      "name": "OwnershipTransferred",
      "type": "event"
    },
    {
      "anonymous": false,
      "inputs": [
        {
          "indexed": false,
          "internalType": "string",
          "name": "_value",
          "type": "string"
        },
        {
          "indexed": true,
          "internalType": "uint256",
          "name": "_id",
          "type": "uint256"
        }
      ],
      "name": "PermanentURI",
      "type": "event"
    },
    {
      "anonymous": false,
      "inputs": [
        {
          "indexed": true,
          "internalType": "address",
          "name": "from",
          "type": "address"
        },
        {
          "indexed": true,
          "internalType": "address",
          "name": "to",
          "type": "address"
        },
        {
          "indexed": true,
          "internalType": "uint256",
          "name": "tokenId",
          "type": "uint256"
        }
      ],
      "name": "Transfer",
      "type": "event"
    },
    {
      "inputs": [
        {
          "internalType": "uint8",
          "name": "id",
          "type": "uint8"
        },
        {
          "internalType": "bool",
          "name": "erc1155",
          "type": "bool"
        },
        {
          "internalType": "address",
          "name": "cc",
          "type": "address"
        },
        {
          "internalType": "address payable",
          "name": "wallet",
          "type": "address"
        },
        {
          "internalType": "uint16",
          "name": "maxSupply",
          "type": "uint16"
        },
        {
          "internalType": "uint16",
          "name": "minBalance",
          "type": "uint16"
        },
        {
          "internalType": "uint8",
          "name": "percRoyal",
          "type": "uint8"
        },
        {
          "internalType": "uint256",
          "name": "erc1155Id",
          "type": "uint256"
        }
      ],
      "name": "addWhiteListing",
      "outputs": [],
      "stateMutability": "nonpayable",
      "type": "function"
    },
    {
      "inputs": [
        {
          "internalType": "address",
          "name": "to",
          "type": "address"
        },
        {
          "internalType": "uint256",
          "name": "tokenId",
          "type": "uint256"
        }
      ],
      "name": "approve",
      "outputs": [],
      "stateMutability": "nonpayable",
      "type": "function"
    },
    {
      "inputs": [],
      "name": "bal",
      "outputs": [
        {
          "internalType": "uint128",
          "name": "team",
          "type": "uint128"
        },
        {
          "internalType": "uint128",
          "name": "donation",
          "type": "uint128"
        }
      ],
      "stateMutability": "view",
      "type": "function"
    },
    {
      "inputs": [
        {
          "internalType": "address",
          "name": "owner",
          "type": "address"
        }
      ],
      "name": "balanceOf",
      "outputs": [
        {
          "internalType": "uint256",
          "name": "",
          "type": "uint256"
        }
      ],
      "stateMutability": "view",
      "type": "function"
    },
    {
      "inputs": [
        {
          "internalType": "bool",
          "name": "status",
          "type": "bool"
        },
        {
          "internalType": "uint8",
          "name": "percFee",
          "type": "uint8"
        },
        {
          "internalType": "uint128",
          "name": "minFee",
          "type": "uint128"
        }
      ],
      "name": "changeFeeSettings",
      "outputs": [],
      "stateMutability": "nonpayable",
      "type": "function"
    },
    {
      "inputs": [
        {
          "internalType": "bool",
          "name": "newStatus",
          "type": "bool"
        }
      ],
      "name": "changePublicSaleStatus",
      "outputs": [],
      "stateMutability": "nonpayable",
      "type": "function"
    },
    {
      "inputs": [
        {
          "internalType": "bool",
          "name": "enabled",
          "type": "bool"
        }
      ],
      "name": "changeWhitelistingSettings",
      "outputs": [],
      "stateMutability": "nonpayable",
      "type": "function"
    },
    {
      "inputs": [],
      "name": "donationWallet",
      "outputs": [
        {
          "internalType": "address payable",
          "name": "",
          "type": "address"
        }
      ],
      "stateMutability": "view",
      "type": "function"
    },
    {
      "inputs": [
        {
          "internalType": "uint256",
          "name": "tokenId",
          "type": "uint256"
        }
      ],
      "name": "getApproved",
      "outputs": [
        {
          "internalType": "address",
          "name": "",
          "type": "address"
        }
      ],
      "stateMutability": "view",
      "type": "function"
    },
    {
      "inputs": [
        {
          "internalType": "uint8",
          "name": "lcId",
          "type": "uint8"
        }
      ],
      "name": "getListContract",
      "outputs": [
        {
          "components": [
            {
              "internalType": "bool",
              "name": "erc1155",
              "type": "bool"
            },
            {
              "internalType": "uint8",
              "name": "id",
              "type": "uint8"
            },
            {
              "internalType": "uint8",
              "name": "percRoyal",
              "type": "uint8"
            },
            {
              "internalType": "uint16",
              "name": "maxSupply",
              "type": "uint16"
            },
            {
              "internalType": "uint16",
              "name": "minBalance",
              "type": "uint16"
            },
            {
              "internalType": "uint16",
              "name": "tracker",
              "type": "uint16"
            },
            {
              "internalType": "uint128",
              "name": "balance",
              "type": "uint128"
            },
            {
              "internalType": "uint256",
              "name": "erc1155Id",
              "type": "uint256"
            },
            {
              "internalType": "address",
              "name": "cc",
              "type": "address"
            },
            {
              "internalType": "address",
              "name": "wallet",
              "type": "address"
            }
          ],
          "internalType": "struct CarbonWhitelistingLib.ListContract",
          "name": "lc",
          "type": "tuple"
        }
      ],
      "stateMutability": "view",
      "type": "function"
    },
    {
      "inputs": [],
      "name": "initMint",
      "outputs": [],
      "stateMutability": "nonpayable",
      "type": "function"
    },
    {
      "inputs": [
        {
          "internalType": "address",
          "name": "owner",
          "type": "address"
        },
        {
          "internalType": "address",
          "name": "operator",
          "type": "address"
        }
      ],
      "name": "isApprovedForAll",
      "outputs": [
        {
          "internalType": "bool",
          "name": "",
          "type": "bool"
        }
      ],
      "stateMutability": "view",
      "type": "function"
    },
    {
      "inputs": [],
      "name": "mint",
      "outputs": [],
      "stateMutability": "payable",
      "type": "function"
    },
    {
      "inputs": [],
      "name": "name",
      "outputs": [
        {
          "internalType": "string",
          "name": "",
          "type": "string"
        }
      ],
      "stateMutability": "view",
      "type": "function"
    },
    {
      "inputs": [],
      "name": "owner",
      "outputs": [
        {
          "internalType": "address",
          "name": "",
          "type": "address"
        }
      ],
      "stateMutability": "view",
      "type": "function"
    },
    {
      "inputs": [
        {
          "internalType": "uint256",
          "name": "tokenId",
          "type": "uint256"
        }
      ],
      "name": "ownerOf",
      "outputs": [
        {
          "internalType": "address",
          "name": "",
          "type": "address"
        }
      ],
      "stateMutability": "view",
      "type": "function"
    },
    {
      "inputs": [
        {
          "internalType": "uint8",
          "name": "listIndex",
          "type": "uint8"
        },
        {
          "internalType": "address",
          "name": "addressToQuery",
          "type": "address"
        }
      ],
      "name": "queryBalance",
      "outputs": [
        {
          "internalType": "uint256",
          "name": "",
          "type": "uint256"
        }
      ],
      "stateMutability": "view",
      "type": "function"
    },
    {
      "inputs": [
        {
          "internalType": "uint8",
          "name": "lcId",
          "type": "uint8"
        }
      ],
      "name": "removeWhitelisting",
      "outputs": [],
      "stateMutability": "nonpayable",
      "type": "function"
    },
    {
      "inputs": [],
      "name": "renounceOwnership",
      "outputs": [],
      "stateMutability": "nonpayable",
      "type": "function"
    },
    {
      "inputs": [
        {
          "internalType": "address",
          "name": "from",
          "type": "address"
        },
        {
          "internalType": "address",
          "name": "to",
          "type": "address"
        },
        {
          "internalType": "uint256",
          "name": "tokenId",
          "type": "uint256"
        }
      ],
      "name": "safeTransferFrom",
      "outputs": [],
      "stateMutability": "nonpayable",
      "type": "function"
    },
    {
      "inputs": [
        {
          "internalType": "address",
          "name": "from",
          "type": "address"
        },
        {
          "internalType": "address",
          "name": "to",
          "type": "address"
        },
        {
          "internalType": "uint256",
          "name": "tokenId",
          "type": "uint256"
        },
        {
          "internalType": "bytes",
          "name": "_data",
          "type": "bytes"
        }
      ],
      "name": "safeTransferFrom",
      "outputs": [],
      "stateMutability": "nonpayable",
      "type": "function"
    },
    {
      "inputs": [],
      "name": "set",
      "outputs": [
        {
          "internalType": "bool",
          "name": "publicSaleStatus",
          "type": "bool"
        },
        {
          "internalType": "bool",
          "name": "freeMinting",
          "type": "bool"
        },
        {
          "internalType": "bool",
          "name": "initMint",
          "type": "bool"
        },
        {
          "internalType": "bool",
          "name": "isWhitelistingEnabled",
          "type": "bool"
        },
        {
          "internalType": "uint8",
          "name": "percFee",
          "type": "uint8"
        },
        {
          "internalType": "uint128",
          "name": "minFee",
          "type": "uint128"
        }
      ],
      "stateMutability": "view",
      "type": "function"
    },
    {
      "inputs": [
        {
          "internalType": "address",
          "name": "operator",
          "type": "address"
        },
        {
          "internalType": "bool",
          "name": "approved",
          "type": "bool"
        }
      ],
      "name": "setApprovalForAll",
      "outputs": [],
      "stateMutability": "nonpayable",
      "type": "function"
    },
    {
      "inputs": [
        {
          "internalType": "bytes4",
          "name": "interfaceId",
          "type": "bytes4"
        }
      ],
      "name": "supportsInterface",
      "outputs": [
        {
          "internalType": "bool",
          "name": "",
          "type": "bool"
        }
      ],
      "stateMutability": "view",
      "type": "function"
    },
    {
      "inputs": [],
      "name": "symbol",
      "outputs": [
        {
          "internalType": "string",
          "name": "",
          "type": "string"
        }
      ],
      "stateMutability": "view",
      "type": "function"
    },
    {
      "inputs": [],
      "name": "teamWallet",
      "outputs": [
        {
          "internalType": "address payable",
          "name": "",
          "type": "address"
        }
      ],
      "stateMutability": "view",
      "type": "function"
    },
    {
      "inputs": [
        {
          "internalType": "uint256",
          "name": "tokenId",
          "type": "uint256"
        }
      ],
      "name": "tokenURI",
      "outputs": [
        {
          "internalType": "string",
          "name": "",
          "type": "string"
        }
      ],
      "stateMutability": "view",
      "type": "function"
    },
    {
      "inputs": [],
      "name": "totalSupply",
      "outputs": [
        {
          "internalType": "uint256",
          "name": "",
          "type": "uint256"
        }
      ],
      "stateMutability": "view",
      "type": "function"
    },
    {
      "inputs": [
        {
          "internalType": "address",
          "name": "from",
          "type": "address"
        },
        {
          "internalType": "address",
          "name": "to",
          "type": "address"
        },
        {
          "internalType": "uint256",
          "name": "tokenId",
          "type": "uint256"
        }
      ],
      "name": "transferFrom",
      "outputs": [],
      "stateMutability": "nonpayable",
      "type": "function"
    },
    {
      "inputs": [
        {
          "internalType": "address",
          "name": "newOwner",
          "type": "address"
        }
      ],
      "name": "transferOwnership",
      "outputs": [],
      "stateMutability": "nonpayable",
      "type": "function"
    },
    {
      "inputs": [],
      "name": "transferRoyalty",
      "outputs": [],
      "stateMutability": "nonpayable",
      "type": "function"
    }
  ],
  "bytecode": "0x60806040523480156200001157600080fd5b506040518060400160405280600681526020017f436172626f6e00000000000000000000000000000000000000000000000000008152506040518060400160405280600281526020017f434300000000000000000000000000000000000000000000000000000000000081525081600090805190602001906200009692919062000449565b508060019080519060200190620000af92919062000449565b505050620000d2620000c66200037b60201b60201c565b6200038360201b60201c565b6040518060c00160405280600015158152602001600115158152602001600115158152602001600115158152602001606460ff16815260200166470de4df8200006fffffffffffffffffffffffffffffffff16815250600f60008201518160000160006101000a81548160ff02191690831515021790555060208201518160000160016101000a81548160ff02191690831515021790555060408201518160000160026101000a81548160ff02191690831515021790555060608201518160000160036101000a81548160ff02191690831515021790555060808201518160000160046101000a81548160ff021916908360ff16021790555060a08201518160000160056101000a8154816fffffffffffffffffffffffffffffffff02191690836fffffffffffffffffffffffffffffffff160217905550905050604051806040016040528060006fffffffffffffffffffffffffffffffff16815260200160006fffffffffffffffffffffffffffffffff16815250601060008201518160000160006101000a8154816fffffffffffffffffffffffffffffffff02191690836fffffffffffffffffffffffffffffffff16021790555060208201518160000160106101000a8154816fffffffffffffffffffffffffffffffff02191690836fffffffffffffffffffffffffffffffff160217905550905050735b1f57449dd479e787fdf201a59d06d3cb84f5dc601160006101000a81548173ffffffffffffffffffffffffffffffffffffffff021916908373ffffffffffffffffffffffffffffffffffffffff16021790555073b1019eb5e90ad29c2fce82aab712325a1a3d5924601260006101000a81548173ffffffffffffffffffffffffffffffffffffffff021916908373ffffffffffffffffffffffffffffffffffffffff1602179055506200055e565b600033905090565b6000600760009054906101000a900473ffffffffffffffffffffffffffffffffffffffff16905081600760006101000a81548173ffffffffffffffffffffffffffffffffffffffff021916908373ffffffffffffffffffffffffffffffffffffffff1602179055508173ffffffffffffffffffffffffffffffffffffffff168173ffffffffffffffffffffffffffffffffffffffff167f8be0079c531659141344cd1fd0a4f28419497f9722a3daafe3b4186f6b6457e060405160405180910390a35050565b8280546200045790620004f9565b90600052602060002090601f0160209004810192826200047b5760008555620004c7565b82601f106200049657805160ff1916838001178555620004c7565b82800160010185558215620004c7579182015b82811115620004c6578251825591602001919060010190620004a9565b5b509050620004d69190620004da565b5090565b5b80821115620004f5576000816000905550600101620004db565b5090565b600060028204905060018216806200051257607f821691505b602082108114156200052957620005286200052f565b5b50919050565b7f4e487b7100000000000000000000000000000000000000000000000000000000600052602260045260246000fd5b6157f8806200056e6000396000f3fe6080604052600436106101d85760003560e01c8063715018a611610102578063b8e010de11610095578063e0737f7a11610064578063e0737f7a1461068d578063e7b94df4146106a4578063e985e9c5146106cf578063f2fde38b1461070c576101d8565b8063b8e010de146105ce578063bc813356146105fe578063c5836f1d14610627578063c87b56dd14610650576101d8565b80639fc18902116100d15780639fc189021461052a578063a22cb46514610553578063a81cfad91461057c578063b88d4fde146105a5576101d8565b8063715018a6146104a657806381f2fbb6146104bd5780638da5cb5b146104d457806395d89b41146104ff576101d8565b806323b872dd1161017a578063599270441161014957806359927044146103c457806361ffe80c146103ef5780636352211e1461042c57806370a0823114610469576101d8565b806323b872dd1461031d5780633d79d1c81461034657806342842e0e14610372578063586892191461039b576101d8565b8063095ea7b3116101b6578063095ea7b3146102825780630bbc2840146102ab5780631249c58b146102e857806318160ddd146102f2576101d8565b806301ffc9a7146101dd57806306fdde031461021a578063081812fc14610245575b600080fd5b3480156101e957600080fd5b5061020460048036038101906101ff91906139c3565b610735565b6040516102119190614436565b60405180910390f35b34801561022657600080fd5b5061022f610817565b60405161023c91906144b2565b60405180910390f35b34801561025157600080fd5b5061026c60048036038101906102679190613ac0565b6108a9565b60405161027991906143b4565b60405180910390f35b34801561028e57600080fd5b506102a960048036038101906102a491906138c3565b61092e565b005b3480156102b757600080fd5b506102d260048036038101906102cd9190613b1a565b610a46565b6040516102df9190614854565b60405180910390f35b6102f0610ca2565b005b3480156102fe57600080fd5b506103076113f5565b6040516103149190614a2a565b60405180910390f35b34801561032957600080fd5b50610344600480360381019061033f91906137ad565b611439565b005b34801561035257600080fd5b5061035b611499565b6040516103699291906149e6565b60405180910390f35b34801561037e57600080fd5b50610399600480360381019061039491906137ad565b6114e3565b005b3480156103a757600080fd5b506103c260048036038101906103bd9190613903565b611503565b005b3480156103d057600080fd5b506103d961159f565b6040516103e691906143cf565b60405180910390f35b3480156103fb57600080fd5b5061041660048036038101906104119190613b74565b6115c5565b6040516104239190614a2a565b60405180910390f35b34801561043857600080fd5b50610453600480360381019061044e9190613ac0565b61165d565b60405161046091906143b4565b60405180910390f35b34801561047557600080fd5b50610490600480360381019061048b9190613740565b61170f565b60405161049d9190614a2a565b60405180910390f35b3480156104b257600080fd5b506104bb6117c7565b005b3480156104c957600080fd5b506104d261184f565b005b3480156104e057600080fd5b506104e96118f8565b6040516104f691906143b4565b60405180910390f35b34801561050b57600080fd5b50610514611922565b60405161052191906144b2565b60405180910390f35b34801561053657600080fd5b50610551600480360381019061054c9190613b1a565b6119b4565b005b34801561055f57600080fd5b5061057a60048036038101906105759190613883565b611a9f565b005b34801561058857600080fd5b506105a3600480360381019061059e9190613903565b611ab5565b005b3480156105b157600080fd5b506105cc60048036038101906105c79190613800565b611b51565b005b3480156105da57600080fd5b506105e3611bb3565b6040516105f596959493929190614451565b60405180910390f35b34801561060a57600080fd5b5061062560048036038101906106209190613970565b611c3a565b005b34801561063357600080fd5b5061064e60048036038101906106499190613bb4565b611d80565b005b34801561065c57600080fd5b5061067760048036038101906106729190613ac0565b611e80565b60405161068491906144b2565b60405180910390f35b34801561069957600080fd5b506106a2611f3e565b005b3480156106b057600080fd5b506106b96120b2565b6040516106c691906143cf565b60405180910390f35b3480156106db57600080fd5b506106f660048036038101906106f1919061376d565b6120d8565b6040516107039190614436565b60405180910390f35b34801561071857600080fd5b50610733600480360381019061072e9190613740565b61216c565b005b60007f80ac58cd000000000000000000000000000000000000000000000000000000007bffffffffffffffffffffffffffffffffffffffffffffffffffffffff1916827bffffffffffffffffffffffffffffffffffffffffffffffffffffffff1916148061080057507f5b5e139f000000000000000000000000000000000000000000000000000000007bffffffffffffffffffffffffffffffffffffffffffffffffffffffff1916827bffffffffffffffffffffffffffffffffffffffffffffffffffffffff1916145b80610810575061080f82612264565b5b9050919050565b60606000805461082690614d7e565b80601f016020809104026020016040519081016040528092919081815260200182805461085290614d7e565b801561089f5780601f106108745761010080835404028352916020019161089f565b820191906000526020600020905b81548152906001019060200180831161088257829003601f168201915b5050505050905090565b60006108b4826122ce565b6108f3576040517f08c379a00000000000000000000000000000000000000000000000000000000081526004016108ea90614734565b60405180910390fd5b6004600083815260200190815260200160002060009054906101000a900473ffffffffffffffffffffffffffffffffffffffff169050919050565b60006109398261165d565b90508073ffffffffffffffffffffffffffffffffffffffff168373ffffffffffffffffffffffffffffffffffffffff1614156109aa576040517f08c379a00000000000000000000000000000000000000000000000000000000081526004016109a1906147b4565b60405180910390fd5b8073ffffffffffffffffffffffffffffffffffffffff166109c961233a565b73ffffffffffffffffffffffffffffffffffffffff1614806109f857506109f7816109f261233a565b6120d8565b5b610a37576040517f08c379a0000000000000000000000000000000000000000000000000000000008152600401610a2e90614674565b60405180910390fd5b610a418383612342565b505050565b610a4e6133f2565b600c73__$7f42e36861a97ae240e892deb466e6a38d$__63311de2079091846040518363ffffffff1660e01b8152600401610a8a9291906148f9565b60206040518083038186803b158015610aa257600080fd5b505af4158015610ab6573d6000803e3d6000fd5b505050506040513d601f19601f82011682018060405250810190610ada9190613a66565b604051806101400160405290816000820160009054906101000a900460ff161515151581526020016000820160019054906101000a900460ff1660ff1660ff1681526020016000820160029054906101000a900460ff1660ff1660ff1681526020016000820160039054906101000a900461ffff1661ffff1661ffff1681526020016000820160059054906101000a900461ffff1661ffff1661ffff1681526020016000820160079054906101000a900461ffff1661ffff1661ffff1681526020016000820160099054906101000a90046fffffffffffffffffffffffffffffffff166fffffffffffffffffffffffffffffffff166fffffffffffffffffffffffffffffffff168152602001600182015481526020016002820160009054906101000a900473ffffffffffffffffffffffffffffffffffffffff1673ffffffffffffffffffffffffffffffffffffffff1673ffffffffffffffffffffffffffffffffffffffff1681526020016003820160009054906101000a900473ffffffffffffffffffffffffffffffffffffffff1673ffffffffffffffffffffffffffffffffffffffff1673ffffffffffffffffffffffffffffffffffffffff16815250509050919050565b6000601f610cb060086123fb565b610cba9190614b60565b90506000349050600080600f60000160039054906101000a900460ff16610ce357600080610d6f565b600c73__$7f42e36861a97ae240e892deb466e6a38d$__63faa76b6b9091336040518363ffffffff1660e01b8152600401610d1f9291906148a7565b604080518083038186803b158015610d3657600080fd5b505af4158015610d4a573d6000803e3d6000fd5b505050506040513d601f19601f82011682018060405250810190610d6e9190613930565b5b91509150600f60000160009054906101000a900460ff1680610d8e5750815b610dcd576040517f08c379a0000000000000000000000000000000000000000000000000000000008152600401610dc490614834565b60405180910390fd5b61271061ffff168461ffff161115610e1a576040517f08c379a0000000000000000000000000000000000000000000000000000000008152600401610e1190614594565b60405180910390fd5b6000610e253361170f565b14610e65576040517f08c379a0000000000000000000000000000000000000000000000000000000008152600401610e5c90614814565b60405180910390fd5b6000833373ffffffffffffffffffffffffffffffffffffffff1631610e8a9190614b60565b9050600f60000160019054906101000a900460ff16610fbe57600f60000160059054906101000a90046fffffffffffffffffffffffffffffffff166fffffffffffffffffffffffffffffffff16600f60000160049054906101000a900460ff1660ff1682610ef89190614bb6565b10610f2357600f60000160049054906101000a900460ff1660ff1681610f1e9190614bb6565b610f58565b600f60000160059054906101000a90046fffffffffffffffffffffffffffffffff166fffffffffffffffffffffffffffffffff165b841015610f9a576040517f08c379a0000000000000000000000000000000000000000000000000000000008152600401610f9190614554565b60405180910390fd5b600f60000160049054906101000a900460ff1660ff1684610fbb9190614be7565b90505b610fcc338661ffff16612409565b61106385600973__$c6eddc433664ba9ed959a74e8cf867073a$__63704b15ab909189866040518463ffffffff1660e01b815260040161100e93929190614870565b60206040518083038186803b15801561102657600080fd5b505af415801561103a573d6000803e3d6000fd5b505050506040513d601f19601f8201168201806040525081019061105e9190613b47565b612427565b61106d60086124b3565b8461ffff167f670db5e74f1a636e188c98b7ee19f17b34343eac15b638250cca686522505967826040516110a19190614a2a565b60405180910390a26110be6002856110b99190614bb6565b6124c9565b601060000160008282829054906101000a90046fffffffffffffffffffffffffffffffff166110ed9190614b1a565b92506101000a8154816fffffffffffffffffffffffffffffffff02191690836fffffffffffffffffffffffffffffffff1602179055506111446064601e866111359190614be7565b61113f9190614bb6565b6124c9565b601060000160108282829054906101000a90046fffffffffffffffffffffffffffffffff166111739190614b1a565b92506101000a8154816fffffffffffffffffffffffffffffffff02191690836fffffffffffffffffffffffffffffffff160217905550600c73__$7f42e36861a97ae240e892deb466e6a38d$__6332620a3390916111d0876124c9565b6040518363ffffffff1660e01b81526004016111ed9291906148d0565b60006040518083038186803b15801561120557600080fd5b505af4158015611219573d6000803e3d6000fd5b50505050821561129057600c73__$7f42e36861a97ae240e892deb466e6a38d$__636820dc559091846040518363ffffffff1660e01b815260040161125f9291906148f9565b60006040518083038186803b15801561127757600080fd5b505af415801561128b573d6000803e3d6000fd5b505050505b600060328661129f9190614e2a565b61ffff1614156113ee576000601060000160009054906101000a90046fffffffffffffffffffffffffffffffff166fffffffffffffffffffffffffffffffff1690506000601060000160109054906101000a90046fffffffffffffffffffffffffffffffff166fffffffffffffffffffffffffffffffff1690506000601060000160006101000a8154816fffffffffffffffffffffffffffffffff02191690836fffffffffffffffffffffffffffffffff1602179055506000601060000160106101000a8154816fffffffffffffffffffffffffffffffff02191690836fffffffffffffffffffffffffffffffff1602179055506113bf601160009054906101000a900473ffffffffffffffffffffffffffffffffffffffff1683612528565b6113eb601260009054906101000a900473ffffffffffffffffffffffffffffffffffffffff1682612528565b50505b5050505050565b6000600f60000160029054906101000a900460ff1661142957601e61141a60086123fb565b6114249190614b60565b611434565b61143360086123fb565b5b905090565b61144a61144461233a565b8261261c565b611489576040517f08c379a0000000000000000000000000000000000000000000000000000000008152600401611480906147f4565b60405180910390fd5b6114948383836126fa565b505050565b60108060000160009054906101000a90046fffffffffffffffffffffffffffffffff16908060000160109054906101000a90046fffffffffffffffffffffffffffffffff16905082565b6114fe83838360405180602001604052806000815250611b51565b505050565b61150b61233a565b73ffffffffffffffffffffffffffffffffffffffff166115296118f8565b73ffffffffffffffffffffffffffffffffffffffff161461157f576040517f08c379a000000000000000000000000000000000000000000000000000000000815260040161157690614754565b60405180910390fd5b80600f60000160006101000a81548160ff02191690831515021790555050565b601160009054906101000a900473ffffffffffffffffffffffffffffffffffffffff1681565b6000600c73__$7f42e36861a97ae240e892deb466e6a38d$__63ad332c78909185856040518463ffffffff1660e01b815260040161160593929190614922565b60206040518083038186803b15801561161d57600080fd5b505af4158015611631573d6000803e3d6000fd5b505050506040513d601f19601f820116820180604052508101906116559190613aed565b905092915050565b6000806002600084815260200190815260200160002060009054906101000a900473ffffffffffffffffffffffffffffffffffffffff169050600073ffffffffffffffffffffffffffffffffffffffff168173ffffffffffffffffffffffffffffffffffffffff161415611706576040517f08c379a00000000000000000000000000000000000000000000000000000000081526004016116fd906146b4565b60405180910390fd5b80915050919050565b60008073ffffffffffffffffffffffffffffffffffffffff168273ffffffffffffffffffffffffffffffffffffffff161415611780576040517f08c379a000000000000000000000000000000000000000000000000000000000815260040161177790614694565b60405180910390fd5b600360008373ffffffffffffffffffffffffffffffffffffffff1673ffffffffffffffffffffffffffffffffffffffff168152602001908152602001600020549050919050565b6117cf61233a565b73ffffffffffffffffffffffffffffffffffffffff166117ed6118f8565b73ffffffffffffffffffffffffffffffffffffffff1614611843576040517f08c379a000000000000000000000000000000000000000000000000000000000815260040161183a90614754565b60405180910390fd5b61184d6000612956565b565b6118f633600c73__$7f42e36861a97ae240e892deb466e6a38d$__634714c42c9091336040518363ffffffff1660e01b815260040161188f9291906148a7565b60206040518083038186803b1580156118a757600080fd5b505af41580156118bb573d6000803e3d6000fd5b505050506040513d601f19601f820116820180604052508101906118df9190613a93565b6fffffffffffffffffffffffffffffffff16612528565b565b6000600760009054906101000a900473ffffffffffffffffffffffffffffffffffffffff16905090565b60606001805461193190614d7e565b80601f016020809104026020016040519081016040528092919081815260200182805461195d90614d7e565b80156119aa5780601f1061197f576101008083540402835291602001916119aa565b820191906000526020600020905b81548152906001019060200180831161198d57829003601f168201915b5050505050905090565b6119bc61233a565b73ffffffffffffffffffffffffffffffffffffffff166119da6118f8565b73ffffffffffffffffffffffffffffffffffffffff1614611a30576040517f08c379a0000000000000000000000000000000000000000000000000000000008152600401611a2790614754565b60405180910390fd5b600c73__$7f42e36861a97ae240e892deb466e6a38d$__6303a5634d9091836040518363ffffffff1660e01b8152600401611a6c9291906148f9565b60006040518083038186803b158015611a8457600080fd5b505af4158015611a98573d6000803e3d6000fd5b5050505050565b611ab1611aaa61233a565b8383612a1c565b5050565b611abd61233a565b73ffffffffffffffffffffffffffffffffffffffff16611adb6118f8565b73ffffffffffffffffffffffffffffffffffffffff1614611b31576040517f08c379a0000000000000000000000000000000000000000000000000000000008152600401611b2890614754565b60405180910390fd5b80600f60000160036101000a81548160ff02191690831515021790555050565b611b62611b5c61233a565b8361261c565b611ba1576040517f08c379a0000000000000000000000000000000000000000000000000000000008152600401611b98906147f4565b60405180910390fd5b611bad84848484612b89565b50505050565b600f8060000160009054906101000a900460ff16908060000160019054906101000a900460ff16908060000160029054906101000a900460ff16908060000160039054906101000a900460ff16908060000160049054906101000a900460ff16908060000160059054906101000a90046fffffffffffffffffffffffffffffffff16905086565b611c4261233a565b73ffffffffffffffffffffffffffffffffffffffff16611c606118f8565b73ffffffffffffffffffffffffffffffffffffffff1614611cb6576040517f08c379a0000000000000000000000000000000000000000000000000000000008152600401611cad90614754565b60405180910390fd5b8280611cc5575060008260ff16115b611d04576040517f08c379a0000000000000000000000000000000000000000000000000000000008152600401611cfb906147d4565b60405180910390fd5b82600f60000160016101000a81548160ff02191690831515021790555081600f60000160046101000a81548160ff021916908360ff16021790555080600f60000160056101000a8154816fffffffffffffffffffffffffffffffff02191690836fffffffffffffffffffffffffffffffff160217905550505050565b611d8861233a565b73ffffffffffffffffffffffffffffffffffffffff16611da66118f8565b73ffffffffffffffffffffffffffffffffffffffff1614611dfc576040517f08c379a0000000000000000000000000000000000000000000000000000000008152600401611df390614754565b60405180910390fd5b600c73__$7f42e36861a97ae240e892deb466e6a38d$__63e63771f390918a8a8a8a8a8a8a8a6040518a63ffffffff1660e01b8152600401611e4699989796959493929190614959565b60006040518083038186803b158015611e5e57600080fd5b505af4158015611e72573d6000803e3d6000fd5b505050505050505050505050565b606073__$8fa37754c002c0ad130ebed23c06023cce$__633beaa6ab836040518263ffffffff1660e01b8152600401611eb99190614a0f565b60006040518083038186803b158015611ed157600080fd5b505af4158015611ee5573d6000803e3d6000fd5b505050506040513d6000823e3d601f19601f82011682018060405250810190611f0e9190613a1d565b611f1783612be5565b604051602001611f28929190614341565b6040516020818303038152906040529050919050565b611f4661233a565b73ffffffffffffffffffffffffffffffffffffffff16611f646118f8565b73ffffffffffffffffffffffffffffffffffffffff1614611fba576040517f08c379a0000000000000000000000000000000000000000000000000000000008152600401611fb190614754565b60405180910390fd5b600f60000160029054906101000a900460ff1661200c576040517f08c379a0000000000000000000000000000000000000000000000000000000008152600401612003906144d4565b60405180910390fd5b60005b601e8110156120af57612032336001836120299190614b60565b61ffff16612409565b60006120656009831161204657600b612060565b6001600a846120559190614e5b565b61205f9190614b60565b5b612d37565b905061207d6001836120779190614b60565b82612427565b6000600f60000160026101000a81548160ff0219169083151502179055505080806120a790614de1565b91505061200f565b50565b601260009054906101000a900473ffffffffffffffffffffffffffffffffffffffff1681565b6000600560008473ffffffffffffffffffffffffffffffffffffffff1673ffffffffffffffffffffffffffffffffffffffff16815260200190815260200160002060008373ffffffffffffffffffffffffffffffffffffffff1673ffffffffffffffffffffffffffffffffffffffff16815260200190815260200160002060009054906101000a900460ff16905092915050565b61217461233a565b73ffffffffffffffffffffffffffffffffffffffff166121926118f8565b73ffffffffffffffffffffffffffffffffffffffff16146121e8576040517f08c379a00000000000000000000000000000000000000000000000000000000081526004016121df90614754565b60405180910390fd5b600073ffffffffffffffffffffffffffffffffffffffff168173ffffffffffffffffffffffffffffffffffffffff161415612258576040517f08c379a000000000000000000000000000000000000000000000000000000000815260040161224f90614514565b60405180910390fd5b61226181612956565b50565b60007f01ffc9a7000000000000000000000000000000000000000000000000000000007bffffffffffffffffffffffffffffffffffffffffffffffffffffffff1916827bffffffffffffffffffffffffffffffffffffffffffffffffffffffff1916149050919050565b60008073ffffffffffffffffffffffffffffffffffffffff166002600084815260200190815260200160002060009054906101000a900473ffffffffffffffffffffffffffffffffffffffff1673ffffffffffffffffffffffffffffffffffffffff1614159050919050565b600033905090565b816004600083815260200190815260200160002060006101000a81548173ffffffffffffffffffffffffffffffffffffffff021916908373ffffffffffffffffffffffffffffffffffffffff160217905550808273ffffffffffffffffffffffffffffffffffffffff166123b58361165d565b73ffffffffffffffffffffffffffffffffffffffff167f8c5be1e5ebec7d5bd14f71427d1e84f3dd0314c0f7b2291e5b200ac8c7c3b92560405160405180910390a45050565b600081600001549050919050565b612423828260405180602001604052806000815250612d87565b5050565b60006124358260ff16612de2565b6124428461ffff16612de2565b604051602001612453929190614365565b60405160208183030381529060405290506124728361ffff1682612f43565b8261ffff167fa109ba539900bf1b633f956d63c96fc89b814c7287f7aa50a9216d0b55657207826040516124a691906144b2565b60405180910390a2505050565b6001816000016000828254019250508190555050565b60006fffffffffffffffffffffffffffffffff8016821115612520576040517f08c379a0000000000000000000000000000000000000000000000000000000008152600401612517906145f4565b60405180910390fd5b819050919050565b8047101561256b576040517f08c379a000000000000000000000000000000000000000000000000000000000815260040161256290614634565b60405180910390fd5b60008273ffffffffffffffffffffffffffffffffffffffff16826040516125919061439f565b60006040518083038185875af1925050503d80600081146125ce576040519150601f19603f3d011682016040523d82523d6000602084013e6125d3565b606091505b5050905080612617576040517f08c379a000000000000000000000000000000000000000000000000000000000815260040161260e90614614565b60405180910390fd5b505050565b6000612627826122ce565b612666576040517f08c379a000000000000000000000000000000000000000000000000000000000815260040161265d90614654565b60405180910390fd5b60006126718361165d565b90508073ffffffffffffffffffffffffffffffffffffffff168473ffffffffffffffffffffffffffffffffffffffff1614806126e057508373ffffffffffffffffffffffffffffffffffffffff166126c8846108a9565b73ffffffffffffffffffffffffffffffffffffffff16145b806126f157506126f081856120d8565b5b91505092915050565b8273ffffffffffffffffffffffffffffffffffffffff1661271a8261165d565b73ffffffffffffffffffffffffffffffffffffffff1614612770576040517f08c379a000000000000000000000000000000000000000000000000000000000815260040161276790614774565b60405180910390fd5b600073ffffffffffffffffffffffffffffffffffffffff168273ffffffffffffffffffffffffffffffffffffffff1614156127e0576040517f08c379a00000000000000000000000000000000000000000000000000000000081526004016127d7906145b4565b60405180910390fd5b6127eb838383612fb7565b6127f6600082612342565b6001600360008573ffffffffffffffffffffffffffffffffffffffff1673ffffffffffffffffffffffffffffffffffffffff16815260200190815260200160002060008282546128469190614c41565b925050819055506001600360008473ffffffffffffffffffffffffffffffffffffffff1673ffffffffffffffffffffffffffffffffffffffff168152602001908152602001600020600082825461289d9190614b60565b92505081905550816002600083815260200190815260200160002060006101000a81548173ffffffffffffffffffffffffffffffffffffffff021916908373ffffffffffffffffffffffffffffffffffffffff160217905550808273ffffffffffffffffffffffffffffffffffffffff168473ffffffffffffffffffffffffffffffffffffffff167fddf252ad1be2c89b69c2b068fc378daa952ba7f163c4a11628f55a4df523b3ef60405160405180910390a4505050565b6000600760009054906101000a900473ffffffffffffffffffffffffffffffffffffffff16905081600760006101000a81548173ffffffffffffffffffffffffffffffffffffffff021916908373ffffffffffffffffffffffffffffffffffffffff1602179055508173ffffffffffffffffffffffffffffffffffffffff168173ffffffffffffffffffffffffffffffffffffffff167f8be0079c531659141344cd1fd0a4f28419497f9722a3daafe3b4186f6b6457e060405160405180910390a35050565b8173ffffffffffffffffffffffffffffffffffffffff168373ffffffffffffffffffffffffffffffffffffffff161415612a8b576040517f08c379a0000000000000000000000000000000000000000000000000000000008152600401612a82906145d4565b60405180910390fd5b80600560008573ffffffffffffffffffffffffffffffffffffffff1673ffffffffffffffffffffffffffffffffffffffff16815260200190815260200160002060008473ffffffffffffffffffffffffffffffffffffffff1673ffffffffffffffffffffffffffffffffffffffff16815260200190815260200160002060006101000a81548160ff0219169083151502179055508173ffffffffffffffffffffffffffffffffffffffff168373ffffffffffffffffffffffffffffffffffffffff167f17307eab39ab6107e8899845ad3d59bd9653f200f220920489ca2b5937696c3183604051612b7c9190614436565b60405180910390a3505050565b612b948484846126fa565b612ba084848484612fbc565b612bdf576040517f08c379a0000000000000000000000000000000000000000000000000000000008152600401612bd6906144f4565b60405180910390fd5b50505050565b6060612bf0826122ce565b612c2f576040517f08c379a0000000000000000000000000000000000000000000000000000000008152600401612c2690614714565b60405180910390fd5b6000600660008481526020019081526020016000208054612c4f90614d7e565b80601f0160208091040260200160405190810160405280929190818152602001828054612c7b90614d7e565b8015612cc85780601f10612c9d57610100808354040283529160200191612cc8565b820191906000526020600020905b815481529060010190602001808311612cab57829003601f168201915b505050505090506000612cd9613153565b9050600081511415612cef578192505050612d32565b600082511115612d24578082604051602001612d0c929190614341565b60405160208183030381529060405292505050612d32565b612d2d8461316a565b925050505b919050565b600060ff8016821115612d7f576040517f08c379a0000000000000000000000000000000000000000000000000000000008152600401612d7690614534565b60405180910390fd5b819050919050565b612d918383613211565b612d9e6000848484612fbc565b612ddd576040517f08c379a0000000000000000000000000000000000000000000000000000000008152600401612dd4906144f4565b60405180910390fd5b505050565b60606000821415612e2a576040518060400160405280600181526020017f30000000000000000000000000000000000000000000000000000000000000008152509050612f3e565b600082905060005b60008214612e5c578080612e4590614de1565b915050600a82612e559190614bb6565b9150612e32565b60008167ffffffffffffffff811115612e7857612e77614f48565b5b6040519080825280601f01601f191660200182016040528015612eaa5781602001600182028036833780820191505090505b5090505b60008514612f3757600182612ec39190614c41565b9150600a85612ed29190614e5b565b6030612ede9190614b60565b60f81b818381518110612ef457612ef3614f19565b5b60200101907effffffffffffffffffffffffffffffffffffffffffffffffffffffffffffff1916908160001a905350600a85612f309190614bb6565b9450612eae565b8093505050505b919050565b612f4c826122ce565b612f8b576040517f08c379a0000000000000000000000000000000000000000000000000000000008152600401612f82906146d4565b60405180910390fd5b80600660008481526020019081526020016000209080519060200190612fb2929190613497565b505050565b505050565b6000612fdd8473ffffffffffffffffffffffffffffffffffffffff166133df565b15613146578373ffffffffffffffffffffffffffffffffffffffff1663150b7a0261300661233a565b8786866040518563ffffffff1660e01b815260040161302894939291906143ea565b602060405180830381600087803b15801561304257600080fd5b505af192505050801561307357506040513d601f19601f8201168201806040525081019061307091906139f0565b60015b6130f6573d80600081146130a3576040519150601f19603f3d011682016040523d82523d6000602084013e6130a8565b606091505b506000815114156130ee576040517f08c379a00000000000000000000000000000000000000000000000000000000081526004016130e5906144f4565b60405180910390fd5b805181602001fd5b63150b7a0260e01b7bffffffffffffffffffffffffffffffffffffffffffffffffffffffff1916817bffffffffffffffffffffffffffffffffffffffffffffffffffffffff19161491505061314b565b600190505b949350505050565b606060405180602001604052806000815250905090565b6060613175826122ce565b6131b4576040517f08c379a00000000000000000000000000000000000000000000000000000000081526004016131ab90614794565b60405180910390fd5b60006131be613153565b905060008151116131de5760405180602001604052806000815250613209565b806131e884612de2565b6040516020016131f9929190614341565b6040516020818303038152906040525b915050919050565b600073ffffffffffffffffffffffffffffffffffffffff168273ffffffffffffffffffffffffffffffffffffffff161415613281576040517f08c379a0000000000000000000000000000000000000000000000000000000008152600401613278906146f4565b60405180910390fd5b61328a816122ce565b156132ca576040517f08c379a00000000000000000000000000000000000000000000000000000000081526004016132c190614574565b60405180910390fd5b6132d660008383612fb7565b6001600360008473ffffffffffffffffffffffffffffffffffffffff1673ffffffffffffffffffffffffffffffffffffffff16815260200190815260200160002060008282546133269190614b60565b92505081905550816002600083815260200190815260200160002060006101000a81548173ffffffffffffffffffffffffffffffffffffffff021916908373ffffffffffffffffffffffffffffffffffffffff160217905550808273ffffffffffffffffffffffffffffffffffffffff16600073ffffffffffffffffffffffffffffffffffffffff167fddf252ad1be2c89b69c2b068fc378daa952ba7f163c4a11628f55a4df523b3ef60405160405180910390a45050565b600080823b905060008111915050919050565b604051806101400160405280600015158152602001600060ff168152602001600060ff168152602001600061ffff168152602001600061ffff168152602001600061ffff16815260200160006fffffffffffffffffffffffffffffffff16815260200160008152602001600073ffffffffffffffffffffffffffffffffffffffff168152602001600073ffffffffffffffffffffffffffffffffffffffff1681525090565b8280546134a390614d7e565b90600052602060002090601f0160209004810192826134c5576000855561350c565b82601f106134de57805160ff191683800117855561350c565b8280016001018555821561350c579182015b8281111561350b5782518255916020019190600101906134f0565b5b509050613519919061351d565b5090565b5b8082111561353657600081600090555060010161351e565b5090565b600061354d61354884614a6a565b614a45565b90508281526020810184848401111561356957613568614f7c565b5b613574848285614d3c565b509392505050565b600061358f61358a84614a9b565b614a45565b9050828152602081018484840111156135ab576135aa614f7c565b5b6135b6848285614d4b565b509392505050565b6000813590506135cd816156f3565b92915050565b6000813590506135e28161570a565b92915050565b6000813590506135f781615721565b92915050565b60008151905061360c81615721565b92915050565b60008135905061362181615738565b92915050565b60008151905061363681615738565b92915050565b600082601f83011261365157613650614f77565b5b813561366184826020860161353a565b91505092915050565b600082601f83011261367f5761367e614f77565b5b815161368f84826020860161357c565b91505092915050565b6000815190506136a78161574f565b92915050565b6000813590506136bc81615766565b92915050565b6000815190506136d181615766565b92915050565b6000813590506136e68161577d565b92915050565b6000813590506136fb81615794565b92915050565b60008151905061371081615794565b92915050565b600081359050613725816157ab565b92915050565b60008151905061373a816157ab565b92915050565b60006020828403121561375657613755614f86565b5b6000613764848285016135be565b91505092915050565b6000806040838503121561378457613783614f86565b5b6000613792858286016135be565b92505060206137a3858286016135be565b9150509250929050565b6000806000606084860312156137c6576137c5614f86565b5b60006137d4868287016135be565b93505060206137e5868287016135be565b92505060406137f6868287016136ec565b9150509250925092565b6000806000806080858703121561381a57613819614f86565b5b6000613828878288016135be565b9450506020613839878288016135be565b935050604061384a878288016136ec565b925050606085013567ffffffffffffffff81111561386b5761386a614f81565b5b6138778782880161363c565b91505092959194509250565b6000806040838503121561389a57613899614f86565b5b60006138a8858286016135be565b92505060206138b9858286016135e8565b9150509250929050565b600080604083850312156138da576138d9614f86565b5b60006138e8858286016135be565b92505060206138f9858286016136ec565b9150509250929050565b60006020828403121561391957613918614f86565b5b6000613927848285016135e8565b91505092915050565b6000806040838503121561394757613946614f86565b5b6000613955858286016135fd565b92505060206139668582860161372b565b9150509250929050565b60008060006060848603121561398957613988614f86565b5b6000613997868287016135e8565b93505060206139a886828701613716565b92505060406139b9868287016136ad565b9150509250925092565b6000602082840312156139d9576139d8614f86565b5b60006139e784828501613612565b91505092915050565b600060208284031215613a0657613a05614f86565b5b6000613a1484828501613627565b91505092915050565b600060208284031215613a3357613a32614f86565b5b600082015167ffffffffffffffff811115613a5157613a50614f81565b5b613a5d8482850161366a565b91505092915050565b600060208284031215613a7c57613a7b614f86565b5b6000613a8a84828501613698565b91505092915050565b600060208284031215613aa957613aa8614f86565b5b6000613ab7848285016136c2565b91505092915050565b600060208284031215613ad657613ad5614f86565b5b6000613ae4848285016136ec565b91505092915050565b600060208284031215613b0357613b02614f86565b5b6000613b1184828501613701565b91505092915050565b600060208284031215613b3057613b2f614f86565b5b6000613b3e84828501613716565b91505092915050565b600060208284031215613b5d57613b5c614f86565b5b6000613b6b8482850161372b565b91505092915050565b60008060408385031215613b8b57613b8a614f86565b5b6000613b9985828601613716565b9250506020613baa858286016135be565b9150509250929050565b600080600080600080600080610100898b031215613bd557613bd4614f86565b5b6000613be38b828c01613716565b9850506020613bf48b828c016135e8565b9750506040613c058b828c016135be565b9650506060613c168b828c016135d3565b9550506080613c278b828c016136d7565b94505060a0613c388b828c016136d7565b93505060c0613c498b828c01613716565b92505060e0613c5a8b828c016136ec565b9150509295985092959890939650565b613c7381614c87565b82525050565b613c8281614c87565b82525050565b613c9181614c75565b82525050565b613ca081614c75565b82525050565b613caf81614c75565b82525050565b613cbe81614c99565b82525050565b613ccd81614c99565b82525050565b613cdc81614c99565b82525050565b6000613ced82614acc565b613cf78185614ae2565b9350613d07818560208601614d4b565b613d1081614f8b565b840191505092915050565b6000613d2682614ad7565b613d308185614afe565b9350613d40818560208601614d4b565b613d4981614f8b565b840191505092915050565b6000613d5f82614ad7565b613d698185614b0f565b9350613d79818560208601614d4b565b80840191505092915050565b6000613d92600983614afe565b9150613d9d82614f9c565b602082019050919050565b6000613db5603283614afe565b9150613dc082614fc5565b604082019050919050565b6000613dd8602683614afe565b9150613de382615014565b604082019050919050565b6000613dfb602583614afe565b9150613e0682615063565b604082019050919050565b6000613e1e601283614afe565b9150613e29826150b2565b602082019050919050565b6000613e41601c83614afe565b9150613e4c826150db565b602082019050919050565b6000613e64601483614afe565b9150613e6f82615104565b602082019050919050565b6000613e87602483614afe565b9150613e928261512d565b604082019050919050565b6000613eaa601983614afe565b9150613eb58261517c565b602082019050919050565b6000613ecd602783614afe565b9150613ed8826151a5565b604082019050919050565b6000613ef0603a83614afe565b9150613efb826151f4565b604082019050919050565b6000613f13601d83614afe565b9150613f1e82615243565b602082019050919050565b6000613f36602c83614afe565b9150613f418261526c565b604082019050919050565b6000613f59603883614afe565b9150613f64826152bb565b604082019050919050565b6000613f7c602a83614afe565b9150613f878261530a565b604082019050919050565b6000613f9f602983614afe565b9150613faa82615359565b604082019050919050565b6000613fc2602e83614afe565b9150613fcd826153a8565b604082019050919050565b6000613fe5602083614afe565b9150613ff0826153f7565b602082019050919050565b6000614008603183614afe565b915061401382615420565b604082019050919050565b600061402b602c83614afe565b91506140368261546f565b604082019050919050565b600061404e600583614b0f565b9150614059826154be565b600582019050919050565b6000614071602083614afe565b915061407c826154e7565b602082019050919050565b6000614094602983614afe565b915061409f82615510565b604082019050919050565b60006140b7602f83614afe565b91506140c28261555f565b604082019050919050565b60006140da602183614afe565b91506140e5826155ae565b604082019050919050565b60006140fd600e83614afe565b9150614108826155fd565b602082019050919050565b6000614120600083614af3565b915061412b82615626565b600082019050919050565b6000614143603183614afe565b915061414e82615629565b604082019050919050565b6000614166600183614b0f565b915061417182615678565b600182019050919050565b6000614189600c83614afe565b9150614194826156a1565b602082019050919050565b60006141ac600483614afe565b91506141b7826156ca565b602082019050919050565b610140820160008201516141d96000850182613cb5565b5060208201516141ec6020850182614314565b5060408201516141ff6040850182614314565b50606082015161421260608501826142c9565b50608082015161422560808501826142c9565b5060a082015161423860a08501826142c9565b5060c082015161424b60c085018261429c565b5060e082015161425e60e08501826142e7565b50610100820151614273610100850182613c88565b50610120820151614288610120850182613c88565b50505050565b8082525050565b8082525050565b6142a581614cdb565b82525050565b6142b481614cdb565b82525050565b6142c381614cdb565b82525050565b6142d281614cf7565b82525050565b6142e181614cf7565b82525050565b6142f081614d25565b82525050565b6142ff81614d25565b82525050565b61430e81614d25565b82525050565b61431d81614d2f565b82525050565b61432c81614d2f565b82525050565b61433b81614d2f565b82525050565b600061434d8285613d54565b91506143598284613d54565b91508190509392505050565b60006143718285613d54565b915061437c82614159565b91506143888284613d54565b915061439382614041565b91508190509392505050565b60006143aa82614113565b9150819050919050565b60006020820190506143c96000830184613c97565b92915050565b60006020820190506143e46000830184613c6a565b92915050565b60006080820190506143ff6000830187613c97565b61440c6020830186613c97565b61441960408301856142f6565b818103606083015261442b8184613ce2565b905095945050505050565b600060208201905061444b6000830184613cc4565b92915050565b600060c0820190506144666000830189613cc4565b6144736020830188613cc4565b6144806040830187613cc4565b61448d6060830186613cc4565b61449a6080830185614323565b6144a760a08301846142ab565b979650505050505050565b600060208201905081810360008301526144cc8184613d1b565b905092915050565b600060208201905081810360008301526144ed81613d85565b9050919050565b6000602082019050818103600083015261450d81613da8565b9050919050565b6000602082019050818103600083015261452d81613dcb565b9050919050565b6000602082019050818103600083015261454d81613dee565b9050919050565b6000602082019050818103600083015261456d81613e11565b9050919050565b6000602082019050818103600083015261458d81613e34565b9050919050565b600060208201905081810360008301526145ad81613e57565b9050919050565b600060208201905081810360008301526145cd81613e7a565b9050919050565b600060208201905081810360008301526145ed81613e9d565b9050919050565b6000602082019050818103600083015261460d81613ec0565b9050919050565b6000602082019050818103600083015261462d81613ee3565b9050919050565b6000602082019050818103600083015261464d81613f06565b9050919050565b6000602082019050818103600083015261466d81613f29565b9050919050565b6000602082019050818103600083015261468d81613f4c565b9050919050565b600060208201905081810360008301526146ad81613f6f565b9050919050565b600060208201905081810360008301526146cd81613f92565b9050919050565b600060208201905081810360008301526146ed81613fb5565b9050919050565b6000602082019050818103600083015261470d81613fd8565b9050919050565b6000602082019050818103600083015261472d81613ffb565b9050919050565b6000602082019050818103600083015261474d8161401e565b9050919050565b6000602082019050818103600083015261476d81614064565b9050919050565b6000602082019050818103600083015261478d81614087565b9050919050565b600060208201905081810360008301526147ad816140aa565b9050919050565b600060208201905081810360008301526147cd816140cd565b9050919050565b600060208201905081810360008301526147ed816140f0565b9050919050565b6000602082019050818103600083015261480d81614136565b9050919050565b6000602082019050818103600083015261482d8161417c565b9050919050565b6000602082019050818103600083015261484d8161419f565b9050919050565b60006101408201905061486a60008301846141c2565b92915050565b6000606082019050614885600083018661428e565b61489260208301856142d8565b61489f6040830184614305565b949350505050565b60006040820190506148bc6000830185614295565b6148c96020830184613ca6565b9392505050565b60006040820190506148e56000830185614295565b6148f260208301846142ba565b9392505050565b600060408201905061490e6000830185614295565b61491b6020830184614332565b9392505050565b60006060820190506149376000830186614295565b6149446020830185614332565b6149516040830184613ca6565b949350505050565b60006101208201905061496f600083018c614295565b61497c602083018b614332565b614989604083018a613cd3565b6149966060830189613ca6565b6149a36080830188613c79565b6149b060a08301876142d8565b6149bd60c08301866142d8565b6149ca60e0830185614332565b6149d8610100830184614305565b9a9950505050505050505050565b60006040820190506149fb60008301856142ab565b614a0860208301846142ab565b9392505050565b6000602082019050614a246000830184614305565b92915050565b6000602082019050614a3f60008301846142f6565b92915050565b6000614a4f614a60565b9050614a5b8282614db0565b919050565b6000604051905090565b600067ffffffffffffffff821115614a8557614a84614f48565b5b614a8e82614f8b565b9050602081019050919050565b600067ffffffffffffffff821115614ab657614ab5614f48565b5b614abf82614f8b565b9050602081019050919050565b600081519050919050565b600081519050919050565b600082825260208201905092915050565b600081905092915050565b600082825260208201905092915050565b600081905092915050565b6000614b2582614cdb565b9150614b3083614cdb565b9250826fffffffffffffffffffffffffffffffff03821115614b5557614b54614e8c565b5b828201905092915050565b6000614b6b82614d25565b9150614b7683614d25565b9250827fffffffffffffffffffffffffffffffffffffffffffffffffffffffffffffffff03821115614bab57614baa614e8c565b5b828201905092915050565b6000614bc182614d25565b9150614bcc83614d25565b925082614bdc57614bdb614ebb565b5b828204905092915050565b6000614bf282614d25565b9150614bfd83614d25565b9250817fffffffffffffffffffffffffffffffffffffffffffffffffffffffffffffffff0483118215151615614c3657614c35614e8c565b5b828202905092915050565b6000614c4c82614d25565b9150614c5783614d25565b925082821015614c6a57614c69614e8c565b5b828203905092915050565b6000614c8082614d05565b9050919050565b6000614c9282614d05565b9050919050565b60008115159050919050565b60007fffffffff0000000000000000000000000000000000000000000000000000000082169050919050565b6000819050919050565b60006fffffffffffffffffffffffffffffffff82169050919050565b600061ffff82169050919050565b600073ffffffffffffffffffffffffffffffffffffffff82169050919050565b6000819050919050565b600060ff82169050919050565b82818337600083830152505050565b60005b83811015614d69578082015181840152602081019050614d4e565b83811115614d78576000848401525b50505050565b60006002820490506001821680614d9657607f821691505b60208210811415614daa57614da9614eea565b5b50919050565b614db982614f8b565b810181811067ffffffffffffffff82111715614dd857614dd7614f48565b5b80604052505050565b6000614dec82614d25565b91507fffffffffffffffffffffffffffffffffffffffffffffffffffffffffffffffff821415614e1f57614e1e614e8c565b5b600182019050919050565b6000614e3582614cf7565b9150614e4083614cf7565b925082614e5057614e4f614ebb565b5b828206905092915050565b6000614e6682614d25565b9150614e7183614d25565b925082614e8157614e80614ebb565b5b828206905092915050565b7f4e487b7100000000000000000000000000000000000000000000000000000000600052601160045260246000fd5b7f4e487b7100000000000000000000000000000000000000000000000000000000600052601260045260246000fd5b7f4e487b7100000000000000000000000000000000000000000000000000000000600052602260045260246000fd5b7f4e487b7100000000000000000000000000000000000000000000000000000000600052603260045260246000fd5b7f4e487b7100000000000000000000000000000000000000000000000000000000600052604160045260246000fd5b600080fd5b600080fd5b600080fd5b600080fd5b6000601f19601f8301169050919050565b7f4f4e4c595f4f4e43450000000000000000000000000000000000000000000000600082015250565b7f4552433732313a207472616e7366657220746f206e6f6e20455243373231526560008201527f63656976657220696d706c656d656e7465720000000000000000000000000000602082015250565b7f4f776e61626c653a206e6577206f776e657220697320746865207a65726f206160008201527f6464726573730000000000000000000000000000000000000000000000000000602082015250565b7f53616665436173743a2076616c756520646f65736e27742066697420696e203860008201527f2062697473000000000000000000000000000000000000000000000000000000602082015250565b7f494e53554646494349454e545f46554e44530000000000000000000000000000600082015250565b7f4552433732313a20746f6b656e20616c7265616479206d696e74656400000000600082015250565b7f544f54414c5f535550504c595f52454143484544000000000000000000000000600082015250565b7f4552433732313a207472616e7366657220746f20746865207a65726f2061646460008201527f7265737300000000000000000000000000000000000000000000000000000000602082015250565b7f4552433732313a20617070726f766520746f2063616c6c657200000000000000600082015250565b7f53616665436173743a2076616c756520646f65736e27742066697420696e203160008201527f3238206269747300000000000000000000000000000000000000000000000000602082015250565b7f416464726573733a20756e61626c6520746f2073656e642076616c75652c207260008201527f6563697069656e74206d61792068617665207265766572746564000000000000602082015250565b7f416464726573733a20696e73756666696369656e742062616c616e6365000000600082015250565b7f4552433732313a206f70657261746f7220717565727920666f72206e6f6e657860008201527f697374656e7420746f6b656e0000000000000000000000000000000000000000602082015250565b7f4552433732313a20617070726f76652063616c6c6572206973206e6f74206f7760008201527f6e6572206e6f7220617070726f76656420666f7220616c6c0000000000000000602082015250565b7f4552433732313a2062616c616e636520717565727920666f7220746865207a6560008201527f726f206164647265737300000000000000000000000000000000000000000000602082015250565b7f4552433732313a206f776e657220717565727920666f72206e6f6e657869737460008201527f656e7420746f6b656e0000000000000000000000000000000000000000000000602082015250565b7f45524337323155524953746f726167653a2055524920736574206f66206e6f6e60008201527f6578697374656e7420746f6b656e000000000000000000000000000000000000602082015250565b7f4552433732313a206d696e7420746f20746865207a65726f2061646472657373600082015250565b7f45524337323155524953746f726167653a2055524920717565727920666f722060008201527f6e6f6e6578697374656e7420746f6b656e000000000000000000000000000000602082015250565b7f4552433732313a20617070726f76656420717565727920666f72206e6f6e657860008201527f697374656e7420746f6b656e0000000000000000000000000000000000000000602082015250565b7f2e6a736f6e000000000000000000000000000000000000000000000000000000600082015250565b7f4f776e61626c653a2063616c6c6572206973206e6f7420746865206f776e6572600082015250565b7f4552433732313a207472616e73666572206f6620746f6b656e2074686174206960008201527f73206e6f74206f776e0000000000000000000000000000000000000000000000602082015250565b7f4552433732314d657461646174613a2055524920717565727920666f72206e6f60008201527f6e6578697374656e7420746f6b656e0000000000000000000000000000000000602082015250565b7f4552433732313a20617070726f76616c20746f2063757272656e74206f776e6560008201527f7200000000000000000000000000000000000000000000000000000000000000602082015250565b7f4449564944455f42595f5a45524f000000000000000000000000000000000000600082015250565b50565b7f4552433732313a207472616e736665722063616c6c6572206973206e6f74206f60008201527f776e6572206e6f7220617070726f766564000000000000000000000000000000602082015250565b7f5f00000000000000000000000000000000000000000000000000000000000000600082015250565b7f4f4e4c595f4f4e455f4e46540000000000000000000000000000000000000000600082015250565b7f4c4f434b00000000000000000000000000000000000000000000000000000000600082015250565b6156fc81614c75565b811461570757600080fd5b50565b61571381614c87565b811461571e57600080fd5b50565b61572a81614c99565b811461573557600080fd5b50565b61574181614ca5565b811461574c57600080fd5b50565b61575881614cd1565b811461576357600080fd5b50565b61576f81614cdb565b811461577a57600080fd5b50565b61578681614cf7565b811461579157600080fd5b50565b61579d81614d25565b81146157a857600080fd5b50565b6157b481614d2f565b81146157bf57600080fd5b5056fea2646970667358221220bec2a6edd9780992a66109857f7e50d75f78508d5e607e154b10f8c843298ac864736f6c63430008070033",
  "linkReferences": {
    "contracts/CarbonLib.sol": {
      "CarbonLib": [
        {
          "length": 20,
          "start": 9202
        }
      ]
    },
    "contracts/CarbonWhitelistingLib.sol": {
      "CarbonWhitelistingLib": [
        {
          "length": 20,
          "start": 4032
        },
        {
          "length": 20,
          "start": 4693
        },
        {
          "length": 20,
          "start": 5915
        },
        {
          "length": 20,
          "start": 6037
        },
        {
          "length": 20,
          "start": 6969
        },
        {
          "length": 20,
          "start": 7621
        },
        {
          "length": 20,
          "start": 8098
        },
        {
          "length": 20,
          "start": 9070
        }
      ]
    },
    "contracts/OrderStatisticsTreeLib.sol": {
      "OrderStatisticsTreeLib": [
        {
          "length": 20,
          "start": 5442
        }
      ]
    }
  },
  "deployedLinkReferences": {
    "contracts/CarbonLib.sol": {
      "CarbonLib": [
        {
          "length": 20,
          "start": 7812
        }
      ]
    },
    "contracts/CarbonWhitelistingLib.sol": {
      "CarbonWhitelistingLib": [
        {
          "length": 20,
          "start": 2642
        },
        {
          "length": 20,
          "start": 3303
        },
        {
          "length": 20,
          "start": 4525
        },
        {
          "length": 20,
          "start": 4647
        },
        {
          "length": 20,
          "start": 5579
        },
        {
          "length": 20,
          "start": 6231
        },
        {
          "length": 20,
          "start": 6708
        },
        {
          "length": 20,
          "start": 7680
        }
      ]
    },
    "contracts/OrderStatisticsTreeLib.sol": {
      "OrderStatisticsTreeLib": [
        {
          "length": 20,
          "start": 4052
        }
      ]
    }
  }
}