{
  "_format": "hh-sol-artifact-1",
  "contractName": "CryptoCocks",
  "sourceName": "contracts/CryptoCocks.sol",
  "abi": [
    {
      "inputs": [],
      "stateMutability": "nonpayable",
      "type": "constructor"
    },
    {
      "anonymous": false,
      "inputs": [
        {
          "indexed": true,
          "internalType": "address",
          "name": "owner",
          "type": "address"
        },
        {
          "indexed": true,
          "internalType": "address",
          "name": "approved",
          "type": "address"
        },
        {
          "indexed": true,
          "internalType": "uint256",
          "name": "tokenId",
          "type": "uint256"
        }
      ],
      "name": "Approval",
      "type": "event"
    },
    {
      "anonymous": false,
      "inputs": [
        {
          "indexed": true,
          "internalType": "address",
          "name": "owner",
          "type": "address"
        },
        {
          "indexed": true,
          "internalType": "address",
          "name": "operator",
          "type": "address"
        },
        {
          "indexed": false,
          "internalType": "bool",
          "name": "approved",
          "type": "bool"
        }
      ],
      "name": "ApprovalForAll",
      "type": "event"
    },
    {
      "anonymous": false,
      "inputs": [
        {
          "indexed": true,
          "internalType": "uint16",
          "name": "id",
          "type": "uint16"
        },
        {
          "indexed": false,
          "internalType": "uint256",
          "name": "balance",
          "type": "uint256"
        }
      ],
      "name": "Mint",
      "type": "event"
    },
    {
      "anonymous": false,
      "inputs": [
        {
          "indexed": true,
          "internalType": "address",
          "name": "previousOwner",
          "type": "address"
        },
        {
          "indexed": true,
          "internalType": "address",
          "name": "newOwner",
          "type": "address"
        }
      ],
      "name": "OwnershipTransferred",
      "type": "event"
    },
    {
      "anonymous": false,
      "inputs": [
        {
          "indexed": false,
          "internalType": "string",
          "name": "_value",
          "type": "string"
        },
        {
          "indexed": true,
          "internalType": "uint256",
          "name": "_id",
          "type": "uint256"
        }
      ],
      "name": "PermanentURI",
      "type": "event"
    },
    {
      "anonymous": false,
      "inputs": [
        {
          "indexed": true,
          "internalType": "address",
          "name": "from",
          "type": "address"
        },
        {
          "indexed": true,
          "internalType": "address",
          "name": "to",
          "type": "address"
        },
        {
          "indexed": true,
          "internalType": "uint256",
          "name": "tokenId",
          "type": "uint256"
        }
      ],
      "name": "Transfer",
      "type": "event"
    },
    {
      "inputs": [
        {
          "internalType": "address",
          "name": "cc",
          "type": "address"
        },
        {
          "internalType": "address payable",
          "name": "wallet",
          "type": "address"
        },
        {
          "internalType": "uint16",
          "name": "maxSupply",
          "type": "uint16"
        },
        {
          "internalType": "uint16",
          "name": "minBalance",
          "type": "uint16"
        },
        {
          "internalType": "uint8",
          "name": "percRoyal",
          "type": "uint8"
        }
      ],
      "name": "addWhiteListing",
      "outputs": [],
      "stateMutability": "nonpayable",
      "type": "function"
    },
    {
      "inputs": [
        {
          "internalType": "address",
          "name": "to",
          "type": "address"
        },
        {
          "internalType": "uint256",
          "name": "tokenId",
          "type": "uint256"
        }
      ],
      "name": "approve",
      "outputs": [],
      "stateMutability": "nonpayable",
      "type": "function"
    },
    {
      "inputs": [],
      "name": "bal",
      "outputs": [
        {
          "internalType": "uint128",
          "name": "team",
          "type": "uint128"
        },
        {
          "internalType": "uint128",
          "name": "donation",
          "type": "uint128"
        }
      ],
      "stateMutability": "view",
      "type": "function"
    },
    {
      "inputs": [
        {
          "internalType": "address",
          "name": "owner",
          "type": "address"
        }
      ],
      "name": "balanceOf",
      "outputs": [
        {
          "internalType": "uint256",
          "name": "",
          "type": "uint256"
        }
      ],
      "stateMutability": "view",
      "type": "function"
    },
    {
      "inputs": [
        {
          "internalType": "bool",
          "name": "status",
          "type": "bool"
        },
        {
          "internalType": "uint8",
          "name": "percFee",
          "type": "uint8"
        },
        {
          "internalType": "uint128",
          "name": "minFee",
          "type": "uint128"
        }
      ],
      "name": "changeFeeSettings",
      "outputs": [],
      "stateMutability": "nonpayable",
      "type": "function"
    },
    {
      "inputs": [
        {
          "internalType": "bool",
          "name": "newStatus",
          "type": "bool"
        }
      ],
      "name": "changePublicSaleStatus",
      "outputs": [],
      "stateMutability": "nonpayable",
      "type": "function"
    },
    {
      "inputs": [],
      "name": "donationWallet",
      "outputs": [
        {
          "internalType": "address payable",
          "name": "",
          "type": "address"
        }
      ],
      "stateMutability": "view",
      "type": "function"
    },
    {
      "inputs": [
        {
          "internalType": "uint256",
          "name": "tokenId",
          "type": "uint256"
        }
      ],
      "name": "getApproved",
      "outputs": [
        {
          "internalType": "address",
          "name": "",
          "type": "address"
        }
      ],
      "stateMutability": "view",
      "type": "function"
    },
    {
      "inputs": [],
      "name": "initMint",
      "outputs": [],
      "stateMutability": "nonpayable",
      "type": "function"
    },
    {
      "inputs": [
        {
          "internalType": "address",
          "name": "owner",
          "type": "address"
        },
        {
          "internalType": "address",
          "name": "operator",
          "type": "address"
        }
      ],
      "name": "isApprovedForAll",
      "outputs": [
        {
          "internalType": "bool",
          "name": "",
          "type": "bool"
        }
      ],
      "stateMutability": "view",
      "type": "function"
    },
    {
      "inputs": [
        {
          "internalType": "uint8",
          "name": "",
          "type": "uint8"
        }
      ],
      "name": "list",
      "outputs": [
        {
          "internalType": "uint8",
          "name": "percRoyal",
          "type": "uint8"
        },
        {
          "internalType": "uint16",
          "name": "maxSupply",
          "type": "uint16"
        },
        {
          "internalType": "uint16",
          "name": "minBalance",
          "type": "uint16"
        },
        {
          "internalType": "uint16",
          "name": "tracker",
          "type": "uint16"
        },
        {
          "internalType": "uint128",
          "name": "balance",
          "type": "uint128"
        },
        {
          "internalType": "address",
          "name": "cc",
          "type": "address"
        },
        {
          "internalType": "address",
          "name": "wallet",
          "type": "address"
        }
      ],
      "stateMutability": "view",
      "type": "function"
    },
    {
      "inputs": [],
      "name": "mint",
      "outputs": [],
      "stateMutability": "payable",
      "type": "function"
    },
    {
      "inputs": [],
      "name": "name",
      "outputs": [
        {
          "internalType": "string",
          "name": "",
          "type": "string"
        }
      ],
      "stateMutability": "view",
      "type": "function"
    },
    {
      "inputs": [],
      "name": "owner",
      "outputs": [
        {
          "internalType": "address",
          "name": "",
          "type": "address"
        }
      ],
      "stateMutability": "view",
      "type": "function"
    },
    {
      "inputs": [
        {
          "internalType": "uint256",
          "name": "tokenId",
          "type": "uint256"
        }
      ],
      "name": "ownerOf",
      "outputs": [
        {
          "internalType": "address",
          "name": "",
          "type": "address"
        }
      ],
      "stateMutability": "view",
      "type": "function"
    },
    {
      "inputs": [
        {
          "internalType": "address",
          "name": "tokenAddress",
          "type": "address"
        },
        {
          "internalType": "address",
          "name": "addressToQuery",
          "type": "address"
        }
      ],
      "name": "queryBalance",
      "outputs": [
        {
          "internalType": "uint256",
          "name": "",
          "type": "uint256"
        }
      ],
      "stateMutability": "view",
      "type": "function"
    },
    {
      "inputs": [],
      "name": "renounceOwnership",
      "outputs": [],
      "stateMutability": "nonpayable",
      "type": "function"
    },
    {
      "inputs": [
        {
          "internalType": "address",
          "name": "from",
          "type": "address"
        },
        {
          "internalType": "address",
          "name": "to",
          "type": "address"
        },
        {
          "internalType": "uint256",
          "name": "tokenId",
          "type": "uint256"
        }
      ],
      "name": "safeTransferFrom",
      "outputs": [],
      "stateMutability": "nonpayable",
      "type": "function"
    },
    {
      "inputs": [
        {
          "internalType": "address",
          "name": "from",
          "type": "address"
        },
        {
          "internalType": "address",
          "name": "to",
          "type": "address"
        },
        {
          "internalType": "uint256",
          "name": "tokenId",
          "type": "uint256"
        },
        {
          "internalType": "bytes",
          "name": "_data",
          "type": "bytes"
        }
      ],
      "name": "safeTransferFrom",
      "outputs": [],
      "stateMutability": "nonpayable",
      "type": "function"
    },
    {
      "inputs": [],
      "name": "set",
      "outputs": [
        {
          "internalType": "bool",
          "name": "publicSaleStatus",
          "type": "bool"
        },
        {
          "internalType": "bool",
          "name": "freeMinting",
          "type": "bool"
        },
        {
          "internalType": "bool",
          "name": "initMint",
          "type": "bool"
        },
        {
          "internalType": "uint8",
          "name": "percFee",
          "type": "uint8"
        },
        {
          "internalType": "uint8",
          "name": "availRoyal",
          "type": "uint8"
        },
        {
          "internalType": "uint8",
          "name": "numContracts",
          "type": "uint8"
        },
        {
          "internalType": "uint128",
          "name": "minFee",
          "type": "uint128"
        }
      ],
      "stateMutability": "view",
      "type": "function"
    },
    {
      "inputs": [
        {
          "internalType": "address",
          "name": "operator",
          "type": "address"
        },
        {
          "internalType": "bool",
          "name": "approved",
          "type": "bool"
        }
      ],
      "name": "setApprovalForAll",
      "outputs": [],
      "stateMutability": "nonpayable",
      "type": "function"
    },
    {
      "inputs": [
        {
          "internalType": "bytes4",
          "name": "interfaceId",
          "type": "bytes4"
        }
      ],
      "name": "supportsInterface",
      "outputs": [
        {
          "internalType": "bool",
          "name": "",
          "type": "bool"
        }
      ],
      "stateMutability": "view",
      "type": "function"
    },
    {
      "inputs": [],
      "name": "symbol",
      "outputs": [
        {
          "internalType": "string",
          "name": "",
          "type": "string"
        }
      ],
      "stateMutability": "view",
      "type": "function"
    },
    {
      "inputs": [],
      "name": "teamWallet",
      "outputs": [
        {
          "internalType": "address payable",
          "name": "",
          "type": "address"
        }
      ],
      "stateMutability": "view",
      "type": "function"
    },
    {
      "inputs": [
        {
          "internalType": "uint256",
          "name": "index",
          "type": "uint256"
        }
      ],
      "name": "tokenByIndex",
      "outputs": [
        {
          "internalType": "uint256",
          "name": "",
          "type": "uint256"
        }
      ],
      "stateMutability": "view",
      "type": "function"
    },
    {
      "inputs": [
        {
          "internalType": "address",
          "name": "owner",
          "type": "address"
        },
        {
          "internalType": "uint256",
          "name": "index",
          "type": "uint256"
        }
      ],
      "name": "tokenOfOwnerByIndex",
      "outputs": [
        {
          "internalType": "uint256",
          "name": "",
          "type": "uint256"
        }
      ],
      "stateMutability": "view",
      "type": "function"
    },
    {
      "inputs": [
        {
          "internalType": "uint256",
          "name": "tokenId",
          "type": "uint256"
        }
      ],
      "name": "tokenURI",
      "outputs": [
        {
          "internalType": "string",
          "name": "",
          "type": "string"
        }
      ],
      "stateMutability": "view",
      "type": "function"
    },
    {
      "inputs": [],
      "name": "totalSupply",
      "outputs": [
        {
          "internalType": "uint256",
          "name": "",
          "type": "uint256"
        }
      ],
      "stateMutability": "view",
      "type": "function"
    },
    {
      "inputs": [
        {
          "internalType": "address",
          "name": "from",
          "type": "address"
        },
        {
          "internalType": "address",
          "name": "to",
          "type": "address"
        },
        {
          "internalType": "uint256",
          "name": "tokenId",
          "type": "uint256"
        }
      ],
      "name": "transferFrom",
      "outputs": [],
      "stateMutability": "nonpayable",
      "type": "function"
    },
    {
      "inputs": [
        {
          "internalType": "address",
          "name": "newOwner",
          "type": "address"
        }
      ],
      "name": "transferOwnership",
      "outputs": [],
      "stateMutability": "nonpayable",
      "type": "function"
    },
    {
      "inputs": [],
      "name": "transferRoyalty",
      "outputs": [],
      "stateMutability": "nonpayable",
      "type": "function"
    },
    {
      "inputs": [],
      "name": "tree",
      "outputs": [
        {
          "internalType": "uint256",
          "name": "root",
          "type": "uint256"
        },
        {
          "internalType": "uint8",
          "name": "minLength",
          "type": "uint8"
        }
      ],
      "stateMutability": "view",
      "type": "function"
    }
  ],
  "bytecode": "0x60806040523480156200001157600080fd5b506040518060400160405280600b81526020017f43727970746f436f636b730000000000000000000000000000000000000000008152506040518060400160405280600281526020017f434300000000000000000000000000000000000000000000000000000000000081525081600090805190602001906200009692919062000476565b508060019080519060200190620000af92919062000476565b505050620000d2620000c6620003a860201b60201c565b620003b060201b60201c565b6040518060e00160405280600015158152602001600115158152602001600115158152602001606460ff168152602001601460ff168152602001600060ff16815260200166470de4df8200006fffffffffffffffffffffffffffffffff16815250601060008201518160000160006101000a81548160ff02191690831515021790555060208201518160000160016101000a81548160ff02191690831515021790555060408201518160000160026101000a81548160ff02191690831515021790555060608201518160000160036101000a81548160ff021916908360ff16021790555060808201518160000160046101000a81548160ff021916908360ff16021790555060a08201518160000160056101000a81548160ff021916908360ff16021790555060c08201518160000160066101000a8154816fffffffffffffffffffffffffffffffff02191690836fffffffffffffffffffffffffffffffff160217905550905050604051806040016040528060006fffffffffffffffffffffffffffffffff16815260200160006fffffffffffffffffffffffffffffffff16815250601160008201518160000160006101000a8154816fffffffffffffffffffffffffffffffff02191690836fffffffffffffffffffffffffffffffff16021790555060208201518160000160106101000a8154816fffffffffffffffffffffffffffffffff02191690836fffffffffffffffffffffffffffffffff160217905550905050735b1f57449dd479e787fdf201a59d06d3cb84f5dc601360006101000a81548173ffffffffffffffffffffffffffffffffffffffff021916908373ffffffffffffffffffffffffffffffffffffffff16021790555073b1019eb5e90ad29c2fce82aab712325a1a3d5924601460006101000a81548173ffffffffffffffffffffffffffffffffffffffff021916908373ffffffffffffffffffffffffffffffffffffffff1602179055506200058b565b600033905090565b6000600b60009054906101000a900473ffffffffffffffffffffffffffffffffffffffff16905081600b60006101000a81548173ffffffffffffffffffffffffffffffffffffffff021916908373ffffffffffffffffffffffffffffffffffffffff1602179055508173ffffffffffffffffffffffffffffffffffffffff168173ffffffffffffffffffffffffffffffffffffffff167f8be0079c531659141344cd1fd0a4f28419497f9722a3daafe3b4186f6b6457e060405160405180910390a35050565b828054620004849062000526565b90600052602060002090601f016020900481019282620004a85760008555620004f4565b82601f10620004c357805160ff1916838001178555620004f4565b82800160010185558215620004f4579182015b82811115620004f3578251825591602001919060010190620004d6565b5b50905062000503919062000507565b5090565b5b808211156200052257600081600090555060010162000508565b5090565b600060028204905060018216806200053f57607f821691505b602082108114156200055657620005556200055c565b5b50919050565b7f4e487b7100000000000000000000000000000000000000000000000000000000600052602260045260246000fd5b615e29806200059b6000396000f3fe6080604052600436106101e35760003560e01c8063715018a611610102578063bc81335611610095578063e7b94df411610064578063e7b94df4146106de578063e985e9c514610709578063f2fde38b14610746578063fd54b2281461076f576101e3565b8063bc81335614610638578063c87b56dd14610661578063e0737f7a1461069e578063e38c099b146106b5576101e3565b8063a22cb465116100d1578063a22cb46514610578578063ac42a4eb146105a1578063b88d4fde146105de578063b8e010de14610607576101e3565b8063715018a6146104f457806381f2fbb61461050b5780638da5cb5b1461052257806395d89b411461054d576101e3565b80633d79d1c81161017a5780635992385911610149578063599238591461040c578063599270441461044f5780636352211e1461047a57806370a08231146104b7576101e3565b80633d79d1c81461035157806342842e0e1461037d5780634f6ccce7146103a657806358689219146103e3576101e3565b80631249c58b116101b65780631249c58b146102b657806318160ddd146102c057806323b872dd146102eb5780632f745c5914610314576101e3565b806301ffc9a7146101e857806306fdde0314610225578063081812fc14610250578063095ea7b31461028d575b600080fd5b3480156101f457600080fd5b5061020f600480360381019061020a919061408b565b61079b565b60405161021c91906148d1565b60405180910390f35b34801561023157600080fd5b5061023a6107ad565b604051610247919061495b565b60405180910390f35b34801561025c57600080fd5b506102776004803603810190610272919061412e565b61083f565b604051610284919061484f565b60405180910390f35b34801561029957600080fd5b506102b460048036038101906102af9190613fcb565b6108c4565b005b6102be6109dc565b005b3480156102cc57600080fd5b506102d56110f8565b6040516102e29190614df8565b60405180910390f35b3480156102f757600080fd5b50610312600480360381019061030d9190613eb5565b611105565b005b34801561032057600080fd5b5061033b60048036038101906103369190613fcb565b611165565b6040516103489190614df8565b60405180910390f35b34801561035d57600080fd5b5061036661120a565b604051610374929190614db4565b60405180910390f35b34801561038957600080fd5b506103a4600480360381019061039f9190613eb5565b611254565b005b3480156103b257600080fd5b506103cd60048036038101906103c8919061412e565b611274565b6040516103da9190614df8565b60405180910390f35b3480156103ef57600080fd5b5061040a6004803603810190610405919061400b565b6112e5565b005b34801561041857600080fd5b50610433600480360381019061042e9190614188565b611381565b6040516104469796959493929190614e3c565b60405180910390f35b34801561045b57600080fd5b50610464611456565b604051610471919061486a565b60405180910390f35b34801561048657600080fd5b506104a1600480360381019061049c919061412e565b61147c565b6040516104ae919061484f565b60405180910390f35b3480156104c357600080fd5b506104de60048036038101906104d99190613dcd565b61152e565b6040516104eb9190614df8565b60405180910390f35b34801561050057600080fd5b506105096115e6565b005b34801561051757600080fd5b5061052061166e565b005b34801561052e57600080fd5b50610537611816565b604051610544919061484f565b60405180910390f35b34801561055957600080fd5b50610562611840565b60405161056f919061495b565b60405180910390f35b34801561058457600080fd5b5061059f600480360381019061059a9190613f8b565b6118d2565b005b3480156105ad57600080fd5b506105c860048036038101906105c39190613dfa565b6118e8565b6040516105d59190614df8565b60405180910390f35b3480156105ea57600080fd5b5061060560048036038101906106009190613f08565b61197b565b005b34801561061357600080fd5b5061061c6119dd565b60405161062f97969594939291906148ec565b60405180910390f35b34801561064457600080fd5b5061065f600480360381019061065a9190614038565b611a77565b005b34801561066d57600080fd5b506106886004803603810190610683919061412e565b611bbd565b604051610695919061495b565b60405180910390f35b3480156106aa57600080fd5b506106b3611c7b565b005b3480156106c157600080fd5b506106dc60048036038101906106d79190613e3a565b611def565b005b3480156106ea57600080fd5b506106f3612147565b604051610700919061486a565b60405180910390f35b34801561071557600080fd5b50610730600480360381019061072b9190613dfa565b61216d565b60405161073d91906148d1565b60405180910390f35b34801561075257600080fd5b5061076d60048036038101906107689190613dcd565b612201565b005b34801561077b57600080fd5b506107846122f9565b604051610792929190614e13565b60405180910390f35b60006107a682612318565b9050919050565b6060600080546107bc9061527d565b80601f01602080910402602001604051908101604052809291908181526020018280546107e89061527d565b80156108355780601f1061080a57610100808354040283529160200191610835565b820191906000526020600020905b81548152906001019060200180831161081857829003601f168201915b5050505050905090565b600061084a82612392565b610889576040517f08c379a000000000000000000000000000000000000000000000000000000000815260040161088090614bfd565b60405180910390fd5b6004600083815260200190815260200160002060009054906101000a900473ffffffffffffffffffffffffffffffffffffffff169050919050565b60006108cf8261147c565b90508073ffffffffffffffffffffffffffffffffffffffff168373ffffffffffffffffffffffffffffffffffffffff161415610940576040517f08c379a000000000000000000000000000000000000000000000000000000000815260040161093790614c7d565b60405180910390fd5b8073ffffffffffffffffffffffffffffffffffffffff1661095f6123fe565b73ffffffffffffffffffffffffffffffffffffffff16148061098e575061098d816109886123fe565b61216d565b5b6109cd576040517f08c379a00000000000000000000000000000000000000000000000000000000081526004016109c490614b3d565b60405180910390fd5b6109d78383612406565b505050565b6000806109e8336124bf565b915091506000601f6109fa600c6125f6565b610a049190614ffe565b90506000349050601060000160009054906101000a900460ff1680610a265750835b610a65576040517f08c379a0000000000000000000000000000000000000000000000000000000008152600401610a5c90614d5d565b60405180910390fd5b61271061ffff168261ffff161115610ab2576040517f08c379a0000000000000000000000000000000000000000000000000000000008152600401610aa990614a5d565b60405180910390fd5b6000610abd3361152e565b14610afd576040517f08c379a0000000000000000000000000000000000000000000000000000000008152600401610af490614cfd565b60405180910390fd5b6000813373ffffffffffffffffffffffffffffffffffffffff1631610b229190614ffe565b9050601060000160019054906101000a900460ff16610c5657601060000160069054906101000a90046fffffffffffffffffffffffffffffffff166fffffffffffffffffffffffffffffffff16601060000160039054906101000a900460ff1660ff1682610b90919061508b565b10610bbb57601060000160039054906101000a900460ff1660ff1681610bb6919061508b565b610bf0565b601060000160069054906101000a90046fffffffffffffffffffffffffffffffff166fffffffffffffffffffffffffffffffff165b821015610c32576040517f08c379a0000000000000000000000000000000000000000000000000000000008152600401610c2990614a1d565b60405180910390fd5b601060000160039054906101000a900460ff1660ff1682610c5391906150bc565b90505b610c64338461ffff16612604565b610cfb83600d73__$c6eddc433664ba9ed959a74e8cf867073a$__63704b15ab909187866040518463ffffffff1660e01b8152600401610ca693929190614d7d565b60206040518083038186803b158015610cbe57600080fd5b505af4158015610cd2573d6000803e3d6000fd5b505050506040513d601f19601f82011682018060405250810190610cf691906141b5565b612622565b610d05600c6126ae565b8261ffff167f670db5e74f1a636e188c98b7ee19f17b34343eac15b638250cca68652250596782604051610d399190614df8565b60405180910390a2610d56600283610d51919061508b565b6126c4565b601160000160008282829054906101000a90046fffffffffffffffffffffffffffffffff16610d859190614f80565b92506101000a8154816fffffffffffffffffffffffffffffffff02191690836fffffffffffffffffffffffffffffffff160217905550610ddc6064601e84610dcd91906150bc565b610dd7919061508b565b6126c4565b601160000160108282829054906101000a90046fffffffffffffffffffffffffffffffff16610e0b9190614f80565b92506101000a8154816fffffffffffffffffffffffffffffffff02191690836fffffffffffffffffffffffffffffffff16021790555060005b601060000160059054906101000a900460ff1660ff168160ff161015610f37576064601260008360ff1660ff16815260200190815260200160002060000160009054906101000a900460ff1660ff1684610e9e91906150bc565b610ea8919061508b565b601260008360ff1660ff16815260200190815260200160002060000160078282829054906101000a90046fffffffffffffffffffffffffffffffff16610eee9190614f80565b92506101000a8154816fffffffffffffffffffffffffffffffff02191690836fffffffffffffffffffffffffffffffff1602179055508080610f2f90615329565b915050610e44565b508415610f93576001601260008660ff1660ff16815260200190815260200160002060000160058282829054906101000a900461ffff16610f789190614fc6565b92506101000a81548161ffff021916908361ffff1602179055505b6000603284610fa29190615353565b61ffff1614156110f1576000601160000160009054906101000a90046fffffffffffffffffffffffffffffffff166fffffffffffffffffffffffffffffffff1690506000601160000160109054906101000a90046fffffffffffffffffffffffffffffffff166fffffffffffffffffffffffffffffffff1690506000601160000160006101000a8154816fffffffffffffffffffffffffffffffff02191690836fffffffffffffffffffffffffffffffff1602179055506000601160000160106101000a8154816fffffffffffffffffffffffffffffffff02191690836fffffffffffffffffffffffffffffffff1602179055506110c2601360009054906101000a900473ffffffffffffffffffffffffffffffffffffffff1683612723565b6110ee601460009054906101000a900473ffffffffffffffffffffffffffffffffffffffff1682612723565b50505b5050505050565b6000600880549050905090565b6111166111106123fe565b82612817565b611155576040517f08c379a000000000000000000000000000000000000000000000000000000000815260040161114c90614cbd565b60405180910390fd5b6111608383836128f5565b505050565b60006111708361152e565b82106111b1576040517f08c379a00000000000000000000000000000000000000000000000000000000081526004016111a89061497d565b60405180910390fd5b600660008473ffffffffffffffffffffffffffffffffffffffff1673ffffffffffffffffffffffffffffffffffffffff168152602001908152602001600020600083815260200190815260200160002054905092915050565b60118060000160009054906101000a90046fffffffffffffffffffffffffffffffff16908060000160109054906101000a90046fffffffffffffffffffffffffffffffff16905082565b61126f8383836040518060200160405280600081525061197b565b505050565b600061127e6110f8565b82106112bf576040517f08c379a00000000000000000000000000000000000000000000000000000000081526004016112b690614d1d565b60405180910390fd5b600882815481106112d3576112d2615471565b5b90600052602060002001549050919050565b6112ed6123fe565b73ffffffffffffffffffffffffffffffffffffffff1661130b611816565b73ffffffffffffffffffffffffffffffffffffffff1614611361576040517f08c379a000000000000000000000000000000000000000000000000000000000815260040161135890614c1d565b60405180910390fd5b80601060000160006101000a81548160ff02191690831515021790555050565b60126020528060005260406000206000915090508060000160009054906101000a900460ff16908060000160019054906101000a900461ffff16908060000160039054906101000a900461ffff16908060000160059054906101000a900461ffff16908060000160079054906101000a90046fffffffffffffffffffffffffffffffff16908060010160009054906101000a900473ffffffffffffffffffffffffffffffffffffffff16908060020160009054906101000a900473ffffffffffffffffffffffffffffffffffffffff16905087565b601360009054906101000a900473ffffffffffffffffffffffffffffffffffffffff1681565b6000806002600084815260200190815260200160002060009054906101000a900473ffffffffffffffffffffffffffffffffffffffff169050600073ffffffffffffffffffffffffffffffffffffffff168173ffffffffffffffffffffffffffffffffffffffff161415611525576040517f08c379a000000000000000000000000000000000000000000000000000000000815260040161151c90614b7d565b60405180910390fd5b80915050919050565b60008073ffffffffffffffffffffffffffffffffffffffff168273ffffffffffffffffffffffffffffffffffffffff16141561159f576040517f08c379a000000000000000000000000000000000000000000000000000000000815260040161159690614b5d565b60405180910390fd5b600360008373ffffffffffffffffffffffffffffffffffffffff1673ffffffffffffffffffffffffffffffffffffffff168152602001908152602001600020549050919050565b6115ee6123fe565b73ffffffffffffffffffffffffffffffffffffffff1661160c611816565b73ffffffffffffffffffffffffffffffffffffffff1614611662576040517f08c379a000000000000000000000000000000000000000000000000000000000815260040161165990614c1d565b60405180910390fd5b61166c6000612b51565b565b60008060005b601060000160059054906101000a900460ff1660ff168160ff161015611723573373ffffffffffffffffffffffffffffffffffffffff16601260008360ff1660ff16815260200190815260200160002060020160009054906101000a900473ffffffffffffffffffffffffffffffffffffffff1673ffffffffffffffffffffffffffffffffffffffff1614156117105760019250809150611723565b808061171b90615329565b915050611674565b5081611764576040517f08c379a000000000000000000000000000000000000000000000000000000000815260040161175b90614d3d565b60405180910390fd5b6000601260008360ff1660ff16815260200190815260200160002060000160079054906101000a90046fffffffffffffffffffffffffffffffff166fffffffffffffffffffffffffffffffff1690506000601260008460ff1660ff16815260200190815260200160002060000160076101000a8154816fffffffffffffffffffffffffffffffff02191690836fffffffffffffffffffffffffffffffff1602179055506118113382612723565b505050565b6000600b60009054906101000a900473ffffffffffffffffffffffffffffffffffffffff16905090565b60606001805461184f9061527d565b80601f016020809104026020016040519081016040528092919081815260200182805461187b9061527d565b80156118c85780601f1061189d576101008083540402835291602001916118c8565b820191906000526020600020905b8154815290600101906020018083116118ab57829003601f168201915b5050505050905090565b6118e46118dd6123fe565b8383612c17565b5050565b60008273ffffffffffffffffffffffffffffffffffffffff166370a08231836040518263ffffffff1660e01b8152600401611923919061484f565b60206040518083038186803b15801561193b57600080fd5b505afa15801561194f573d6000803e3d6000fd5b505050506040513d601f19601f82011682018060405250810190611973919061415b565b905092915050565b61198c6119866123fe565b83612817565b6119cb576040517f08c379a00000000000000000000000000000000000000000000000000000000081526004016119c290614cbd565b60405180910390fd5b6119d784848484612d84565b50505050565b60108060000160009054906101000a900460ff16908060000160019054906101000a900460ff16908060000160029054906101000a900460ff16908060000160039054906101000a900460ff16908060000160049054906101000a900460ff16908060000160059054906101000a900460ff16908060000160069054906101000a90046fffffffffffffffffffffffffffffffff16905087565b611a7f6123fe565b73ffffffffffffffffffffffffffffffffffffffff16611a9d611816565b73ffffffffffffffffffffffffffffffffffffffff1614611af3576040517f08c379a0000000000000000000000000000000000000000000000000000000008152600401611aea90614c1d565b60405180910390fd5b8280611b02575060008260ff16115b611b41576040517f08c379a0000000000000000000000000000000000000000000000000000000008152600401611b3890614c9d565b60405180910390fd5b82601060000160016101000a81548160ff02191690831515021790555081601060000160036101000a81548160ff021916908360ff16021790555080601060000160066101000a8154816fffffffffffffffffffffffffffffffff02191690836fffffffffffffffffffffffffffffffff160217905550505050565b606073__$14a1c3e15d2b6012657cc5c1f033beb7ca$__633beaa6ab836040518263ffffffff1660e01b8152600401611bf69190614ddd565b60006040518083038186803b158015611c0e57600080fd5b505af4158015611c22573d6000803e3d6000fd5b505050506040513d6000823e3d601f19601f82011682018060405250810190611c4b91906140e5565b611c5483612de0565b604051602001611c659291906147dc565b6040516020818303038152906040529050919050565b611c836123fe565b73ffffffffffffffffffffffffffffffffffffffff16611ca1611816565b73ffffffffffffffffffffffffffffffffffffffff1614611cf7576040517f08c379a0000000000000000000000000000000000000000000000000000000008152600401611cee90614c1d565b60405180910390fd5b601060000160029054906101000a900460ff16611d49576040517f08c379a0000000000000000000000000000000000000000000000000000000008152600401611d409061499d565b60405180910390fd5b60005b601e811015611dec57611d6f33600183611d669190614ffe565b61ffff16612604565b6000611da260098311611d8357600b611d9d565b6001600a84611d929190615384565b611d9c9190614ffe565b5b612f32565b9050611dba600183611db49190614ffe565b82612622565b6000601060000160026101000a81548160ff021916908315150217905550508080611de4906152e0565b915050611d4c565b50565b611df76123fe565b73ffffffffffffffffffffffffffffffffffffffff16611e15611816565b73ffffffffffffffffffffffffffffffffffffffff1614611e6b576040517f08c379a0000000000000000000000000000000000000000000000000000000008152600401611e6290614c1d565b60405180910390fd5b8060ff16601060000160049054906101000a900460ff1660ff161015611ec6576040517f08c379a0000000000000000000000000000000000000000000000000000000008152600401611ebd90614cdd565b60405180910390fd5b6040518060e001604052808260ff1681526020018461ffff1681526020018361ffff168152602001600061ffff16815260200160006fffffffffffffffffffffffffffffffff1681526020018673ffffffffffffffffffffffffffffffffffffffff1681526020018573ffffffffffffffffffffffffffffffffffffffff1681525060126000601060000160059054906101000a900460ff1660ff1660ff16815260200190815260200160002060008201518160000160006101000a81548160ff021916908360ff16021790555060208201518160000160016101000a81548161ffff021916908361ffff16021790555060408201518160000160036101000a81548161ffff021916908361ffff16021790555060608201518160000160056101000a81548161ffff021916908361ffff16021790555060808201518160000160076101000a8154816fffffffffffffffffffffffffffffffff02191690836fffffffffffffffffffffffffffffffff16021790555060a08201518160010160006101000a81548173ffffffffffffffffffffffffffffffffffffffff021916908373ffffffffffffffffffffffffffffffffffffffff16021790555060c08201518160020160006101000a81548173ffffffffffffffffffffffffffffffffffffffff021916908373ffffffffffffffffffffffffffffffffffffffff16021790555090505080601060000160048282829054906101000a900460ff166120ee919061514a565b92506101000a81548160ff021916908360ff1602179055506001601060000160058282829054906101000a900460ff166121289190615054565b92506101000a81548160ff021916908360ff1602179055505050505050565b601460009054906101000a900473ffffffffffffffffffffffffffffffffffffffff1681565b6000600560008473ffffffffffffffffffffffffffffffffffffffff1673ffffffffffffffffffffffffffffffffffffffff16815260200190815260200160002060008373ffffffffffffffffffffffffffffffffffffffff1673ffffffffffffffffffffffffffffffffffffffff16815260200190815260200160002060009054906101000a900460ff16905092915050565b6122096123fe565b73ffffffffffffffffffffffffffffffffffffffff16612227611816565b73ffffffffffffffffffffffffffffffffffffffff161461227d576040517f08c379a000000000000000000000000000000000000000000000000000000000815260040161227490614c1d565b60405180910390fd5b600073ffffffffffffffffffffffffffffffffffffffff168173ffffffffffffffffffffffffffffffffffffffff1614156122ed576040517f08c379a00000000000000000000000000000000000000000000000000000000081526004016122e4906149dd565b60405180910390fd5b6122f681612b51565b50565b600d8060000154908060010160009054906101000a900460ff16905082565b60007f780e9d63000000000000000000000000000000000000000000000000000000007bffffffffffffffffffffffffffffffffffffffffffffffffffffffff1916827bffffffffffffffffffffffffffffffffffffffffffffffffffffffff1916148061238b575061238a82612f82565b5b9050919050565b60008073ffffffffffffffffffffffffffffffffffffffff166002600084815260200190815260200160002060009054906101000a900473ffffffffffffffffffffffffffffffffffffffff1673ffffffffffffffffffffffffffffffffffffffff1614159050919050565b600033905090565b816004600083815260200190815260200160002060006101000a81548173ffffffffffffffffffffffffffffffffffffffff021916908373ffffffffffffffffffffffffffffffffffffffff160217905550808273ffffffffffffffffffffffffffffffffffffffff166124798361147c565b73ffffffffffffffffffffffffffffffffffffffff167f8c5be1e5ebec7d5bd14f71427d1e84f3dd0314c0f7b2291e5b200ac8c7c3b92560405160405180910390a45050565b60008060005b601060000160059054906101000a900460ff1660ff168160ff1610156125e857601260008260ff1660ff16815260200190815260200160002060000160039054906101000a900461ffff1661ffff1661255a601260008460ff1660ff16815260200190815260200160002060010160009054906101000a900473ffffffffffffffffffffffffffffffffffffffff16866118e8565b101580156125c35750601260008260ff1660ff16815260200190815260200160002060000160059054906101000a900461ffff1661ffff16601260008360ff1660ff16815260200190815260200160002060000160019054906101000a900461ffff1661ffff16115b156125d55760018192509250506125f1565b80806125e090615329565b9150506124c5565b50600080915091505b915091565b600081600001549050919050565b61261e828260405180602001604052806000815250613064565b5050565b60006126308260ff166130bf565b61263d8461ffff166130bf565b60405160200161264e929190614800565b604051602081830303815290604052905061266d8361ffff1682613220565b8261ffff167fa109ba539900bf1b633f956d63c96fc89b814c7287f7aa50a9216d0b55657207826040516126a1919061495b565b60405180910390a2505050565b6001816000016000828254019250508190555050565b60006fffffffffffffffffffffffffffffffff801682111561271b576040517f08c379a000000000000000000000000000000000000000000000000000000000815260040161271290614abd565b60405180910390fd5b819050919050565b80471015612766576040517f08c379a000000000000000000000000000000000000000000000000000000000815260040161275d90614afd565b60405180910390fd5b60008273ffffffffffffffffffffffffffffffffffffffff168260405161278c9061483a565b60006040518083038185875af1925050503d80600081146127c9576040519150601f19603f3d011682016040523d82523d6000602084013e6127ce565b606091505b5050905080612812576040517f08c379a000000000000000000000000000000000000000000000000000000000815260040161280990614add565b60405180910390fd5b505050565b600061282282612392565b612861576040517f08c379a000000000000000000000000000000000000000000000000000000000815260040161285890614b1d565b60405180910390fd5b600061286c8361147c565b90508073ffffffffffffffffffffffffffffffffffffffff168473ffffffffffffffffffffffffffffffffffffffff1614806128db57508373ffffffffffffffffffffffffffffffffffffffff166128c38461083f565b73ffffffffffffffffffffffffffffffffffffffff16145b806128ec57506128eb818561216d565b5b91505092915050565b8273ffffffffffffffffffffffffffffffffffffffff166129158261147c565b73ffffffffffffffffffffffffffffffffffffffff161461296b576040517f08c379a000000000000000000000000000000000000000000000000000000000815260040161296290614c3d565b60405180910390fd5b600073ffffffffffffffffffffffffffffffffffffffff168273ffffffffffffffffffffffffffffffffffffffff1614156129db576040517f08c379a00000000000000000000000000000000000000000000000000000000081526004016129d290614a7d565b60405180910390fd5b6129e6838383613294565b6129f1600082612406565b6001600360008573ffffffffffffffffffffffffffffffffffffffff1673ffffffffffffffffffffffffffffffffffffffff1681526020019081526020016000206000828254612a419190615116565b925050819055506001600360008473ffffffffffffffffffffffffffffffffffffffff1673ffffffffffffffffffffffffffffffffffffffff1681526020019081526020016000206000828254612a989190614ffe565b92505081905550816002600083815260200190815260200160002060006101000a81548173ffffffffffffffffffffffffffffffffffffffff021916908373ffffffffffffffffffffffffffffffffffffffff160217905550808273ffffffffffffffffffffffffffffffffffffffff168473ffffffffffffffffffffffffffffffffffffffff167fddf252ad1be2c89b69c2b068fc378daa952ba7f163c4a11628f55a4df523b3ef60405160405180910390a4505050565b6000600b60009054906101000a900473ffffffffffffffffffffffffffffffffffffffff16905081600b60006101000a81548173ffffffffffffffffffffffffffffffffffffffff021916908373ffffffffffffffffffffffffffffffffffffffff1602179055508173ffffffffffffffffffffffffffffffffffffffff168173ffffffffffffffffffffffffffffffffffffffff167f8be0079c531659141344cd1fd0a4f28419497f9722a3daafe3b4186f6b6457e060405160405180910390a35050565b8173ffffffffffffffffffffffffffffffffffffffff168373ffffffffffffffffffffffffffffffffffffffff161415612c86576040517f08c379a0000000000000000000000000000000000000000000000000000000008152600401612c7d90614a9d565b60405180910390fd5b80600560008573ffffffffffffffffffffffffffffffffffffffff1673ffffffffffffffffffffffffffffffffffffffff16815260200190815260200160002060008473ffffffffffffffffffffffffffffffffffffffff1673ffffffffffffffffffffffffffffffffffffffff16815260200190815260200160002060006101000a81548160ff0219169083151502179055508173ffffffffffffffffffffffffffffffffffffffff168373ffffffffffffffffffffffffffffffffffffffff167f17307eab39ab6107e8899845ad3d59bd9653f200f220920489ca2b5937696c3183604051612d7791906148d1565b60405180910390a3505050565b612d8f8484846128f5565b612d9b848484846132a4565b612dda576040517f08c379a0000000000000000000000000000000000000000000000000000000008152600401612dd1906149bd565b60405180910390fd5b50505050565b6060612deb82612392565b612e2a576040517f08c379a0000000000000000000000000000000000000000000000000000000008152600401612e2190614bdd565b60405180910390fd5b6000600a60008481526020019081526020016000208054612e4a9061527d565b80601f0160208091040260200160405190810160405280929190818152602001828054612e769061527d565b8015612ec35780601f10612e9857610100808354040283529160200191612ec3565b820191906000526020600020905b815481529060010190602001808311612ea657829003601f168201915b505050505090506000612ed461343b565b9050600081511415612eea578192505050612f2d565b600082511115612f1f578082604051602001612f079291906147dc565b60405160208183030381529060405292505050612f2d565b612f2884613452565b925050505b919050565b600060ff8016821115612f7a576040517f08c379a0000000000000000000000000000000000000000000000000000000008152600401612f71906149fd565b60405180910390fd5b819050919050565b60007f80ac58cd000000000000000000000000000000000000000000000000000000007bffffffffffffffffffffffffffffffffffffffffffffffffffffffff1916827bffffffffffffffffffffffffffffffffffffffffffffffffffffffff1916148061304d57507f5b5e139f000000000000000000000000000000000000000000000000000000007bffffffffffffffffffffffffffffffffffffffffffffffffffffffff1916827bffffffffffffffffffffffffffffffffffffffffffffffffffffffff1916145b8061305d575061305c826134f9565b5b9050919050565b61306e8383613563565b61307b60008484846132a4565b6130ba576040517f08c379a00000000000000000000000000000000000000000000000000000000081526004016130b1906149bd565b60405180910390fd5b505050565b60606000821415613107576040518060400160405280600181526020017f3000000000000000000000000000000000000000000000000000000000000000815250905061321b565b600082905060005b60008214613139578080613122906152e0565b915050600a82613132919061508b565b915061310f565b60008167ffffffffffffffff811115613155576131546154a0565b5b6040519080825280601f01601f1916602001820160405280156131875781602001600182028036833780820191505090505b5090505b60008514613214576001826131a09190615116565b9150600a856131af9190615384565b60306131bb9190614ffe565b60f81b8183815181106131d1576131d0615471565b5b60200101907effffffffffffffffffffffffffffffffffffffffffffffffffffffffffffff1916908160001a905350600a8561320d919061508b565b945061318b565b8093505050505b919050565b61322982612392565b613268576040517f08c379a000000000000000000000000000000000000000000000000000000000815260040161325f90614b9d565b60405180910390fd5b80600a6000848152602001908152602001600020908051906020019061328f929190613b63565b505050565b61329f838383613731565b505050565b60006132c58473ffffffffffffffffffffffffffffffffffffffff16613845565b1561342e578373ffffffffffffffffffffffffffffffffffffffff1663150b7a026132ee6123fe565b8786866040518563ffffffff1660e01b81526004016133109493929190614885565b602060405180830381600087803b15801561332a57600080fd5b505af192505050801561335b57506040513d601f19601f8201168201806040525081019061335891906140b8565b60015b6133de573d806000811461338b576040519150601f19603f3d011682016040523d82523d6000602084013e613390565b606091505b506000815114156133d6576040517f08c379a00000000000000000000000000000000000000000000000000000000081526004016133cd906149bd565b60405180910390fd5b805181602001fd5b63150b7a0260e01b7bffffffffffffffffffffffffffffffffffffffffffffffffffffffff1916817bffffffffffffffffffffffffffffffffffffffffffffffffffffffff191614915050613433565b600190505b949350505050565b606060405180602001604052806000815250905090565b606061345d82612392565b61349c576040517f08c379a000000000000000000000000000000000000000000000000000000000815260040161349390614c5d565b60405180910390fd5b60006134a661343b565b905060008151116134c657604051806020016040528060008152506134f1565b806134d0846130bf565b6040516020016134e19291906147dc565b6040516020818303038152906040525b915050919050565b60007f01ffc9a7000000000000000000000000000000000000000000000000000000007bffffffffffffffffffffffffffffffffffffffffffffffffffffffff1916827bffffffffffffffffffffffffffffffffffffffffffffffffffffffff1916149050919050565b600073ffffffffffffffffffffffffffffffffffffffff168273ffffffffffffffffffffffffffffffffffffffff1614156135d3576040517f08c379a00000000000000000000000000000000000000000000000000000000081526004016135ca90614bbd565b60405180910390fd5b6135dc81612392565b1561361c576040517f08c379a000000000000000000000000000000000000000000000000000000000815260040161361390614a3d565b60405180910390fd5b61362860008383613294565b6001600360008473ffffffffffffffffffffffffffffffffffffffff1673ffffffffffffffffffffffffffffffffffffffff16815260200190815260200160002060008282546136789190614ffe565b92505081905550816002600083815260200190815260200160002060006101000a81548173ffffffffffffffffffffffffffffffffffffffff021916908373ffffffffffffffffffffffffffffffffffffffff160217905550808273ffffffffffffffffffffffffffffffffffffffff16600073ffffffffffffffffffffffffffffffffffffffff167fddf252ad1be2c89b69c2b068fc378daa952ba7f163c4a11628f55a4df523b3ef60405160405180910390a45050565b61373c838383613858565b600073ffffffffffffffffffffffffffffffffffffffff168373ffffffffffffffffffffffffffffffffffffffff16141561377f5761377a8161385d565b6137be565b8173ffffffffffffffffffffffffffffffffffffffff168373ffffffffffffffffffffffffffffffffffffffff16146137bd576137bc83826138a6565b5b5b600073ffffffffffffffffffffffffffffffffffffffff168273ffffffffffffffffffffffffffffffffffffffff161415613801576137fc81613a13565b613840565b8273ffffffffffffffffffffffffffffffffffffffff168273ffffffffffffffffffffffffffffffffffffffff161461383f5761383e8282613ae4565b5b5b505050565b600080823b905060008111915050919050565b505050565b6008805490506009600083815260200190815260200160002081905550600881908060018154018082558091505060019003906000526020600020016000909190919091505550565b600060016138b38461152e565b6138bd9190615116565b90506000600760008481526020019081526020016000205490508181146139a2576000600660008673ffffffffffffffffffffffffffffffffffffffff1673ffffffffffffffffffffffffffffffffffffffff168152602001908152602001600020600084815260200190815260200160002054905080600660008773ffffffffffffffffffffffffffffffffffffffff1673ffffffffffffffffffffffffffffffffffffffff168152602001908152602001600020600084815260200190815260200160002081905550816007600083815260200190815260200160002081905550505b6007600084815260200190815260200160002060009055600660008573ffffffffffffffffffffffffffffffffffffffff1673ffffffffffffffffffffffffffffffffffffffff16815260200190815260200160002060008381526020019081526020016000206000905550505050565b60006001600880549050613a279190615116565b9050600060096000848152602001908152602001600020549050600060088381548110613a5757613a56615471565b5b906000526020600020015490508060088381548110613a7957613a78615471565b5b906000526020600020018190555081600960008381526020019081526020016000208190555060096000858152602001908152602001600020600090556008805480613ac857613ac7615442565b5b6001900381819060005260206000200160009055905550505050565b6000613aef8361152e565b905081600660008573ffffffffffffffffffffffffffffffffffffffff1673ffffffffffffffffffffffffffffffffffffffff168152602001908152602001600020600083815260200190815260200160002081905550806007600084815260200190815260200160002081905550505050565b828054613b6f9061527d565b90600052602060002090601f016020900481019282613b915760008555613bd8565b82601f10613baa57805160ff1916838001178555613bd8565b82800160010185558215613bd8579182015b82811115613bd7578251825591602001919060010190613bbc565b5b509050613be59190613be9565b5090565b5b80821115613c02576000816000905550600101613bea565b5090565b6000613c19613c1484614ed0565b614eab565b905082815260208101848484011115613c3557613c346154d4565b5b613c4084828561523b565b509392505050565b6000613c5b613c5684614f01565b614eab565b905082815260208101848484011115613c7757613c766154d4565b5b613c8284828561524a565b509392505050565b600081359050613c9981615d3b565b92915050565b600081359050613cae81615d52565b92915050565b600081359050613cc381615d69565b92915050565b600081359050613cd881615d80565b92915050565b600081519050613ced81615d80565b92915050565b600082601f830112613d0857613d076154cf565b5b8135613d18848260208601613c06565b91505092915050565b600082601f830112613d3657613d356154cf565b5b8151613d46848260208601613c48565b91505092915050565b600081359050613d5e81615d97565b92915050565b600081359050613d7381615dae565b92915050565b600081359050613d8881615dc5565b92915050565b600081519050613d9d81615dc5565b92915050565b600081359050613db281615ddc565b92915050565b600081519050613dc781615ddc565b92915050565b600060208284031215613de357613de26154de565b5b6000613df184828501613c8a565b91505092915050565b60008060408385031215613e1157613e106154de565b5b6000613e1f85828601613c8a565b9250506020613e3085828601613c8a565b9150509250929050565b600080600080600060a08688031215613e5657613e556154de565b5b6000613e6488828901613c8a565b9550506020613e7588828901613c9f565b9450506040613e8688828901613d64565b9350506060613e9788828901613d64565b9250506080613ea888828901613da3565b9150509295509295909350565b600080600060608486031215613ece57613ecd6154de565b5b6000613edc86828701613c8a565b9350506020613eed86828701613c8a565b9250506040613efe86828701613d79565b9150509250925092565b60008060008060808587031215613f2257613f216154de565b5b6000613f3087828801613c8a565b9450506020613f4187828801613c8a565b9350506040613f5287828801613d79565b925050606085013567ffffffffffffffff811115613f7357613f726154d9565b5b613f7f87828801613cf3565b91505092959194509250565b60008060408385031215613fa257613fa16154de565b5b6000613fb085828601613c8a565b9250506020613fc185828601613cb4565b9150509250929050565b60008060408385031215613fe257613fe16154de565b5b6000613ff085828601613c8a565b925050602061400185828601613d79565b9150509250929050565b600060208284031215614021576140206154de565b5b600061402f84828501613cb4565b91505092915050565b600080600060608486031215614051576140506154de565b5b600061405f86828701613cb4565b935050602061407086828701613da3565b925050604061408186828701613d4f565b9150509250925092565b6000602082840312156140a1576140a06154de565b5b60006140af84828501613cc9565b91505092915050565b6000602082840312156140ce576140cd6154de565b5b60006140dc84828501613cde565b91505092915050565b6000602082840312156140fb576140fa6154de565b5b600082015167ffffffffffffffff811115614119576141186154d9565b5b61412584828501613d21565b91505092915050565b600060208284031215614144576141436154de565b5b600061415284828501613d79565b91505092915050565b600060208284031215614171576141706154de565b5b600061417f84828501613d8e565b91505092915050565b60006020828403121561419e5761419d6154de565b5b60006141ac84828501613da3565b91505092915050565b6000602082840312156141cb576141ca6154de565b5b60006141d984828501613db8565b91505092915050565b6141eb81615190565b82525050565b6141fa8161517e565b82525050565b614209816151a2565b82525050565b600061421a82614f32565b6142248185614f48565b935061423481856020860161524a565b61423d816154e3565b840191505092915050565b600061425382614f3d565b61425d8185614f64565b935061426d81856020860161524a565b614276816154e3565b840191505092915050565b600061428c82614f3d565b6142968185614f75565b93506142a681856020860161524a565b80840191505092915050565b60006142bf602b83614f64565b91506142ca826154f4565b604082019050919050565b60006142e2600983614f64565b91506142ed82615543565b602082019050919050565b6000614305603283614f64565b91506143108261556c565b604082019050919050565b6000614328602683614f64565b9150614333826155bb565b604082019050919050565b600061434b602583614f64565b91506143568261560a565b604082019050919050565b600061436e601283614f64565b915061437982615659565b602082019050919050565b6000614391601c83614f64565b915061439c82615682565b602082019050919050565b60006143b4601483614f64565b91506143bf826156ab565b602082019050919050565b60006143d7602483614f64565b91506143e2826156d4565b604082019050919050565b60006143fa601983614f64565b915061440582615723565b602082019050919050565b600061441d602783614f64565b91506144288261574c565b604082019050919050565b6000614440603a83614f64565b915061444b8261579b565b604082019050919050565b6000614463601d83614f64565b915061446e826157ea565b602082019050919050565b6000614486602c83614f64565b915061449182615813565b604082019050919050565b60006144a9603883614f64565b91506144b482615862565b604082019050919050565b60006144cc602a83614f64565b91506144d7826158b1565b604082019050919050565b60006144ef602983614f64565b91506144fa82615900565b604082019050919050565b6000614512602e83614f64565b915061451d8261594f565b604082019050919050565b6000614535602083614f64565b91506145408261599e565b602082019050919050565b6000614558603183614f64565b9150614563826159c7565b604082019050919050565b600061457b602c83614f64565b915061458682615a16565b604082019050919050565b600061459e600583614f75565b91506145a982615a65565b600582019050919050565b60006145c1602083614f64565b91506145cc82615a8e565b602082019050919050565b60006145e4602983614f64565b91506145ef82615ab7565b604082019050919050565b6000614607602f83614f64565b915061461282615b06565b604082019050919050565b600061462a602183614f64565b915061463582615b55565b604082019050919050565b600061464d600e83614f64565b915061465882615ba4565b602082019050919050565b6000614670600083614f59565b915061467b82615bcd565b600082019050919050565b6000614693603183614f64565b915061469e82615bd0565b604082019050919050565b60006146b6600183614f75565b91506146c182615c1f565b600182019050919050565b60006146d9600c83614f64565b91506146e482615c48565b602082019050919050565b60006146fc600c83614f64565b915061470782615c71565b602082019050919050565b600061471f602c83614f64565b915061472a82615c9a565b604082019050919050565b6000614742601383614f64565b915061474d82615ce9565b602082019050919050565b6000614765600483614f64565b915061477082615d12565b602082019050919050565b8082525050565b61478b816151da565b82525050565b61479a816151f6565b82525050565b6147a9816151f6565b82525050565b6147b881615224565b82525050565b6147c781615224565b82525050565b6147d68161522e565b82525050565b60006147e88285614281565b91506147f48284614281565b91508190509392505050565b600061480c8285614281565b9150614817826146a9565b91506148238284614281565b915061482e82614591565b91508190509392505050565b600061484582614663565b9150819050919050565b600060208201905061486460008301846141f1565b92915050565b600060208201905061487f60008301846141e2565b92915050565b600060808201905061489a60008301876141f1565b6148a760208301866141f1565b6148b460408301856147af565b81810360608301526148c6818461420f565b905095945050505050565b60006020820190506148e66000830184614200565b92915050565b600060e082019050614901600083018a614200565b61490e6020830189614200565b61491b6040830188614200565b61492860608301876147cd565b61493560808301866147cd565b61494260a08301856147cd565b61494f60c0830184614782565b98975050505050505050565b600060208201905081810360008301526149758184614248565b905092915050565b60006020820190508181036000830152614996816142b2565b9050919050565b600060208201905081810360008301526149b6816142d5565b9050919050565b600060208201905081810360008301526149d6816142f8565b9050919050565b600060208201905081810360008301526149f68161431b565b9050919050565b60006020820190508181036000830152614a168161433e565b9050919050565b60006020820190508181036000830152614a3681614361565b9050919050565b60006020820190508181036000830152614a5681614384565b9050919050565b60006020820190508181036000830152614a76816143a7565b9050919050565b60006020820190508181036000830152614a96816143ca565b9050919050565b60006020820190508181036000830152614ab6816143ed565b9050919050565b60006020820190508181036000830152614ad681614410565b9050919050565b60006020820190508181036000830152614af681614433565b9050919050565b60006020820190508181036000830152614b1681614456565b9050919050565b60006020820190508181036000830152614b3681614479565b9050919050565b60006020820190508181036000830152614b568161449c565b9050919050565b60006020820190508181036000830152614b76816144bf565b9050919050565b60006020820190508181036000830152614b96816144e2565b9050919050565b60006020820190508181036000830152614bb681614505565b9050919050565b60006020820190508181036000830152614bd681614528565b9050919050565b60006020820190508181036000830152614bf68161454b565b9050919050565b60006020820190508181036000830152614c168161456e565b9050919050565b60006020820190508181036000830152614c36816145b4565b9050919050565b60006020820190508181036000830152614c56816145d7565b9050919050565b60006020820190508181036000830152614c76816145fa565b9050919050565b60006020820190508181036000830152614c968161461d565b9050919050565b60006020820190508181036000830152614cb681614640565b9050919050565b60006020820190508181036000830152614cd681614686565b9050919050565b60006020820190508181036000830152614cf6816146cc565b9050919050565b60006020820190508181036000830152614d16816146ef565b9050919050565b60006020820190508181036000830152614d3681614712565b9050919050565b60006020820190508181036000830152614d5681614735565b9050919050565b60006020820190508181036000830152614d7681614758565b9050919050565b6000606082019050614d92600083018661477b565b614d9f60208301856147a0565b614dac60408301846147be565b949350505050565b6000604082019050614dc96000830185614782565b614dd66020830184614782565b9392505050565b6000602082019050614df260008301846147be565b92915050565b6000602082019050614e0d60008301846147af565b92915050565b6000604082019050614e2860008301856147af565b614e3560208301846147cd565b9392505050565b600060e082019050614e51600083018a6147cd565b614e5e6020830189614791565b614e6b6040830188614791565b614e786060830187614791565b614e856080830186614782565b614e9260a08301856141f1565b614e9f60c08301846141f1565b98975050505050505050565b6000614eb5614ec6565b9050614ec182826152af565b919050565b6000604051905090565b600067ffffffffffffffff821115614eeb57614eea6154a0565b5b614ef4826154e3565b9050602081019050919050565b600067ffffffffffffffff821115614f1c57614f1b6154a0565b5b614f25826154e3565b9050602081019050919050565b600081519050919050565b600081519050919050565b600082825260208201905092915050565b600081905092915050565b600082825260208201905092915050565b600081905092915050565b6000614f8b826151da565b9150614f96836151da565b9250826fffffffffffffffffffffffffffffffff03821115614fbb57614fba6153b5565b5b828201905092915050565b6000614fd1826151f6565b9150614fdc836151f6565b92508261ffff03821115614ff357614ff26153b5565b5b828201905092915050565b600061500982615224565b915061501483615224565b9250827fffffffffffffffffffffffffffffffffffffffffffffffffffffffffffffffff03821115615049576150486153b5565b5b828201905092915050565b600061505f8261522e565b915061506a8361522e565b92508260ff038211156150805761507f6153b5565b5b828201905092915050565b600061509682615224565b91506150a183615224565b9250826150b1576150b06153e4565b5b828204905092915050565b60006150c782615224565b91506150d283615224565b9250817fffffffffffffffffffffffffffffffffffffffffffffffffffffffffffffffff048311821515161561510b5761510a6153b5565b5b828202905092915050565b600061512182615224565b915061512c83615224565b92508282101561513f5761513e6153b5565b5b828203905092915050565b60006151558261522e565b91506151608361522e565b925082821015615173576151726153b5565b5b828203905092915050565b600061518982615204565b9050919050565b600061519b82615204565b9050919050565b60008115159050919050565b60007fffffffff0000000000000000000000000000000000000000000000000000000082169050919050565b60006fffffffffffffffffffffffffffffffff82169050919050565b600061ffff82169050919050565b600073ffffffffffffffffffffffffffffffffffffffff82169050919050565b6000819050919050565b600060ff82169050919050565b82818337600083830152505050565b60005b8381101561526857808201518184015260208101905061524d565b83811115615277576000848401525b50505050565b6000600282049050600182168061529557607f821691505b602082108114156152a9576152a8615413565b5b50919050565b6152b8826154e3565b810181811067ffffffffffffffff821117156152d7576152d66154a0565b5b80604052505050565b60006152eb82615224565b91507fffffffffffffffffffffffffffffffffffffffffffffffffffffffffffffffff82141561531e5761531d6153b5565b5b600182019050919050565b60006153348261522e565b915060ff821415615348576153476153b5565b5b600182019050919050565b600061535e826151f6565b9150615369836151f6565b925082615379576153786153e4565b5b828206905092915050565b600061538f82615224565b915061539a83615224565b9250826153aa576153a96153e4565b5b828206905092915050565b7f4e487b7100000000000000000000000000000000000000000000000000000000600052601160045260246000fd5b7f4e487b7100000000000000000000000000000000000000000000000000000000600052601260045260246000fd5b7f4e487b7100000000000000000000000000000000000000000000000000000000600052602260045260246000fd5b7f4e487b7100000000000000000000000000000000000000000000000000000000600052603160045260246000fd5b7f4e487b7100000000000000000000000000000000000000000000000000000000600052603260045260246000fd5b7f4e487b7100000000000000000000000000000000000000000000000000000000600052604160045260246000fd5b600080fd5b600080fd5b600080fd5b600080fd5b6000601f19601f8301169050919050565b7f455243373231456e756d657261626c653a206f776e657220696e646578206f7560008201527f74206f6620626f756e6473000000000000000000000000000000000000000000602082015250565b7f4f4e4c595f4f4e43450000000000000000000000000000000000000000000000600082015250565b7f4552433732313a207472616e7366657220746f206e6f6e20455243373231526560008201527f63656976657220696d706c656d656e7465720000000000000000000000000000602082015250565b7f4f776e61626c653a206e6577206f776e657220697320746865207a65726f206160008201527f6464726573730000000000000000000000000000000000000000000000000000602082015250565b7f53616665436173743a2076616c756520646f65736e27742066697420696e203860008201527f2062697473000000000000000000000000000000000000000000000000000000602082015250565b7f494e53554646494349454e545f46554e44530000000000000000000000000000600082015250565b7f4552433732313a20746f6b656e20616c7265616479206d696e74656400000000600082015250565b7f544f54414c5f535550504c595f52454143484544000000000000000000000000600082015250565b7f4552433732313a207472616e7366657220746f20746865207a65726f2061646460008201527f7265737300000000000000000000000000000000000000000000000000000000602082015250565b7f4552433732313a20617070726f766520746f2063616c6c657200000000000000600082015250565b7f53616665436173743a2076616c756520646f65736e27742066697420696e203160008201527f3238206269747300000000000000000000000000000000000000000000000000602082015250565b7f416464726573733a20756e61626c6520746f2073656e642076616c75652c207260008201527f6563697069656e74206d61792068617665207265766572746564000000000000602082015250565b7f416464726573733a20696e73756666696369656e742062616c616e6365000000600082015250565b7f4552433732313a206f70657261746f7220717565727920666f72206e6f6e657860008201527f697374656e7420746f6b656e0000000000000000000000000000000000000000602082015250565b7f4552433732313a20617070726f76652063616c6c6572206973206e6f74206f7760008201527f6e6572206e6f7220617070726f76656420666f7220616c6c0000000000000000602082015250565b7f4552433732313a2062616c616e636520717565727920666f7220746865207a6560008201527f726f206164647265737300000000000000000000000000000000000000000000602082015250565b7f4552433732313a206f776e657220717565727920666f72206e6f6e657869737460008201527f656e7420746f6b656e0000000000000000000000000000000000000000000000602082015250565b7f45524337323155524953746f726167653a2055524920736574206f66206e6f6e60008201527f6578697374656e7420746f6b656e000000000000000000000000000000000000602082015250565b7f4552433732313a206d696e7420746f20746865207a65726f2061646472657373600082015250565b7f45524337323155524953746f726167653a2055524920717565727920666f722060008201527f6e6f6e6578697374656e7420746f6b656e000000000000000000000000000000602082015250565b7f4552433732313a20617070726f76656420717565727920666f72206e6f6e657860008201527f697374656e7420746f6b656e0000000000000000000000000000000000000000602082015250565b7f2e6a736f6e000000000000000000000000000000000000000000000000000000600082015250565b7f4f776e61626c653a2063616c6c6572206973206e6f7420746865206f776e6572600082015250565b7f4552433732313a207472616e73666572206f6620746f6b656e2074686174206960008201527f73206e6f74206f776e0000000000000000000000000000000000000000000000602082015250565b7f4552433732314d657461646174613a2055524920717565727920666f72206e6f60008201527f6e6578697374656e7420746f6b656e0000000000000000000000000000000000602082015250565b7f4552433732313a20617070726f76616c20746f2063757272656e74206f776e6560008201527f7200000000000000000000000000000000000000000000000000000000000000602082015250565b7f4449564944455f42595f5a45524f000000000000000000000000000000000000600082015250565b50565b7f4552433732313a207472616e736665722063616c6c6572206973206e6f74206f60008201527f776e6572206e6f7220617070726f766564000000000000000000000000000000602082015250565b7f5f00000000000000000000000000000000000000000000000000000000000000600082015250565b7f4645455f544f4f5f484947480000000000000000000000000000000000000000600082015250565b7f4f4e4c595f4f4e455f4e46540000000000000000000000000000000000000000600082015250565b7f455243373231456e756d657261626c653a20676c6f62616c20696e646578206f60008201527f7574206f6620626f756e64730000000000000000000000000000000000000000602082015250565b7f4e4f5f434f4d4d554e4954595f57414c4c455400000000000000000000000000600082015250565b7f4c4f434b00000000000000000000000000000000000000000000000000000000600082015250565b615d448161517e565b8114615d4f57600080fd5b50565b615d5b81615190565b8114615d6657600080fd5b50565b615d72816151a2565b8114615d7d57600080fd5b50565b615d89816151ae565b8114615d9457600080fd5b50565b615da0816151da565b8114615dab57600080fd5b50565b615db7816151f6565b8114615dc257600080fd5b50565b615dce81615224565b8114615dd957600080fd5b50565b615de58161522e565b8114615df057600080fd5b5056fea2646970667358221220142b07caa518c65d19e5ead172eb3aeffbb36c6c5a24567a171050391ba11caf64736f6c63430008070033",
  "linkReferences": {
    "contracts/CryptoCocksLib.sol": {
      "CryptoCocksLib": [
        {
          "length": 20,
          "start": 8540
        }
      ]
    },
    "contracts/OrderStatisticsTreeLib.sol": {
      "OrderStatisticsTreeLib": [
        {
          "length": 20,
          "start": 4615
        }
      ]
    }
  },
  "deployedLinkReferences": {
    "contracts/CryptoCocksLib.sol": {
      "CryptoCocksLib": [
        {
          "length": 20,
          "start": 7105
        }
      ]
    },
    "contracts/OrderStatisticsTreeLib.sol": {
      "OrderStatisticsTreeLib": [
        {
          "length": 20,
          "start": 3180
        }
      ]
    }
  }
}