{
  "_format": "hh-sol-artifact-1",
  "contractName": "CryptoCocks",
  "sourceName": "contracts/CryptoCocks.sol",
  "abi": [
    {
      "inputs": [],
      "stateMutability": "nonpayable",
      "type": "constructor"
    },
    {
      "anonymous": false,
      "inputs": [
        {
          "indexed": true,
          "internalType": "address",
          "name": "owner",
          "type": "address"
        },
        {
          "indexed": true,
          "internalType": "address",
          "name": "approved",
          "type": "address"
        },
        {
          "indexed": true,
          "internalType": "uint256",
          "name": "tokenId",
          "type": "uint256"
        }
      ],
      "name": "Approval",
      "type": "event"
    },
    {
      "anonymous": false,
      "inputs": [
        {
          "indexed": true,
          "internalType": "address",
          "name": "owner",
          "type": "address"
        },
        {
          "indexed": true,
          "internalType": "address",
          "name": "operator",
          "type": "address"
        },
        {
          "indexed": false,
          "internalType": "bool",
          "name": "approved",
          "type": "bool"
        }
      ],
      "name": "ApprovalForAll",
      "type": "event"
    },
    {
      "anonymous": false,
      "inputs": [
        {
          "indexed": true,
          "internalType": "uint16",
          "name": "id",
          "type": "uint16"
        },
        {
          "indexed": false,
          "internalType": "uint256",
          "name": "balance",
          "type": "uint256"
        }
      ],
      "name": "Mint",
      "type": "event"
    },
    {
      "anonymous": false,
      "inputs": [
        {
          "indexed": true,
          "internalType": "address",
          "name": "previousOwner",
          "type": "address"
        },
        {
          "indexed": true,
          "internalType": "address",
          "name": "newOwner",
          "type": "address"
        }
      ],
      "name": "OwnershipTransferred",
      "type": "event"
    },
    {
      "anonymous": false,
      "inputs": [
        {
          "indexed": false,
          "internalType": "string",
          "name": "_value",
          "type": "string"
        },
        {
          "indexed": true,
          "internalType": "uint256",
          "name": "_id",
          "type": "uint256"
        }
      ],
      "name": "PermanentURI",
      "type": "event"
    },
    {
      "anonymous": false,
      "inputs": [
        {
          "indexed": true,
          "internalType": "address",
          "name": "from",
          "type": "address"
        },
        {
          "indexed": true,
          "internalType": "address",
          "name": "to",
          "type": "address"
        },
        {
          "indexed": true,
          "internalType": "uint256",
          "name": "tokenId",
          "type": "uint256"
        }
      ],
      "name": "Transfer",
      "type": "event"
    },
    {
      "inputs": [
        {
          "internalType": "uint8",
          "name": "id",
          "type": "uint8"
        },
        {
          "internalType": "bool",
          "name": "erc1155",
          "type": "bool"
        },
        {
          "internalType": "address",
          "name": "cc",
          "type": "address"
        },
        {
          "internalType": "address payable",
          "name": "wallet",
          "type": "address"
        },
        {
          "internalType": "uint16",
          "name": "maxSupply",
          "type": "uint16"
        },
        {
          "internalType": "uint16",
          "name": "minBalance",
          "type": "uint16"
        },
        {
          "internalType": "uint8",
          "name": "percRoyal",
          "type": "uint8"
        },
        {
          "internalType": "uint256",
          "name": "erc1155Id",
          "type": "uint256"
        }
      ],
      "name": "addWhiteListing",
      "outputs": [],
      "stateMutability": "nonpayable",
      "type": "function"
    },
    {
      "inputs": [
        {
          "internalType": "address",
          "name": "to",
          "type": "address"
        },
        {
          "internalType": "uint256",
          "name": "tokenId",
          "type": "uint256"
        }
      ],
      "name": "approve",
      "outputs": [],
      "stateMutability": "nonpayable",
      "type": "function"
    },
    {
      "inputs": [],
      "name": "bal",
      "outputs": [
        {
          "internalType": "uint128",
          "name": "team",
          "type": "uint128"
        },
        {
          "internalType": "uint128",
          "name": "donation",
          "type": "uint128"
        }
      ],
      "stateMutability": "view",
      "type": "function"
    },
    {
      "inputs": [
        {
          "internalType": "address",
          "name": "owner",
          "type": "address"
        }
      ],
      "name": "balanceOf",
      "outputs": [
        {
          "internalType": "uint256",
          "name": "",
          "type": "uint256"
        }
      ],
      "stateMutability": "view",
      "type": "function"
    },
    {
      "inputs": [
        {
          "internalType": "bool",
          "name": "status",
          "type": "bool"
        },
        {
          "internalType": "uint8",
          "name": "percFee",
          "type": "uint8"
        },
        {
          "internalType": "uint128",
          "name": "minFee",
          "type": "uint128"
        }
      ],
      "name": "changeFeeSettings",
      "outputs": [],
      "stateMutability": "nonpayable",
      "type": "function"
    },
    {
      "inputs": [
        {
          "internalType": "bool",
          "name": "newStatus",
          "type": "bool"
        }
      ],
      "name": "changePublicSaleStatus",
      "outputs": [],
      "stateMutability": "nonpayable",
      "type": "function"
    },
    {
      "inputs": [
        {
          "internalType": "bool",
          "name": "enabled",
          "type": "bool"
        }
      ],
      "name": "changeWhitelistingSettings",
      "outputs": [],
      "stateMutability": "nonpayable",
      "type": "function"
    },
    {
      "inputs": [],
      "name": "donationWallet",
      "outputs": [
        {
          "internalType": "address payable",
          "name": "",
          "type": "address"
        }
      ],
      "stateMutability": "view",
      "type": "function"
    },
    {
      "inputs": [
        {
          "internalType": "uint256",
          "name": "tokenId",
          "type": "uint256"
        }
      ],
      "name": "getApproved",
      "outputs": [
        {
          "internalType": "address",
          "name": "",
          "type": "address"
        }
      ],
      "stateMutability": "view",
      "type": "function"
    },
    {
      "inputs": [
        {
          "internalType": "uint8",
          "name": "lcId",
          "type": "uint8"
        }
      ],
      "name": "getListContract",
      "outputs": [
        {
          "components": [
            {
              "internalType": "bool",
              "name": "erc1155",
              "type": "bool"
            },
            {
              "internalType": "uint8",
              "name": "id",
              "type": "uint8"
            },
            {
              "internalType": "uint8",
              "name": "percRoyal",
              "type": "uint8"
            },
            {
              "internalType": "uint16",
              "name": "maxSupply",
              "type": "uint16"
            },
            {
              "internalType": "uint16",
              "name": "minBalance",
              "type": "uint16"
            },
            {
              "internalType": "uint16",
              "name": "tracker",
              "type": "uint16"
            },
            {
              "internalType": "uint128",
              "name": "balance",
              "type": "uint128"
            },
            {
              "internalType": "uint256",
              "name": "erc1155Id",
              "type": "uint256"
            },
            {
              "internalType": "address",
              "name": "cc",
              "type": "address"
            },
            {
              "internalType": "address",
              "name": "wallet",
              "type": "address"
            }
          ],
          "internalType": "struct CryptoCocksWhitelistingLib.ListContract",
          "name": "lc",
          "type": "tuple"
        }
      ],
      "stateMutability": "view",
      "type": "function"
    },
    {
      "inputs": [],
      "name": "initMint",
      "outputs": [],
      "stateMutability": "nonpayable",
      "type": "function"
    },
    {
      "inputs": [
        {
          "internalType": "address",
          "name": "owner",
          "type": "address"
        },
        {
          "internalType": "address",
          "name": "operator",
          "type": "address"
        }
      ],
      "name": "isApprovedForAll",
      "outputs": [
        {
          "internalType": "bool",
          "name": "",
          "type": "bool"
        }
      ],
      "stateMutability": "view",
      "type": "function"
    },
    {
      "inputs": [],
      "name": "mint",
      "outputs": [],
      "stateMutability": "payable",
      "type": "function"
    },
    {
      "inputs": [],
      "name": "name",
      "outputs": [
        {
          "internalType": "string",
          "name": "",
          "type": "string"
        }
      ],
      "stateMutability": "view",
      "type": "function"
    },
    {
      "inputs": [],
      "name": "owner",
      "outputs": [
        {
          "internalType": "address",
          "name": "",
          "type": "address"
        }
      ],
      "stateMutability": "view",
      "type": "function"
    },
    {
      "inputs": [
        {
          "internalType": "uint256",
          "name": "tokenId",
          "type": "uint256"
        }
      ],
      "name": "ownerOf",
      "outputs": [
        {
          "internalType": "address",
          "name": "",
          "type": "address"
        }
      ],
      "stateMutability": "view",
      "type": "function"
    },
    {
      "inputs": [
        {
          "internalType": "uint8",
          "name": "listIndex",
          "type": "uint8"
        },
        {
          "internalType": "address",
          "name": "addressToQuery",
          "type": "address"
        }
      ],
      "name": "queryBalance",
      "outputs": [
        {
          "internalType": "uint256",
          "name": "",
          "type": "uint256"
        }
      ],
      "stateMutability": "view",
      "type": "function"
    },
    {
      "inputs": [
        {
          "internalType": "uint8",
          "name": "lcId",
          "type": "uint8"
        }
      ],
      "name": "removeWhitelisting",
      "outputs": [],
      "stateMutability": "nonpayable",
      "type": "function"
    },
    {
      "inputs": [],
      "name": "renounceOwnership",
      "outputs": [],
      "stateMutability": "nonpayable",
      "type": "function"
    },
    {
      "inputs": [
        {
          "internalType": "address",
          "name": "from",
          "type": "address"
        },
        {
          "internalType": "address",
          "name": "to",
          "type": "address"
        },
        {
          "internalType": "uint256",
          "name": "tokenId",
          "type": "uint256"
        }
      ],
      "name": "safeTransferFrom",
      "outputs": [],
      "stateMutability": "nonpayable",
      "type": "function"
    },
    {
      "inputs": [
        {
          "internalType": "address",
          "name": "from",
          "type": "address"
        },
        {
          "internalType": "address",
          "name": "to",
          "type": "address"
        },
        {
          "internalType": "uint256",
          "name": "tokenId",
          "type": "uint256"
        },
        {
          "internalType": "bytes",
          "name": "_data",
          "type": "bytes"
        }
      ],
      "name": "safeTransferFrom",
      "outputs": [],
      "stateMutability": "nonpayable",
      "type": "function"
    },
    {
      "inputs": [],
      "name": "set",
      "outputs": [
        {
          "internalType": "bool",
          "name": "publicSaleStatus",
          "type": "bool"
        },
        {
          "internalType": "bool",
          "name": "freeMinting",
          "type": "bool"
        },
        {
          "internalType": "bool",
          "name": "initMint",
          "type": "bool"
        },
        {
          "internalType": "bool",
          "name": "isWhitelistingEnabled",
          "type": "bool"
        },
        {
          "internalType": "uint8",
          "name": "percFee",
          "type": "uint8"
        },
        {
          "internalType": "uint128",
          "name": "minFee",
          "type": "uint128"
        }
      ],
      "stateMutability": "view",
      "type": "function"
    },
    {
      "inputs": [
        {
          "internalType": "address",
          "name": "operator",
          "type": "address"
        },
        {
          "internalType": "bool",
          "name": "approved",
          "type": "bool"
        }
      ],
      "name": "setApprovalForAll",
      "outputs": [],
      "stateMutability": "nonpayable",
      "type": "function"
    },
    {
      "inputs": [
        {
          "internalType": "bytes4",
          "name": "interfaceId",
          "type": "bytes4"
        }
      ],
      "name": "supportsInterface",
      "outputs": [
        {
          "internalType": "bool",
          "name": "",
          "type": "bool"
        }
      ],
      "stateMutability": "view",
      "type": "function"
    },
    {
      "inputs": [],
      "name": "symbol",
      "outputs": [
        {
          "internalType": "string",
          "name": "",
          "type": "string"
        }
      ],
      "stateMutability": "view",
      "type": "function"
    },
    {
      "inputs": [],
      "name": "teamWallet",
      "outputs": [
        {
          "internalType": "address payable",
          "name": "",
          "type": "address"
        }
      ],
      "stateMutability": "view",
      "type": "function"
    },
    {
      "inputs": [
        {
          "internalType": "uint256",
          "name": "index",
          "type": "uint256"
        }
      ],
      "name": "tokenByIndex",
      "outputs": [
        {
          "internalType": "uint256",
          "name": "",
          "type": "uint256"
        }
      ],
      "stateMutability": "view",
      "type": "function"
    },
    {
      "inputs": [
        {
          "internalType": "address",
          "name": "owner",
          "type": "address"
        },
        {
          "internalType": "uint256",
          "name": "index",
          "type": "uint256"
        }
      ],
      "name": "tokenOfOwnerByIndex",
      "outputs": [
        {
          "internalType": "uint256",
          "name": "",
          "type": "uint256"
        }
      ],
      "stateMutability": "view",
      "type": "function"
    },
    {
      "inputs": [
        {
          "internalType": "uint256",
          "name": "tokenId",
          "type": "uint256"
        }
      ],
      "name": "tokenURI",
      "outputs": [
        {
          "internalType": "string",
          "name": "",
          "type": "string"
        }
      ],
      "stateMutability": "view",
      "type": "function"
    },
    {
      "inputs": [],
      "name": "totalSupply",
      "outputs": [
        {
          "internalType": "uint256",
          "name": "",
          "type": "uint256"
        }
      ],
      "stateMutability": "view",
      "type": "function"
    },
    {
      "inputs": [
        {
          "internalType": "address",
          "name": "from",
          "type": "address"
        },
        {
          "internalType": "address",
          "name": "to",
          "type": "address"
        },
        {
          "internalType": "uint256",
          "name": "tokenId",
          "type": "uint256"
        }
      ],
      "name": "transferFrom",
      "outputs": [],
      "stateMutability": "nonpayable",
      "type": "function"
    },
    {
      "inputs": [
        {
          "internalType": "address",
          "name": "newOwner",
          "type": "address"
        }
      ],
      "name": "transferOwnership",
      "outputs": [],
      "stateMutability": "nonpayable",
      "type": "function"
    },
    {
      "inputs": [],
      "name": "transferRoyalty",
      "outputs": [],
      "stateMutability": "nonpayable",
      "type": "function"
    },
    {
      "inputs": [],
      "name": "tree",
      "outputs": [
        {
          "internalType": "uint256",
          "name": "root",
          "type": "uint256"
        },
        {
          "internalType": "uint8",
          "name": "minLength",
          "type": "uint8"
        }
      ],
      "stateMutability": "view",
      "type": "function"
    }
  ],
  "bytecode": "0x60806040523480156200001157600080fd5b506040518060400160405280600b81526020017f43727970746f436f636b730000000000000000000000000000000000000000008152506040518060400160405280600281526020017f434300000000000000000000000000000000000000000000000000000000000081525081600090805190602001906200009692919062000449565b508060019080519060200190620000af92919062000449565b505050620000d2620000c66200037b60201b60201c565b6200038360201b60201c565b6040518060c00160405280600015158152602001600115158152602001600115158152602001600115158152602001606460ff16815260200166470de4df8200006fffffffffffffffffffffffffffffffff16815250601360008201518160000160006101000a81548160ff02191690831515021790555060208201518160000160016101000a81548160ff02191690831515021790555060408201518160000160026101000a81548160ff02191690831515021790555060608201518160000160036101000a81548160ff02191690831515021790555060808201518160000160046101000a81548160ff021916908360ff16021790555060a08201518160000160056101000a8154816fffffffffffffffffffffffffffffffff02191690836fffffffffffffffffffffffffffffffff160217905550905050604051806040016040528060006fffffffffffffffffffffffffffffffff16815260200160006fffffffffffffffffffffffffffffffff16815250601460008201518160000160006101000a8154816fffffffffffffffffffffffffffffffff02191690836fffffffffffffffffffffffffffffffff16021790555060208201518160000160106101000a8154816fffffffffffffffffffffffffffffffff02191690836fffffffffffffffffffffffffffffffff160217905550905050735b1f57449dd479e787fdf201a59d06d3cb84f5dc601560006101000a81548173ffffffffffffffffffffffffffffffffffffffff021916908373ffffffffffffffffffffffffffffffffffffffff16021790555073b1019eb5e90ad29c2fce82aab712325a1a3d5924601660006101000a81548173ffffffffffffffffffffffffffffffffffffffff021916908373ffffffffffffffffffffffffffffffffffffffff1602179055506200055e565b600033905090565b6000600b60009054906101000a900473ffffffffffffffffffffffffffffffffffffffff16905081600b60006101000a81548173ffffffffffffffffffffffffffffffffffffffff021916908373ffffffffffffffffffffffffffffffffffffffff1602179055508173ffffffffffffffffffffffffffffffffffffffff168173ffffffffffffffffffffffffffffffffffffffff167f8be0079c531659141344cd1fd0a4f28419497f9722a3daafe3b4186f6b6457e060405160405180910390a35050565b8280546200045790620004f9565b90600052602060002090601f0160209004810192826200047b5760008555620004c7565b82601f106200049657805160ff1916838001178555620004c7565b82800160010185558215620004c7579182015b82811115620004c6578251825591602001919060010190620004a9565b5b509050620004d69190620004da565b5090565b5b80821115620004f5576000816000905550600101620004db565b5090565b600060028204905060018216806200051257607f821691505b602082108114156200052957620005286200052f565b5b50919050565b7f4e487b7100000000000000000000000000000000000000000000000000000000600052602260045260246000fd5b615fef806200056e6000396000f3fe6080604052600436106101f95760003560e01c8063715018a61161010d578063b8e010de116100a0578063e0737f7a1161006f578063e0737f7a14610728578063e7b94df41461073f578063e985e9c51461076a578063f2fde38b146107a7578063fd54b228146107d0576101f9565b8063b8e010de14610669578063bc81335614610699578063c5836f1d146106c2578063c87b56dd146106eb576101f9565b80639fc18902116100dc5780639fc18902146105c5578063a22cb465146105ee578063a81cfad914610617578063b88d4fde14610640576101f9565b8063715018a61461054157806381f2fbb6146105585780638da5cb5b1461056f57806395d89b411461059a576101f9565b80632f745c5911610190578063586892191161015f5780635868921914610436578063599270441461045f57806361ffe80c1461048a5780636352211e146104c757806370a0823114610504576101f9565b80632f745c59146103675780633d79d1c8146103a457806342842e0e146103d05780634f6ccce7146103f9576101f9565b80630bbc2840116101cc5780630bbc2840146102cc5780631249c58b1461030957806318160ddd1461031357806323b872dd1461033e576101f9565b806301ffc9a7146101fe57806306fdde031461023b578063081812fc14610266578063095ea7b3146102a3575b600080fd5b34801561020a57600080fd5b506102256004803603810190610220919061403e565b6107fc565b6040516102329190614af7565b60405180910390f35b34801561024757600080fd5b5061025061080e565b60405161025d9190614b73565b60405180910390f35b34801561027257600080fd5b5061028d6004803603810190610288919061413b565b6108a0565b60405161029a9190614a75565b60405180910390f35b3480156102af57600080fd5b506102ca60048036038101906102c59190613f3e565b610925565b005b3480156102d857600080fd5b506102f360048036038101906102ee9190614195565b610a3d565b6040516103009190614f55565b60405180910390f35b610311610c99565b005b34801561031f57600080fd5b506103286113ec565b604051610335919061512b565b60405180910390f35b34801561034a57600080fd5b5061036560048036038101906103609190613e28565b6113f9565b005b34801561037357600080fd5b5061038e60048036038101906103899190613f3e565b611459565b60405161039b919061512b565b60405180910390f35b3480156103b057600080fd5b506103b96114fe565b6040516103c79291906150e7565b60405180910390f35b3480156103dc57600080fd5b506103f760048036038101906103f29190613e28565b611548565b005b34801561040557600080fd5b50610420600480360381019061041b919061413b565b611568565b60405161042d919061512b565b60405180910390f35b34801561044257600080fd5b5061045d60048036038101906104589190613f7e565b6115d9565b005b34801561046b57600080fd5b50610474611675565b6040516104819190614a90565b60405180910390f35b34801561049657600080fd5b506104b160048036038101906104ac91906141ef565b61169b565b6040516104be919061512b565b60405180910390f35b3480156104d357600080fd5b506104ee60048036038101906104e9919061413b565b611733565b6040516104fb9190614a75565b60405180910390f35b34801561051057600080fd5b5061052b60048036038101906105269190613dbb565b6117e5565b604051610538919061512b565b60405180910390f35b34801561054d57600080fd5b5061055661189d565b005b34801561056457600080fd5b5061056d611925565b005b34801561057b57600080fd5b506105846119ce565b6040516105919190614a75565b60405180910390f35b3480156105a657600080fd5b506105af6119f8565b6040516105bc9190614b73565b60405180910390f35b3480156105d157600080fd5b506105ec60048036038101906105e79190614195565b611a8a565b005b3480156105fa57600080fd5b5061061560048036038101906106109190613efe565b611b75565b005b34801561062357600080fd5b5061063e60048036038101906106399190613f7e565b611b8b565b005b34801561064c57600080fd5b5061066760048036038101906106629190613e7b565b611c27565b005b34801561067557600080fd5b5061067e611c89565b60405161069096959493929190614b12565b60405180910390f35b3480156106a557600080fd5b506106c060048036038101906106bb9190613feb565b611d10565b005b3480156106ce57600080fd5b506106e960048036038101906106e4919061422f565b611e56565b005b3480156106f757600080fd5b50610712600480360381019061070d919061413b565b611f56565b60405161071f9190614b73565b60405180910390f35b34801561073457600080fd5b5061073d612014565b005b34801561074b57600080fd5b50610754612188565b6040516107619190614a90565b60405180910390f35b34801561077657600080fd5b50610791600480360381019061078c9190613de8565b6121ae565b60405161079e9190614af7565b60405180910390f35b3480156107b357600080fd5b506107ce60048036038101906107c99190613dbb565b612242565b005b3480156107dc57600080fd5b506107e561233a565b6040516107f3929190615146565b60405180910390f35b600061080782612359565b9050919050565b60606000805461081d906154a8565b80601f0160208091040260200160405190810160405280929190818152602001828054610849906154a8565b80156108965780601f1061086b57610100808354040283529160200191610896565b820191906000526020600020905b81548152906001019060200180831161087957829003601f168201915b5050505050905090565b60006108ab826123d3565b6108ea576040517f08c379a00000000000000000000000000000000000000000000000000000000081526004016108e190614e15565b60405180910390fd5b6004600083815260200190815260200160002060009054906101000a900473ffffffffffffffffffffffffffffffffffffffff169050919050565b600061093082611733565b90508073ffffffffffffffffffffffffffffffffffffffff168373ffffffffffffffffffffffffffffffffffffffff1614156109a1576040517f08c379a000000000000000000000000000000000000000000000000000000000815260040161099890614e95565b60405180910390fd5b8073ffffffffffffffffffffffffffffffffffffffff166109c061243f565b73ffffffffffffffffffffffffffffffffffffffff1614806109ef57506109ee816109e961243f565b6121ae565b5b610a2e576040517f08c379a0000000000000000000000000000000000000000000000000000000008152600401610a2590614d55565b60405180910390fd5b610a388383612447565b505050565b610a45613a6d565b601073__$b1cd3b50a076d1a24b5d0e61655a8299b0$__633c1c98729091846040518363ffffffff1660e01b8152600401610a81929190614ffa565b60206040518083038186803b158015610a9957600080fd5b505af4158015610aad573d6000803e3d6000fd5b505050506040513d601f19601f82011682018060405250810190610ad191906140e1565b604051806101400160405290816000820160009054906101000a900460ff161515151581526020016000820160019054906101000a900460ff1660ff1660ff1681526020016000820160029054906101000a900460ff1660ff1660ff1681526020016000820160039054906101000a900461ffff1661ffff1661ffff1681526020016000820160059054906101000a900461ffff1661ffff1661ffff1681526020016000820160079054906101000a900461ffff1661ffff1661ffff1681526020016000820160099054906101000a90046fffffffffffffffffffffffffffffffff166fffffffffffffffffffffffffffffffff166fffffffffffffffffffffffffffffffff168152602001600182015481526020016002820160009054906101000a900473ffffffffffffffffffffffffffffffffffffffff1673ffffffffffffffffffffffffffffffffffffffff1673ffffffffffffffffffffffffffffffffffffffff1681526020016003820160009054906101000a900473ffffffffffffffffffffffffffffffffffffffff1673ffffffffffffffffffffffffffffffffffffffff1673ffffffffffffffffffffffffffffffffffffffff16815250509050919050565b6000601f610ca7600c612500565b610cb1919061528a565b90506000349050600080601360000160039054906101000a900460ff16610cda57600080610d66565b601073__$b1cd3b50a076d1a24b5d0e61655a8299b0$__6305a3d4949091336040518363ffffffff1660e01b8152600401610d16929190614fa8565b604080518083038186803b158015610d2d57600080fd5b505af4158015610d41573d6000803e3d6000fd5b505050506040513d601f19601f82011682018060405250810190610d659190613fab565b5b91509150601360000160009054906101000a900460ff1680610d855750815b610dc4576040517f08c379a0000000000000000000000000000000000000000000000000000000008152600401610dbb90614f35565b60405180910390fd5b61271061ffff168461ffff161115610e11576040517f08c379a0000000000000000000000000000000000000000000000000000000008152600401610e0890614c75565b60405180910390fd5b6000610e1c336117e5565b14610e5c576040517f08c379a0000000000000000000000000000000000000000000000000000000008152600401610e5390614ef5565b60405180910390fd5b6000833373ffffffffffffffffffffffffffffffffffffffff1631610e81919061528a565b9050601360000160019054906101000a900460ff16610fb557601360000160059054906101000a90046fffffffffffffffffffffffffffffffff166fffffffffffffffffffffffffffffffff16601360000160049054906101000a900460ff1660ff1682610eef91906152e0565b10610f1a57601360000160049054906101000a900460ff1660ff1681610f1591906152e0565b610f4f565b601360000160059054906101000a90046fffffffffffffffffffffffffffffffff166fffffffffffffffffffffffffffffffff165b841015610f91576040517f08c379a0000000000000000000000000000000000000000000000000000000008152600401610f8890614c35565b60405180910390fd5b601360000160049054906101000a900460ff1660ff1684610fb29190615311565b90505b610fc3338661ffff1661250e565b61105a85600d73__$c6eddc433664ba9ed959a74e8cf867073a$__63704b15ab909189866040518463ffffffff1660e01b815260040161100593929190614f71565b60206040518083038186803b15801561101d57600080fd5b505af4158015611031573d6000803e3d6000fd5b505050506040513d601f19601f8201168201806040525081019061105591906141c2565b61252c565b611064600c6125b8565b8461ffff167f670db5e74f1a636e188c98b7ee19f17b34343eac15b638250cca68652250596782604051611098919061512b565b60405180910390a26110b56002856110b091906152e0565b6125ce565b601460000160008282829054906101000a90046fffffffffffffffffffffffffffffffff166110e49190615244565b92506101000a8154816fffffffffffffffffffffffffffffffff02191690836fffffffffffffffffffffffffffffffff16021790555061113b6064601e8661112c9190615311565b61113691906152e0565b6125ce565b601460000160108282829054906101000a90046fffffffffffffffffffffffffffffffff1661116a9190615244565b92506101000a8154816fffffffffffffffffffffffffffffffff02191690836fffffffffffffffffffffffffffffffff160217905550601073__$b1cd3b50a076d1a24b5d0e61655a8299b0$__63e617c65690916111c7876125ce565b6040518363ffffffff1660e01b81526004016111e4929190614fd1565b60006040518083038186803b1580156111fc57600080fd5b505af4158015611210573d6000803e3d6000fd5b50505050821561128757601073__$b1cd3b50a076d1a24b5d0e61655a8299b0$__633c9c1f7c9091846040518363ffffffff1660e01b8152600401611256929190614ffa565b60006040518083038186803b15801561126e57600080fd5b505af4158015611282573d6000803e3d6000fd5b505050505b60006032866112969190615554565b61ffff1614156113e5576000601460000160009054906101000a90046fffffffffffffffffffffffffffffffff166fffffffffffffffffffffffffffffffff1690506000601460000160109054906101000a90046fffffffffffffffffffffffffffffffff166fffffffffffffffffffffffffffffffff1690506000601460000160006101000a8154816fffffffffffffffffffffffffffffffff02191690836fffffffffffffffffffffffffffffffff1602179055506000601460000160106101000a8154816fffffffffffffffffffffffffffffffff02191690836fffffffffffffffffffffffffffffffff1602179055506113b6601560009054906101000a900473ffffffffffffffffffffffffffffffffffffffff168361262d565b6113e2601660009054906101000a900473ffffffffffffffffffffffffffffffffffffffff168261262d565b50505b5050505050565b6000600880549050905090565b61140a61140461243f565b82612721565b611449576040517f08c379a000000000000000000000000000000000000000000000000000000000815260040161144090614ed5565b60405180910390fd5b6114548383836127ff565b505050565b6000611464836117e5565b82106114a5576040517f08c379a000000000000000000000000000000000000000000000000000000000815260040161149c90614b95565b60405180910390fd5b600660008473ffffffffffffffffffffffffffffffffffffffff1673ffffffffffffffffffffffffffffffffffffffff168152602001908152602001600020600083815260200190815260200160002054905092915050565b60148060000160009054906101000a90046fffffffffffffffffffffffffffffffff16908060000160109054906101000a90046fffffffffffffffffffffffffffffffff16905082565b61156383838360405180602001604052806000815250611c27565b505050565b60006115726113ec565b82106115b3576040517f08c379a00000000000000000000000000000000000000000000000000000000081526004016115aa90614f15565b60405180910390fd5b600882815481106115c7576115c6615672565b5b90600052602060002001549050919050565b6115e161243f565b73ffffffffffffffffffffffffffffffffffffffff166115ff6119ce565b73ffffffffffffffffffffffffffffffffffffffff1614611655576040517f08c379a000000000000000000000000000000000000000000000000000000000815260040161164c90614e35565b60405180910390fd5b80601360000160006101000a81548160ff02191690831515021790555050565b601560009054906101000a900473ffffffffffffffffffffffffffffffffffffffff1681565b6000601073__$b1cd3b50a076d1a24b5d0e61655a8299b0$__6313bcb361909185856040518463ffffffff1660e01b81526004016116db93929190615023565b60206040518083038186803b1580156116f357600080fd5b505af4158015611707573d6000803e3d6000fd5b505050506040513d601f19601f8201168201806040525081019061172b9190614168565b905092915050565b6000806002600084815260200190815260200160002060009054906101000a900473ffffffffffffffffffffffffffffffffffffffff169050600073ffffffffffffffffffffffffffffffffffffffff168173ffffffffffffffffffffffffffffffffffffffff1614156117dc576040517f08c379a00000000000000000000000000000000000000000000000000000000081526004016117d390614d95565b60405180910390fd5b80915050919050565b60008073ffffffffffffffffffffffffffffffffffffffff168273ffffffffffffffffffffffffffffffffffffffff161415611856576040517f08c379a000000000000000000000000000000000000000000000000000000000815260040161184d90614d75565b60405180910390fd5b600360008373ffffffffffffffffffffffffffffffffffffffff1673ffffffffffffffffffffffffffffffffffffffff168152602001908152602001600020549050919050565b6118a561243f565b73ffffffffffffffffffffffffffffffffffffffff166118c36119ce565b73ffffffffffffffffffffffffffffffffffffffff1614611919576040517f08c379a000000000000000000000000000000000000000000000000000000000815260040161191090614e35565b60405180910390fd5b6119236000612a5b565b565b6119cc33601073__$b1cd3b50a076d1a24b5d0e61655a8299b0$__63efacd9b29091336040518363ffffffff1660e01b8152600401611965929190614fa8565b60206040518083038186803b15801561197d57600080fd5b505af4158015611991573d6000803e3d6000fd5b505050506040513d601f19601f820116820180604052508101906119b5919061410e565b6fffffffffffffffffffffffffffffffff1661262d565b565b6000600b60009054906101000a900473ffffffffffffffffffffffffffffffffffffffff16905090565b606060018054611a07906154a8565b80601f0160208091040260200160405190810160405280929190818152602001828054611a33906154a8565b8015611a805780601f10611a5557610100808354040283529160200191611a80565b820191906000526020600020905b815481529060010190602001808311611a6357829003601f168201915b5050505050905090565b611a9261243f565b73ffffffffffffffffffffffffffffffffffffffff16611ab06119ce565b73ffffffffffffffffffffffffffffffffffffffff1614611b06576040517f08c379a0000000000000000000000000000000000000000000000000000000008152600401611afd90614e35565b60405180910390fd5b601073__$b1cd3b50a076d1a24b5d0e61655a8299b0$__635827350a9091836040518363ffffffff1660e01b8152600401611b42929190614ffa565b60006040518083038186803b158015611b5a57600080fd5b505af4158015611b6e573d6000803e3d6000fd5b5050505050565b611b87611b8061243f565b8383612b21565b5050565b611b9361243f565b73ffffffffffffffffffffffffffffffffffffffff16611bb16119ce565b73ffffffffffffffffffffffffffffffffffffffff1614611c07576040517f08c379a0000000000000000000000000000000000000000000000000000000008152600401611bfe90614e35565b60405180910390fd5b80601360000160036101000a81548160ff02191690831515021790555050565b611c38611c3261243f565b83612721565b611c77576040517f08c379a0000000000000000000000000000000000000000000000000000000008152600401611c6e90614ed5565b60405180910390fd5b611c8384848484612c8e565b50505050565b60138060000160009054906101000a900460ff16908060000160019054906101000a900460ff16908060000160029054906101000a900460ff16908060000160039054906101000a900460ff16908060000160049054906101000a900460ff16908060000160059054906101000a90046fffffffffffffffffffffffffffffffff16905086565b611d1861243f565b73ffffffffffffffffffffffffffffffffffffffff16611d366119ce565b73ffffffffffffffffffffffffffffffffffffffff1614611d8c576040517f08c379a0000000000000000000000000000000000000000000000000000000008152600401611d8390614e35565b60405180910390fd5b8280611d9b575060008260ff16115b611dda576040517f08c379a0000000000000000000000000000000000000000000000000000000008152600401611dd190614eb5565b60405180910390fd5b82601360000160016101000a81548160ff02191690831515021790555081601360000160046101000a81548160ff021916908360ff16021790555080601360000160056101000a8154816fffffffffffffffffffffffffffffffff02191690836fffffffffffffffffffffffffffffffff160217905550505050565b611e5e61243f565b73ffffffffffffffffffffffffffffffffffffffff16611e7c6119ce565b73ffffffffffffffffffffffffffffffffffffffff1614611ed2576040517f08c379a0000000000000000000000000000000000000000000000000000000008152600401611ec990614e35565b60405180910390fd5b601073__$b1cd3b50a076d1a24b5d0e61655a8299b0$__63dc76102190918a8a8a8a8a8a8a8a6040518a63ffffffff1660e01b8152600401611f1c9998979695949392919061505a565b60006040518083038186803b158015611f3457600080fd5b505af4158015611f48573d6000803e3d6000fd5b505050505050505050505050565b606073__$14a1c3e15d2b6012657cc5c1f033beb7ca$__633beaa6ab836040518263ffffffff1660e01b8152600401611f8f9190615110565b60006040518083038186803b158015611fa757600080fd5b505af4158015611fbb573d6000803e3d6000fd5b505050506040513d6000823e3d601f19601f82011682018060405250810190611fe49190614098565b611fed83612cea565b604051602001611ffe929190614a02565b6040516020818303038152906040529050919050565b61201c61243f565b73ffffffffffffffffffffffffffffffffffffffff1661203a6119ce565b73ffffffffffffffffffffffffffffffffffffffff1614612090576040517f08c379a000000000000000000000000000000000000000000000000000000000815260040161208790614e35565b60405180910390fd5b601360000160029054906101000a900460ff166120e2576040517f08c379a00000000000000000000000000000000000000000000000000000000081526004016120d990614bb5565b60405180910390fd5b60005b601e81101561218557612108336001836120ff919061528a565b61ffff1661250e565b600061213b6009831161211c57600b612136565b6001600a8461212b9190615585565b612135919061528a565b5b612e3c565b905061215360018361214d919061528a565b8261252c565b6000601360000160026101000a81548160ff02191690831515021790555050808061217d9061550b565b9150506120e5565b50565b601660009054906101000a900473ffffffffffffffffffffffffffffffffffffffff1681565b6000600560008473ffffffffffffffffffffffffffffffffffffffff1673ffffffffffffffffffffffffffffffffffffffff16815260200190815260200160002060008373ffffffffffffffffffffffffffffffffffffffff1673ffffffffffffffffffffffffffffffffffffffff16815260200190815260200160002060009054906101000a900460ff16905092915050565b61224a61243f565b73ffffffffffffffffffffffffffffffffffffffff166122686119ce565b73ffffffffffffffffffffffffffffffffffffffff16146122be576040517f08c379a00000000000000000000000000000000000000000000000000000000081526004016122b590614e35565b60405180910390fd5b600073ffffffffffffffffffffffffffffffffffffffff168173ffffffffffffffffffffffffffffffffffffffff16141561232e576040517f08c379a000000000000000000000000000000000000000000000000000000000815260040161232590614bf5565b60405180910390fd5b61233781612a5b565b50565b600d8060000154908060010160009054906101000a900460ff16905082565b60007f780e9d63000000000000000000000000000000000000000000000000000000007bffffffffffffffffffffffffffffffffffffffffffffffffffffffff1916827bffffffffffffffffffffffffffffffffffffffffffffffffffffffff191614806123cc57506123cb82612e8c565b5b9050919050565b60008073ffffffffffffffffffffffffffffffffffffffff166002600084815260200190815260200160002060009054906101000a900473ffffffffffffffffffffffffffffffffffffffff1673ffffffffffffffffffffffffffffffffffffffff1614159050919050565b600033905090565b816004600083815260200190815260200160002060006101000a81548173ffffffffffffffffffffffffffffffffffffffff021916908373ffffffffffffffffffffffffffffffffffffffff160217905550808273ffffffffffffffffffffffffffffffffffffffff166124ba83611733565b73ffffffffffffffffffffffffffffffffffffffff167f8c5be1e5ebec7d5bd14f71427d1e84f3dd0314c0f7b2291e5b200ac8c7c3b92560405160405180910390a45050565b600081600001549050919050565b612528828260405180602001604052806000815250612f6e565b5050565b600061253a8260ff16612fc9565b6125478461ffff16612fc9565b604051602001612558929190614a26565b60405160208183030381529060405290506125778361ffff168261312a565b8261ffff167fa109ba539900bf1b633f956d63c96fc89b814c7287f7aa50a9216d0b55657207826040516125ab9190614b73565b60405180910390a2505050565b6001816000016000828254019250508190555050565b60006fffffffffffffffffffffffffffffffff8016821115612625576040517f08c379a000000000000000000000000000000000000000000000000000000000815260040161261c90614cd5565b60405180910390fd5b819050919050565b80471015612670576040517f08c379a000000000000000000000000000000000000000000000000000000000815260040161266790614d15565b60405180910390fd5b60008273ffffffffffffffffffffffffffffffffffffffff168260405161269690614a60565b60006040518083038185875af1925050503d80600081146126d3576040519150601f19603f3d011682016040523d82523d6000602084013e6126d8565b606091505b505090508061271c576040517f08c379a000000000000000000000000000000000000000000000000000000000815260040161271390614cf5565b60405180910390fd5b505050565b600061272c826123d3565b61276b576040517f08c379a000000000000000000000000000000000000000000000000000000000815260040161276290614d35565b60405180910390fd5b600061277683611733565b90508073ffffffffffffffffffffffffffffffffffffffff168473ffffffffffffffffffffffffffffffffffffffff1614806127e557508373ffffffffffffffffffffffffffffffffffffffff166127cd846108a0565b73ffffffffffffffffffffffffffffffffffffffff16145b806127f657506127f581856121ae565b5b91505092915050565b8273ffffffffffffffffffffffffffffffffffffffff1661281f82611733565b73ffffffffffffffffffffffffffffffffffffffff1614612875576040517f08c379a000000000000000000000000000000000000000000000000000000000815260040161286c90614e55565b60405180910390fd5b600073ffffffffffffffffffffffffffffffffffffffff168273ffffffffffffffffffffffffffffffffffffffff1614156128e5576040517f08c379a00000000000000000000000000000000000000000000000000000000081526004016128dc90614c95565b60405180910390fd5b6128f083838361319e565b6128fb600082612447565b6001600360008573ffffffffffffffffffffffffffffffffffffffff1673ffffffffffffffffffffffffffffffffffffffff168152602001908152602001600020600082825461294b919061536b565b925050819055506001600360008473ffffffffffffffffffffffffffffffffffffffff1673ffffffffffffffffffffffffffffffffffffffff16815260200190815260200160002060008282546129a2919061528a565b92505081905550816002600083815260200190815260200160002060006101000a81548173ffffffffffffffffffffffffffffffffffffffff021916908373ffffffffffffffffffffffffffffffffffffffff160217905550808273ffffffffffffffffffffffffffffffffffffffff168473ffffffffffffffffffffffffffffffffffffffff167fddf252ad1be2c89b69c2b068fc378daa952ba7f163c4a11628f55a4df523b3ef60405160405180910390a4505050565b6000600b60009054906101000a900473ffffffffffffffffffffffffffffffffffffffff16905081600b60006101000a81548173ffffffffffffffffffffffffffffffffffffffff021916908373ffffffffffffffffffffffffffffffffffffffff1602179055508173ffffffffffffffffffffffffffffffffffffffff168173ffffffffffffffffffffffffffffffffffffffff167f8be0079c531659141344cd1fd0a4f28419497f9722a3daafe3b4186f6b6457e060405160405180910390a35050565b8173ffffffffffffffffffffffffffffffffffffffff168373ffffffffffffffffffffffffffffffffffffffff161415612b90576040517f08c379a0000000000000000000000000000000000000000000000000000000008152600401612b8790614cb5565b60405180910390fd5b80600560008573ffffffffffffffffffffffffffffffffffffffff1673ffffffffffffffffffffffffffffffffffffffff16815260200190815260200160002060008473ffffffffffffffffffffffffffffffffffffffff1673ffffffffffffffffffffffffffffffffffffffff16815260200190815260200160002060006101000a81548160ff0219169083151502179055508173ffffffffffffffffffffffffffffffffffffffff168373ffffffffffffffffffffffffffffffffffffffff167f17307eab39ab6107e8899845ad3d59bd9653f200f220920489ca2b5937696c3183604051612c819190614af7565b60405180910390a3505050565b612c998484846127ff565b612ca5848484846131ae565b612ce4576040517f08c379a0000000000000000000000000000000000000000000000000000000008152600401612cdb90614bd5565b60405180910390fd5b50505050565b6060612cf5826123d3565b612d34576040517f08c379a0000000000000000000000000000000000000000000000000000000008152600401612d2b90614df5565b60405180910390fd5b6000600a60008481526020019081526020016000208054612d54906154a8565b80601f0160208091040260200160405190810160405280929190818152602001828054612d80906154a8565b8015612dcd5780601f10612da257610100808354040283529160200191612dcd565b820191906000526020600020905b815481529060010190602001808311612db057829003601f168201915b505050505090506000612dde613345565b9050600081511415612df4578192505050612e37565b600082511115612e29578082604051602001612e11929190614a02565b60405160208183030381529060405292505050612e37565b612e328461335c565b925050505b919050565b600060ff8016821115612e84576040517f08c379a0000000000000000000000000000000000000000000000000000000008152600401612e7b90614c15565b60405180910390fd5b819050919050565b60007f80ac58cd000000000000000000000000000000000000000000000000000000007bffffffffffffffffffffffffffffffffffffffffffffffffffffffff1916827bffffffffffffffffffffffffffffffffffffffffffffffffffffffff19161480612f5757507f5b5e139f000000000000000000000000000000000000000000000000000000007bffffffffffffffffffffffffffffffffffffffffffffffffffffffff1916827bffffffffffffffffffffffffffffffffffffffffffffffffffffffff1916145b80612f675750612f6682613403565b5b9050919050565b612f78838361346d565b612f8560008484846131ae565b612fc4576040517f08c379a0000000000000000000000000000000000000000000000000000000008152600401612fbb90614bd5565b60405180910390fd5b505050565b60606000821415613011576040518060400160405280600181526020017f30000000000000000000000000000000000000000000000000000000000000008152509050613125565b600082905060005b6000821461304357808061302c9061550b565b915050600a8261303c91906152e0565b9150613019565b60008167ffffffffffffffff81111561305f5761305e6156a1565b5b6040519080825280601f01601f1916602001820160405280156130915781602001600182028036833780820191505090505b5090505b6000851461311e576001826130aa919061536b565b9150600a856130b99190615585565b60306130c5919061528a565b60f81b8183815181106130db576130da615672565b5b60200101907effffffffffffffffffffffffffffffffffffffffffffffffffffffffffffff1916908160001a905350600a8561311791906152e0565b9450613095565b8093505050505b919050565b613133826123d3565b613172576040517f08c379a000000000000000000000000000000000000000000000000000000000815260040161316990614db5565b60405180910390fd5b80600a60008481526020019081526020016000209080519060200190613199929190613b12565b505050565b6131a983838361363b565b505050565b60006131cf8473ffffffffffffffffffffffffffffffffffffffff1661374f565b15613338578373ffffffffffffffffffffffffffffffffffffffff1663150b7a026131f861243f565b8786866040518563ffffffff1660e01b815260040161321a9493929190614aab565b602060405180830381600087803b15801561323457600080fd5b505af192505050801561326557506040513d601f19601f82011682018060405250810190613262919061406b565b60015b6132e8573d8060008114613295576040519150601f19603f3d011682016040523d82523d6000602084013e61329a565b606091505b506000815114156132e0576040517f08c379a00000000000000000000000000000000000000000000000000000000081526004016132d790614bd5565b60405180910390fd5b805181602001fd5b63150b7a0260e01b7bffffffffffffffffffffffffffffffffffffffffffffffffffffffff1916817bffffffffffffffffffffffffffffffffffffffffffffffffffffffff19161491505061333d565b600190505b949350505050565b606060405180602001604052806000815250905090565b6060613367826123d3565b6133a6576040517f08c379a000000000000000000000000000000000000000000000000000000000815260040161339d90614e75565b60405180910390fd5b60006133b0613345565b905060008151116133d057604051806020016040528060008152506133fb565b806133da84612fc9565b6040516020016133eb929190614a02565b6040516020818303038152906040525b915050919050565b60007f01ffc9a7000000000000000000000000000000000000000000000000000000007bffffffffffffffffffffffffffffffffffffffffffffffffffffffff1916827bffffffffffffffffffffffffffffffffffffffffffffffffffffffff1916149050919050565b600073ffffffffffffffffffffffffffffffffffffffff168273ffffffffffffffffffffffffffffffffffffffff1614156134dd576040517f08c379a00000000000000000000000000000000000000000000000000000000081526004016134d490614dd5565b60405180910390fd5b6134e6816123d3565b15613526576040517f08c379a000000000000000000000000000000000000000000000000000000000815260040161351d90614c55565b60405180910390fd5b6135326000838361319e565b6001600360008473ffffffffffffffffffffffffffffffffffffffff1673ffffffffffffffffffffffffffffffffffffffff1681526020019081526020016000206000828254613582919061528a565b92505081905550816002600083815260200190815260200160002060006101000a81548173ffffffffffffffffffffffffffffffffffffffff021916908373ffffffffffffffffffffffffffffffffffffffff160217905550808273ffffffffffffffffffffffffffffffffffffffff16600073ffffffffffffffffffffffffffffffffffffffff167fddf252ad1be2c89b69c2b068fc378daa952ba7f163c4a11628f55a4df523b3ef60405160405180910390a45050565b613646838383613762565b600073ffffffffffffffffffffffffffffffffffffffff168373ffffffffffffffffffffffffffffffffffffffff1614156136895761368481613767565b6136c8565b8173ffffffffffffffffffffffffffffffffffffffff168373ffffffffffffffffffffffffffffffffffffffff16146136c7576136c683826137b0565b5b5b600073ffffffffffffffffffffffffffffffffffffffff168273ffffffffffffffffffffffffffffffffffffffff16141561370b576137068161391d565b61374a565b8273ffffffffffffffffffffffffffffffffffffffff168273ffffffffffffffffffffffffffffffffffffffff16146137495761374882826139ee565b5b5b505050565b600080823b905060008111915050919050565b505050565b6008805490506009600083815260200190815260200160002081905550600881908060018154018082558091505060019003906000526020600020016000909190919091505550565b600060016137bd846117e5565b6137c7919061536b565b90506000600760008481526020019081526020016000205490508181146138ac576000600660008673ffffffffffffffffffffffffffffffffffffffff1673ffffffffffffffffffffffffffffffffffffffff168152602001908152602001600020600084815260200190815260200160002054905080600660008773ffffffffffffffffffffffffffffffffffffffff1673ffffffffffffffffffffffffffffffffffffffff168152602001908152602001600020600084815260200190815260200160002081905550816007600083815260200190815260200160002081905550505b6007600084815260200190815260200160002060009055600660008573ffffffffffffffffffffffffffffffffffffffff1673ffffffffffffffffffffffffffffffffffffffff16815260200190815260200160002060008381526020019081526020016000206000905550505050565b60006001600880549050613931919061536b565b905060006009600084815260200190815260200160002054905060006008838154811061396157613960615672565b5b90600052602060002001549050806008838154811061398357613982615672565b5b9060005260206000200181905550816009600083815260200190815260200160002081905550600960008581526020019081526020016000206000905560088054806139d2576139d1615643565b5b6001900381819060005260206000200160009055905550505050565b60006139f9836117e5565b905081600660008573ffffffffffffffffffffffffffffffffffffffff1673ffffffffffffffffffffffffffffffffffffffff168152602001908152602001600020600083815260200190815260200160002081905550806007600084815260200190815260200160002081905550505050565b604051806101400160405280600015158152602001600060ff168152602001600060ff168152602001600061ffff168152602001600061ffff168152602001600061ffff16815260200160006fffffffffffffffffffffffffffffffff16815260200160008152602001600073ffffffffffffffffffffffffffffffffffffffff168152602001600073ffffffffffffffffffffffffffffffffffffffff1681525090565b828054613b1e906154a8565b90600052602060002090601f016020900481019282613b405760008555613b87565b82601f10613b5957805160ff1916838001178555613b87565b82800160010185558215613b87579182015b82811115613b86578251825591602001919060010190613b6b565b5b509050613b949190613b98565b5090565b5b80821115613bb1576000816000905550600101613b99565b5090565b6000613bc8613bc384615194565b61516f565b905082815260208101848484011115613be457613be36156d5565b5b613bef848285615466565b509392505050565b6000613c0a613c05846151c5565b61516f565b905082815260208101848484011115613c2657613c256156d5565b5b613c31848285615475565b509392505050565b600081359050613c4881615eea565b92915050565b600081359050613c5d81615f01565b92915050565b600081359050613c7281615f18565b92915050565b600081519050613c8781615f18565b92915050565b600081359050613c9c81615f2f565b92915050565b600081519050613cb181615f2f565b92915050565b600082601f830112613ccc57613ccb6156d0565b5b8135613cdc848260208601613bb5565b91505092915050565b600082601f830112613cfa57613cf96156d0565b5b8151613d0a848260208601613bf7565b91505092915050565b600081519050613d2281615f46565b92915050565b600081359050613d3781615f5d565b92915050565b600081519050613d4c81615f5d565b92915050565b600081359050613d6181615f74565b92915050565b600081359050613d7681615f8b565b92915050565b600081519050613d8b81615f8b565b92915050565b600081359050613da081615fa2565b92915050565b600081519050613db581615fa2565b92915050565b600060208284031215613dd157613dd06156df565b5b6000613ddf84828501613c39565b91505092915050565b60008060408385031215613dff57613dfe6156df565b5b6000613e0d85828601613c39565b9250506020613e1e85828601613c39565b9150509250929050565b600080600060608486031215613e4157613e406156df565b5b6000613e4f86828701613c39565b9350506020613e6086828701613c39565b9250506040613e7186828701613d67565b9150509250925092565b60008060008060808587031215613e9557613e946156df565b5b6000613ea387828801613c39565b9450506020613eb487828801613c39565b9350506040613ec587828801613d67565b925050606085013567ffffffffffffffff811115613ee657613ee56156da565b5b613ef287828801613cb7565b91505092959194509250565b60008060408385031215613f1557613f146156df565b5b6000613f2385828601613c39565b9250506020613f3485828601613c63565b9150509250929050565b60008060408385031215613f5557613f546156df565b5b6000613f6385828601613c39565b9250506020613f7485828601613d67565b9150509250929050565b600060208284031215613f9457613f936156df565b5b6000613fa284828501613c63565b91505092915050565b60008060408385031215613fc257613fc16156df565b5b6000613fd085828601613c78565b9250506020613fe185828601613da6565b9150509250929050565b600080600060608486031215614004576140036156df565b5b600061401286828701613c63565b935050602061402386828701613d91565b925050604061403486828701613d28565b9150509250925092565b600060208284031215614054576140536156df565b5b600061406284828501613c8d565b91505092915050565b600060208284031215614081576140806156df565b5b600061408f84828501613ca2565b91505092915050565b6000602082840312156140ae576140ad6156df565b5b600082015167ffffffffffffffff8111156140cc576140cb6156da565b5b6140d884828501613ce5565b91505092915050565b6000602082840312156140f7576140f66156df565b5b600061410584828501613d13565b91505092915050565b600060208284031215614124576141236156df565b5b600061413284828501613d3d565b91505092915050565b600060208284031215614151576141506156df565b5b600061415f84828501613d67565b91505092915050565b60006020828403121561417e5761417d6156df565b5b600061418c84828501613d7c565b91505092915050565b6000602082840312156141ab576141aa6156df565b5b60006141b984828501613d91565b91505092915050565b6000602082840312156141d8576141d76156df565b5b60006141e684828501613da6565b91505092915050565b60008060408385031215614206576142056156df565b5b600061421485828601613d91565b925050602061422585828601613c39565b9150509250929050565b600080600080600080600080610100898b0312156142505761424f6156df565b5b600061425e8b828c01613d91565b985050602061426f8b828c01613c63565b97505060406142808b828c01613c39565b96505060606142918b828c01613c4e565b95505060806142a28b828c01613d52565b94505060a06142b38b828c01613d52565b93505060c06142c48b828c01613d91565b92505060e06142d58b828c01613d67565b9150509295985092959890939650565b6142ee816153b1565b82525050565b6142fd816153b1565b82525050565b61430c8161539f565b82525050565b61431b8161539f565b82525050565b61432a8161539f565b82525050565b614339816153c3565b82525050565b614348816153c3565b82525050565b614357816153c3565b82525050565b6000614368826151f6565b614372818561520c565b9350614382818560208601615475565b61438b816156e4565b840191505092915050565b60006143a182615201565b6143ab8185615228565b93506143bb818560208601615475565b6143c4816156e4565b840191505092915050565b60006143da82615201565b6143e48185615239565b93506143f4818560208601615475565b80840191505092915050565b600061440d602b83615228565b9150614418826156f5565b604082019050919050565b6000614430600983615228565b915061443b82615744565b602082019050919050565b6000614453603283615228565b915061445e8261576d565b604082019050919050565b6000614476602683615228565b9150614481826157bc565b604082019050919050565b6000614499602583615228565b91506144a48261580b565b604082019050919050565b60006144bc601283615228565b91506144c78261585a565b602082019050919050565b60006144df601c83615228565b91506144ea82615883565b602082019050919050565b6000614502601483615228565b915061450d826158ac565b602082019050919050565b6000614525602483615228565b9150614530826158d5565b604082019050919050565b6000614548601983615228565b915061455382615924565b602082019050919050565b600061456b602783615228565b91506145768261594d565b604082019050919050565b600061458e603a83615228565b91506145998261599c565b604082019050919050565b60006145b1601d83615228565b91506145bc826159eb565b602082019050919050565b60006145d4602c83615228565b91506145df82615a14565b604082019050919050565b60006145f7603883615228565b915061460282615a63565b604082019050919050565b600061461a602a83615228565b915061462582615ab2565b604082019050919050565b600061463d602983615228565b915061464882615b01565b604082019050919050565b6000614660602e83615228565b915061466b82615b50565b604082019050919050565b6000614683602083615228565b915061468e82615b9f565b602082019050919050565b60006146a6603183615228565b91506146b182615bc8565b604082019050919050565b60006146c9602c83615228565b91506146d482615c17565b604082019050919050565b60006146ec600583615239565b91506146f782615c66565b600582019050919050565b600061470f602083615228565b915061471a82615c8f565b602082019050919050565b6000614732602983615228565b915061473d82615cb8565b604082019050919050565b6000614755602f83615228565b915061476082615d07565b604082019050919050565b6000614778602183615228565b915061478382615d56565b604082019050919050565b600061479b600e83615228565b91506147a682615da5565b602082019050919050565b60006147be60008361521d565b91506147c982615dce565b600082019050919050565b60006147e1603183615228565b91506147ec82615dd1565b604082019050919050565b6000614804600183615239565b915061480f82615e20565b600182019050919050565b6000614827600c83615228565b915061483282615e49565b602082019050919050565b600061484a602c83615228565b915061485582615e72565b604082019050919050565b600061486d600483615228565b915061487882615ec1565b602082019050919050565b6101408201600082015161489a6000850182614330565b5060208201516148ad60208501826149d5565b5060408201516148c060408501826149d5565b5060608201516148d3606085018261498a565b5060808201516148e6608085018261498a565b5060a08201516148f960a085018261498a565b5060c082015161490c60c085018261495d565b5060e082015161491f60e08501826149a8565b50610100820151614934610100850182614303565b50610120820151614949610120850182614303565b50505050565b8082525050565b8082525050565b61496681615405565b82525050565b61497581615405565b82525050565b61498481615405565b82525050565b61499381615421565b82525050565b6149a281615421565b82525050565b6149b18161544f565b82525050565b6149c08161544f565b82525050565b6149cf8161544f565b82525050565b6149de81615459565b82525050565b6149ed81615459565b82525050565b6149fc81615459565b82525050565b6000614a0e82856143cf565b9150614a1a82846143cf565b91508190509392505050565b6000614a3282856143cf565b9150614a3d826147f7565b9150614a4982846143cf565b9150614a54826146df565b91508190509392505050565b6000614a6b826147b1565b9150819050919050565b6000602082019050614a8a6000830184614312565b92915050565b6000602082019050614aa560008301846142e5565b92915050565b6000608082019050614ac06000830187614312565b614acd6020830186614312565b614ada60408301856149b7565b8181036060830152614aec818461435d565b905095945050505050565b6000602082019050614b0c600083018461433f565b92915050565b600060c082019050614b27600083018961433f565b614b34602083018861433f565b614b41604083018761433f565b614b4e606083018661433f565b614b5b60808301856149e4565b614b6860a083018461496c565b979650505050505050565b60006020820190508181036000830152614b8d8184614396565b905092915050565b60006020820190508181036000830152614bae81614400565b9050919050565b60006020820190508181036000830152614bce81614423565b9050919050565b60006020820190508181036000830152614bee81614446565b9050919050565b60006020820190508181036000830152614c0e81614469565b9050919050565b60006020820190508181036000830152614c2e8161448c565b9050919050565b60006020820190508181036000830152614c4e816144af565b9050919050565b60006020820190508181036000830152614c6e816144d2565b9050919050565b60006020820190508181036000830152614c8e816144f5565b9050919050565b60006020820190508181036000830152614cae81614518565b9050919050565b60006020820190508181036000830152614cce8161453b565b9050919050565b60006020820190508181036000830152614cee8161455e565b9050919050565b60006020820190508181036000830152614d0e81614581565b9050919050565b60006020820190508181036000830152614d2e816145a4565b9050919050565b60006020820190508181036000830152614d4e816145c7565b9050919050565b60006020820190508181036000830152614d6e816145ea565b9050919050565b60006020820190508181036000830152614d8e8161460d565b9050919050565b60006020820190508181036000830152614dae81614630565b9050919050565b60006020820190508181036000830152614dce81614653565b9050919050565b60006020820190508181036000830152614dee81614676565b9050919050565b60006020820190508181036000830152614e0e81614699565b9050919050565b60006020820190508181036000830152614e2e816146bc565b9050919050565b60006020820190508181036000830152614e4e81614702565b9050919050565b60006020820190508181036000830152614e6e81614725565b9050919050565b60006020820190508181036000830152614e8e81614748565b9050919050565b60006020820190508181036000830152614eae8161476b565b9050919050565b60006020820190508181036000830152614ece8161478e565b9050919050565b60006020820190508181036000830152614eee816147d4565b9050919050565b60006020820190508181036000830152614f0e8161481a565b9050919050565b60006020820190508181036000830152614f2e8161483d565b9050919050565b60006020820190508181036000830152614f4e81614860565b9050919050565b600061014082019050614f6b6000830184614883565b92915050565b6000606082019050614f86600083018661494f565b614f936020830185614999565b614fa060408301846149c6565b949350505050565b6000604082019050614fbd6000830185614956565b614fca6020830184614321565b9392505050565b6000604082019050614fe66000830185614956565b614ff3602083018461497b565b9392505050565b600060408201905061500f6000830185614956565b61501c60208301846149f3565b9392505050565b60006060820190506150386000830186614956565b61504560208301856149f3565b6150526040830184614321565b949350505050565b600061012082019050615070600083018c614956565b61507d602083018b6149f3565b61508a604083018a61434e565b6150976060830189614321565b6150a460808301886142f4565b6150b160a0830187614999565b6150be60c0830186614999565b6150cb60e08301856149f3565b6150d96101008301846149c6565b9a9950505050505050505050565b60006040820190506150fc600083018561496c565b615109602083018461496c565b9392505050565b600060208201905061512560008301846149c6565b92915050565b600060208201905061514060008301846149b7565b92915050565b600060408201905061515b60008301856149b7565b61516860208301846149e4565b9392505050565b600061517961518a565b905061518582826154da565b919050565b6000604051905090565b600067ffffffffffffffff8211156151af576151ae6156a1565b5b6151b8826156e4565b9050602081019050919050565b600067ffffffffffffffff8211156151e0576151df6156a1565b5b6151e9826156e4565b9050602081019050919050565b600081519050919050565b600081519050919050565b600082825260208201905092915050565b600081905092915050565b600082825260208201905092915050565b600081905092915050565b600061524f82615405565b915061525a83615405565b9250826fffffffffffffffffffffffffffffffff0382111561527f5761527e6155b6565b5b828201905092915050565b60006152958261544f565b91506152a08361544f565b9250827fffffffffffffffffffffffffffffffffffffffffffffffffffffffffffffffff038211156152d5576152d46155b6565b5b828201905092915050565b60006152eb8261544f565b91506152f68361544f565b925082615306576153056155e5565b5b828204905092915050565b600061531c8261544f565b91506153278361544f565b9250817fffffffffffffffffffffffffffffffffffffffffffffffffffffffffffffffff04831182151516156153605761535f6155b6565b5b828202905092915050565b60006153768261544f565b91506153818361544f565b925082821015615394576153936155b6565b5b828203905092915050565b60006153aa8261542f565b9050919050565b60006153bc8261542f565b9050919050565b60008115159050919050565b60007fffffffff0000000000000000000000000000000000000000000000000000000082169050919050565b6000819050919050565b60006fffffffffffffffffffffffffffffffff82169050919050565b600061ffff82169050919050565b600073ffffffffffffffffffffffffffffffffffffffff82169050919050565b6000819050919050565b600060ff82169050919050565b82818337600083830152505050565b60005b83811015615493578082015181840152602081019050615478565b838111156154a2576000848401525b50505050565b600060028204905060018216806154c057607f821691505b602082108114156154d4576154d3615614565b5b50919050565b6154e3826156e4565b810181811067ffffffffffffffff82111715615502576155016156a1565b5b80604052505050565b60006155168261544f565b91507fffffffffffffffffffffffffffffffffffffffffffffffffffffffffffffffff821415615549576155486155b6565b5b600182019050919050565b600061555f82615421565b915061556a83615421565b92508261557a576155796155e5565b5b828206905092915050565b60006155908261544f565b915061559b8361544f565b9250826155ab576155aa6155e5565b5b828206905092915050565b7f4e487b7100000000000000000000000000000000000000000000000000000000600052601160045260246000fd5b7f4e487b7100000000000000000000000000000000000000000000000000000000600052601260045260246000fd5b7f4e487b7100000000000000000000000000000000000000000000000000000000600052602260045260246000fd5b7f4e487b7100000000000000000000000000000000000000000000000000000000600052603160045260246000fd5b7f4e487b7100000000000000000000000000000000000000000000000000000000600052603260045260246000fd5b7f4e487b7100000000000000000000000000000000000000000000000000000000600052604160045260246000fd5b600080fd5b600080fd5b600080fd5b600080fd5b6000601f19601f8301169050919050565b7f455243373231456e756d657261626c653a206f776e657220696e646578206f7560008201527f74206f6620626f756e6473000000000000000000000000000000000000000000602082015250565b7f4f4e4c595f4f4e43450000000000000000000000000000000000000000000000600082015250565b7f4552433732313a207472616e7366657220746f206e6f6e20455243373231526560008201527f63656976657220696d706c656d656e7465720000000000000000000000000000602082015250565b7f4f776e61626c653a206e6577206f776e657220697320746865207a65726f206160008201527f6464726573730000000000000000000000000000000000000000000000000000602082015250565b7f53616665436173743a2076616c756520646f65736e27742066697420696e203860008201527f2062697473000000000000000000000000000000000000000000000000000000602082015250565b7f494e53554646494349454e545f46554e44530000000000000000000000000000600082015250565b7f4552433732313a20746f6b656e20616c7265616479206d696e74656400000000600082015250565b7f544f54414c5f535550504c595f52454143484544000000000000000000000000600082015250565b7f4552433732313a207472616e7366657220746f20746865207a65726f2061646460008201527f7265737300000000000000000000000000000000000000000000000000000000602082015250565b7f4552433732313a20617070726f766520746f2063616c6c657200000000000000600082015250565b7f53616665436173743a2076616c756520646f65736e27742066697420696e203160008201527f3238206269747300000000000000000000000000000000000000000000000000602082015250565b7f416464726573733a20756e61626c6520746f2073656e642076616c75652c207260008201527f6563697069656e74206d61792068617665207265766572746564000000000000602082015250565b7f416464726573733a20696e73756666696369656e742062616c616e6365000000600082015250565b7f4552433732313a206f70657261746f7220717565727920666f72206e6f6e657860008201527f697374656e7420746f6b656e0000000000000000000000000000000000000000602082015250565b7f4552433732313a20617070726f76652063616c6c6572206973206e6f74206f7760008201527f6e6572206e6f7220617070726f76656420666f7220616c6c0000000000000000602082015250565b7f4552433732313a2062616c616e636520717565727920666f7220746865207a6560008201527f726f206164647265737300000000000000000000000000000000000000000000602082015250565b7f4552433732313a206f776e657220717565727920666f72206e6f6e657869737460008201527f656e7420746f6b656e0000000000000000000000000000000000000000000000602082015250565b7f45524337323155524953746f726167653a2055524920736574206f66206e6f6e60008201527f6578697374656e7420746f6b656e000000000000000000000000000000000000602082015250565b7f4552433732313a206d696e7420746f20746865207a65726f2061646472657373600082015250565b7f45524337323155524953746f726167653a2055524920717565727920666f722060008201527f6e6f6e6578697374656e7420746f6b656e000000000000000000000000000000602082015250565b7f4552433732313a20617070726f76656420717565727920666f72206e6f6e657860008201527f697374656e7420746f6b656e0000000000000000000000000000000000000000602082015250565b7f2e6a736f6e000000000000000000000000000000000000000000000000000000600082015250565b7f4f776e61626c653a2063616c6c6572206973206e6f7420746865206f776e6572600082015250565b7f4552433732313a207472616e73666572206f6620746f6b656e2074686174206960008201527f73206e6f74206f776e0000000000000000000000000000000000000000000000602082015250565b7f4552433732314d657461646174613a2055524920717565727920666f72206e6f60008201527f6e6578697374656e7420746f6b656e0000000000000000000000000000000000602082015250565b7f4552433732313a20617070726f76616c20746f2063757272656e74206f776e6560008201527f7200000000000000000000000000000000000000000000000000000000000000602082015250565b7f4449564944455f42595f5a45524f000000000000000000000000000000000000600082015250565b50565b7f4552433732313a207472616e736665722063616c6c6572206973206e6f74206f60008201527f776e6572206e6f7220617070726f766564000000000000000000000000000000602082015250565b7f5f00000000000000000000000000000000000000000000000000000000000000600082015250565b7f4f4e4c595f4f4e455f4e46540000000000000000000000000000000000000000600082015250565b7f455243373231456e756d657261626c653a20676c6f62616c20696e646578206f60008201527f7574206f6620626f756e64730000000000000000000000000000000000000000602082015250565b7f4c4f434b00000000000000000000000000000000000000000000000000000000600082015250565b615ef38161539f565b8114615efe57600080fd5b50565b615f0a816153b1565b8114615f1557600080fd5b50565b615f21816153c3565b8114615f2c57600080fd5b50565b615f38816153cf565b8114615f4357600080fd5b50565b615f4f816153fb565b8114615f5a57600080fd5b50565b615f6681615405565b8114615f7157600080fd5b50565b615f7d81615421565b8114615f8857600080fd5b50565b615f948161544f565b8114615f9f57600080fd5b50565b615fab81615459565b8114615fb657600080fd5b5056fea2646970667358221220f25334278f5d77361d752e0e4d881454fef3138aadb000379438696f59b9f23264736f6c63430008070033",
  "linkReferences": {
    "contracts/CryptoCocksLib.sol": {
      "CryptoCocksLib": [
        {
          "length": 20,
          "start": 9416
        }
      ]
    },
    "contracts/CryptoCocksWhitelistingLib.sol": {
      "CryptoCocksWhitelistingLib": [
        {
          "length": 20,
          "start": 4023
        },
        {
          "length": 20,
          "start": 4684
        },
        {
          "length": 20,
          "start": 5906
        },
        {
          "length": 20,
          "start": 6028
        },
        {
          "length": 20,
          "start": 7183
        },
        {
          "length": 20,
          "start": 7835
        },
        {
          "length": 20,
          "start": 8312
        },
        {
          "length": 20,
          "start": 9284
        }
      ]
    },
    "contracts/OrderStatisticsTreeLib.sol": {
      "OrderStatisticsTreeLib": [
        {
          "length": 20,
          "start": 5433
        }
      ]
    }
  },
  "deployedLinkReferences": {
    "contracts/CryptoCocksLib.sol": {
      "CryptoCocksLib": [
        {
          "length": 20,
          "start": 8026
        }
      ]
    },
    "contracts/CryptoCocksWhitelistingLib.sol": {
      "CryptoCocksWhitelistingLib": [
        {
          "length": 20,
          "start": 2633
        },
        {
          "length": 20,
          "start": 3294
        },
        {
          "length": 20,
          "start": 4516
        },
        {
          "length": 20,
          "start": 4638
        },
        {
          "length": 20,
          "start": 5793
        },
        {
          "length": 20,
          "start": 6445
        },
        {
          "length": 20,
          "start": 6922
        },
        {
          "length": 20,
          "start": 7894
        }
      ]
    },
    "contracts/OrderStatisticsTreeLib.sol": {
      "OrderStatisticsTreeLib": [
        {
          "length": 20,
          "start": 4043
        }
      ]
    }
  }
}